:100000000C9437000C943F020C943F020C943F0276
:100010000C94DD000C943F020C943F020C943F02C0
:100020000C943F020C943F020C943F020C943F024C
:100030000C943F020C943F020C943F020C943F023C
:100040000C9442010C943F020C9467010C941B0128
:100050000C943F020C943F020C943F020C943F021C
:100060000C943F020C943F02010003118000112404
:100070001FBECFEFD8E0DEBFCDBFE8E6F0E040E046
:1000800017C0B591A59135912591059107FD0CC03B
:1000900095918591EF01F92FE82F05900D92A21708
:1000A000B307D9F7FE0104C01D92A217B307E1F709
:1000B000ED36F40731F70E946D000C942302F8949A
:0200C000FFCF70
:1000C2000A4C454654000A5249474854000A5550C2
:0700D200000A444F574E00E5
:1000DA000E9438020E940A020E942E0284B18062A3
:1000EA0084B90E94F90178940E948B0182E00E94EF
:1000FA00E40190930B0380930A0383E00E94E401D6
:10010A00909309038093080380910A0390910B034B
:10011A00892B71F462EC70E080E00E94AD012FEF50
:10012A0080E792E0215080409040E1F700C0000053
:10013A0080910A0390910B038F3F934071F468EC0E
:10014A0070E080E00E94AD018FEF90E722E08150DD
:10015A0090402040E1F700C0000080910803909190
:10016A000903892B71F46FEC70E080E00E94AD0105
:10017A008FEF90E722E0815090402040E1F700C0E5
:10018A00000080910803909109038F3F934009F082
:10019A00ABCF63ED70E080E00E94AD018FEF90E796
:1001AA0022E0815090402040E1F700C000009CCF3F
:1001BA001F920F920FB60F9211242F933F934F93D2
:1001CA005F936F937F938F939F93AF93BF93EF93B5
:1001DA00FF9395B180E2892785B9E8E6F0E080814E
:1001EA008D7F80830E941802DC01CB018C509E4FC8
:1001FA00AF4FBF4F8093000390930103A093020374
:10020A00B093030381E080930C03FF91EF91BF91B8
:10021A00AF919F918F917F916F915F914F913F9194
:0C022A002F910F900FBE0F901F901895A1
:100236001F920F920FB60F9211248F93EF93FF9395
:1002460080911003E0910F038E1306C0E1ECF0E0FD
:1002560080818F7D80830BC0F0E0E050FE4F80816F
:100266008093C60080910F038F5F80930F03FF91E9
:0E027600EF918F910F900FBE0F901F90189573
:100284001F920F920FB60F9211248F939F93AF93E7
:10029400BF938091040390910503A0910603B0914C
:1002A40007030196A11DB11D8093040390930503D8
:1002B400A0930603B0930703BF91AF919F918F91D1
:0A02C4000F900FBE0F901F901895C9
:1002CE001F920F920FB60F9211242F938F939F931D
:1002DE00EF93FF932091C600E0910E0381E08E0F05
:1002EE0090910D03891731F0F0E0E050FF4F20831D
:1002FE0080930E03FF91EF919F918F912F910F900D
:08030E000FBE0F901F9018951F
:100316000F931F9380910C038823C9F00E94180243
:100326000091000310910103209102033091030311
:10033600601771078207930750F08BB382608BBBFF
:10034600E8E6F0E080818260808310920C031F91C2
:040356000F91089566
:10035A00CF92DF92EF92CF93DF936B01E82EC0E04A
:10036A00D0E001C02196F6018491E7FC80818823C0
:10037A0041F09FEFC91AD90AE90A0E94CD018111F9
:10038A00F1CFCE01DF91CF91EF90DF90CF9008951A
:10039A00E091100391E09E0F20910F03921769F0EC
:1003AA00F0E0E050FE4F808390931003E1ECF0E020
:0E03BA0080818062808381E0089580E0089554
:1003C800ECE7F0E09081907F8F70892B8083EAE7DB
:1003D800F0E080818064808380917A0086FDFCCF84
:0A03E800809178009091790008954B
:1003F20087B18F7E87B988B1806188B9E8E6F0E07D
:10040200808182608083ECE6F0E08081806180837D
:0204120008954B
:100414001092C50087E68093C4001092C00088E95A
:0C0424008093C10086E08093C200089520
:10043000F8946091040370910503809106039091F4
:0604400007037894089503
:10044600EC010E9444020E944302CE010E94450232
:06045600CE010E944102EC
:10045C0014BC85B5836085BDEEE6F0E080818160DB
:04046C0080830895EC
:0E04700080E480937C0087E880937A000895F2
:04047E000C940000DA
:040482000E945F0075
:020486000895D7
:020488000895D5
:02048A000895D3
:00000001FF
