:100000000C9443000C9456080C9456080C94560813
:100010000C9456080C9456080C9456080C945608E8
:100020000C9456080C9456080C9456080C945608D8
:100030000C9456080C9456080C9456080C945608C8
:100040000C94F2060C9456080C9456080C9456081E
:100050000C9456080C9456080C9456080C945608A8
:100060000C9456080C945608010001078001070102
:100070000E0010BA010E0129800129012A0010C1C9
:10008000012A012C800011241FBECFEFD8E0DEBF73
:10009000CDBFE8E6F0E040E017C0B591A5913591FD
:1000A0002591059107FD0CC095918591EF01F92FE0
:1000B000E82F05900D92A217B307D9F7FE0104C0EF
:1000C0001D92A217B307E1F7E538F40731F70E9454
:0A00D00036010C941808F894FFCFD5
:1000DA00536C61766520646576696365206E6F741A
:1000EA0020616363657074656420535441525420DF
:1000FA00636F6E646974696F6E00536C6176652014
:10010A00646576696365206E6F742061636B6E6FD8
:10011A00776C6564676564205752495445202854B2
:10012A0052414E534D495429206F72205245414441
:10013A0020636F6E646974696F6E7300536C6176C5
:10014A006520646576696365206E6F742061636BF0
:10015A006E6F776C65646765642057524954452011
:10016A00285452414E534D49542920636F6E646995
:10017A0074696F6E00536C61766520646576696395
:10018A0065206E6F742061636B6E6F776C65646750
:10019A006564205245414420636F6E646974696FD7
:1001AA006E00556E6B6E6F776E204932435F535403
:1001BA00415455535F4552524F5220636F64650054
:1001CA004269656E76656E69646F2100412D3E2035
:1001DA00496E67722E20636F6E74726100422D3E03
:1001EA002043616D622E20636F6E74726100496EE6
:1001FA0067726573617220636F6E7472613A00434D
:10020A006F6E7472612061637475616C3A00496E35
:10021A00636F72726563746F210043616E64616417
:10022A006F206162696572746F004E756576612030
:10023A00636F6E7472613A00436F6E747261206309
:10024A00616D626961646121004365727261646F04
:02025A00210081
:10025C003132334134353642373839432A3023442E
:10026C00CF93DF93CDB7DEB7C359D1090FB6F8944E
:10027C00DEBF0FBECDBF80EF8AB98FE08BB90E9475
:10028C002D0884B1806284B985B18F7D85B984B124
:10029C00836084B985B1816085B985B18D7F85B95D
:1002AC00789420E042E060E187E20E94CF05298348
:1002BC003A834B835C836D837E838F83CE0101965F
:1002CC000E9447082AEC31E040E08CE0F901DE01A5
:1002DC001896742F0E940008BE01685F7F4FCE01F4
:1002EC0001960E94A5072FEF83ED90E321508040EB
:1002FC009040E1F700C0000087E0FE013196DE017E
:10030C00A357BF4F01900D928A95E1F726ED31E08E
:10031C0040E081E1F901DE019596742F0E940008FE
:10032C0027EE31E040E081E1F901DE015496742FB3
:10033C000E940008CE0183579F4F0E94BA0740E0ED
:10034C0060E0CE0183579F4F0E943807BE016B5D62
:10035C007F4FCE0183579F4F0E94A50740E061E07D
:10036C00CE0183579F4F0E943807BE016C5E7F4FB2
:10037C00CE0183579F4F0E94A50787E091E0A0E82C
:10038C00D82EE92EFA2EBC018A2F0E948F0780935B
:10039C002701109200011092280100E00E940D0824
:1003AC0080901E0190901F01A0902001B09021011F
:1003BC0086169706A806B90618F485B18F7D85B9FF
:1003CC0080912A01882349F10E940D088090160122
:1003DC0090901701A0901801B090190186169706FD
:1003EC00A806B906D0F480912B0181110AC085B101
:1003FC008E7F85B985B1826085B981E080932B01B0
:10040C000AC0813041F485B18D7F85B985B1816099
:10041C0085B910922B0110922A018091290181112A
:10042C0012C00E940D088090120190901301A090B0
:10043C001401B090150186169706A806B90618F493
:10044C0081E0809329010E945D06182F882309F40E
:10045C00A5CF85B1806285B90E940D0860932201F9
:10046C007093230180932401909325010E940D0821
:10047C00DC01CB014496A11DB11D80931E0190930C
:10048C001F01A0932001B09321010E940D086093DD
:10049C001A0170931B0180931C0190931D01DC01C8
:1004AC00CB0188539F4FAF4FBF4F80931601909352
:1004BC001701A0931801B093190191E090932A01B0
:1004CC0085B18E7F85B985B1826085B990932B01FA
:1004DC00023009F4A7C130F4002359F0013009F4BB
:1004EC006FC05CCF033009F422C2043009F4E1C2BE
:1004FC0055CF113489F587E0FE013196DE01AA57FC
:10050C00BF4F01900D928A95E1F7CE018A579F4F0C
:10051C000E94BA0728EF31E040E081E1F901DE01E9
:10052C005496742F0E94000840E060E0CE018A5778
:10053C009F4F0E943807BE016C5E7F4FCE018A57D9
:10054C009F4F0E94A50740E061E0CE018A579F4F64
:10055C000E94380701E022CF123409F01FCF87E048
:10056C00FE013196DE01A158BF4F01900D928A9584
:10057C00E1F7CE0181589F4F0E94BA0729E032E083
:10058C0040E08FE0F901DE015496742F0E940008C0
:10059C0040E060E0CE0181589F4F0E943807BE01B9
:1005AC006C5E7F4FCE0181589F4F0E94A50740E0A3
:1005BC0061E0CE0181589F4F0E94380702E0EECED9
:1005CC00133209F047C0109200011092280187E005
:1005DC00FE013196DE01A858BF4F01900D928A950D
:1005EC00E1F726ED31E040E081E1F901DE0195967D
:1005FC00742F0E94000827EE31E040E081E1F90100
:10060C00DE015496742F0E940008CE0188589F4F2B
:10061C000E94BA0740E060E0CE0188589F4F0E94CC
:10062C003807BE016B5D7F4FCE0188589F4F0E94EB
:10063C00A50740E061E0CE0188589F4F0E94380723
:10064C00BE016C5E7F4FCE0188589F4F0E94A5075C
:10065C0000E0A4CE143409F09EC020E031E040E864
:10066C006D2D7E2D8F2D0E941707892B09F45EC0EE
:10067C001092000110922801CE0101960E94BA0737
:10068C0028E132E040E08CE0F901DE019596742F10
:10069C000E94000840E060E0CE0101960E943807FD
:1006AC00BE016B5D7F4FCE0101960E94A50740E015
:1006BC0061E0CE0101960E9438072FEF89E698E1A0
:1006CC00215080409040E1F700C0000087E0FE011F
:1006DC003196DE01AF58BF4F01900D928A95E1F72C
:1006EC00CE018F589F4F0E94BA0728EF31E040E0AF
:1006FC0081E1F901DE015496742F0E94000840E05C
:10070C0060E0CE018F589F4F0E943807BE016C5E8F
:10071C007F4FCE018F589F4F0E94A50740E061E0AC
:10072C00CE018F589F4F0E94380738CE109200018F
:10073C001092280187E0FE013196DE01A659BF4FC9
:10074C0001900D928A95E1F7CE0186599F4F0E9438
:10075C00BA0724E232E040E080E1F901DE01549670
:10076C00742F0E94000840E060E0CE0186599F4F34
:10077C000E943807BE016C5E7F4FCE0186599F4F99
:10078C000E94A50740E061E0CE0186599F4F0E9470
:10079C00380704E003CE133439F5809128018823FF
:1007AC0009F4FCCD20E230E03D8B2C8B4FEF480F51
:1007BC004093280161E0CE0101960E943807BE01EA
:1007CC006C5E7F4FCE0101960E94A50740912801D7
:1007DC0061E0CE0101960E943807E0912801F0E01B
:1007EC00E050FF4F1082DACDE0912801E63008F09E
:1007FC00D5CD81E08E0F80932801F0E0E050FF4FC3
:10080C001083E82FF0E0E050FF4F10828AE290E076
:10081C009D8B8C8BBE016C5E7F4FCE0101960E942E
:10082C00A507BCCD133209F043C087E0FE01319619
:10083C00DE01AD59BF4F01900D928A95E1F726ED7F
:10084C0031E040E081E1F901DE019596742F0E94C0
:10085C00000827EE31E040E081E1F901DE01549619
:10086C00742F0E940008CE018D599F4F0E94BA0729
:10087C0040E060E0CE018D599F4F0E943807BE01C9
:10088C006B5D7F4FCE018D599F4F0E94A50740E0B5
:10089C0061E0CE018D599F4F0E943807BE016C5EFE
:1008AC007F4FCE018D599F4F0E94A50700E076CD5A
:1008BC00143489F587E0FE013196DE01A45ABF4F4E
:1008CC0001900D928A95E1F7CE01845A9F4F0E94B8
:1008DC00BA0724E332E040E08EE0F901DE015496E1
:1008EC00742F0E94000840E060E0CE01845A9F4FB4
:1008FC000E943807BE016C5E7F4FCE01845A9F4F19
:10090C000E94A50740E061E0CE01845A9F4F0E94EF
:10091C00380703E043CD8AE290E09D8B8C8BBE01BF
:10092C006C5E7F4FCE0101960E94A50737CD133226
:10093C0009F043C087E0FE013196DE01AB5ABF4F90
:10094C0001900D928A95E1F726ED31E040E081E1CE
:10095C00F901DE019596742F0E94000827EE31E014
:10096C0040E081E1F901DE015496742F0E940008E9
:10097C00CE018B5A9F4F0E94BA0740E060E0CE0137
:10098C008B5A9F4F0E943807BE016B5D7F4FCE0183
:10099C008B5A9F4F0E94A50740E061E0CE018B5A15
:1009AC009F4F0E943807BE016C5E7F4FCE018B5A61
:1009BC009F4F0E94A50700E0F1CC143409F06DC0E4
:1009CC00CE0101960E94BA0722E432E040E081E1B8
:1009DC00F901DE01D696742F0E94000840E060E019
:1009EC00CE0101960E943807BE016A5C7F4FCE0192
:1009FC0001960E94A50740E061E0CE0101960E949D
:100A0C0038072FEF89E698E1215080409040E1F7BC
:100A1C0000C0000087E0FE013196DE01A25BBF4FF3
:100A2C0001900D928A95E1F726ED31E040E081E1ED
:100A3C00F901DE019596742F0E94000827EE31E033
:100A4C0040E081E1F901DE015496742F0E94000808
:100A5C00CE01825B9F4F0E94BA0740E060E0CE015E
:100A6C00825B9F4F0E943807BE016B5D7F4FCE01AA
:100A7C00825B9F4F0E94A50740E061E0CE01825B44
:100A8C009F4F0E943807BE016C5E7F4FCE01825B88
:100A9C009F4F0E94A50700E081CC8AE290E09D8BDD
:100AAC008C8BBE016C5E7F4FCE0101960E94A50718
:100ABC0075CC143409F072CCCE0101960E94BA07A1
:100ACC0023E532E040E089E0F901DE01D696742F8F
:100ADC000E94000840E060E0CE0101960E943807B9
:100AEC00BE016A5C7F4FCE0101960E94A50740E0D3
:100AFC0061E0CE0101960E9438072FEF89E698E15C
:100B0C00215080409040E1F700C0000087E0FE01DA
:100B1C003196DE01A95BBF4F01900D928A95E1F7EA
:100B2C0026ED31E040E081E1F901DE019596742F6C
:100B3C000E94000827EE31E040E081E1F901DE017E
:100B4C005496742F0E940008CE01895B9F4F0E941F
:100B5C00BA0740E060E0CE01895B9F4F0E943807E6
:100B6C00BE016B5D7F4FCE01895B9F4F0E94A50735
:100B7C0040E061E0CE01895B9F4F0E943807BE01C7
:100B8C006C5E7F4FCE01895B9F4F0E94A50700E0F2
:020B9C0005CC86
:100B9E00CF93DF93CDB7DEB72E970FB6F894DEBFA7
:100BAE000FBECDBF888769874A871B862C8784E056
:100BBE008D8782E08E87423018F0822F88608C8776
:100BCE00222329F0413019F48C8584608C872FEF15
:100BDE0081EE94E0215080409040E1F700C000008B
:100BEE0060E0CE0108960E9440082FEF83ED90E35F
:100BFE00215080409040E1F700C0000060E3CE013C
:100C0E0008960E9440088FE496E40197F1F700C021
:100C1E00000060E3CE0108960E94F1078FE496E48F
:100C2E000197F1F700C0000060E3CE0108960E9424
:100C3E00F10787E592E00197F1F700C0000060E24E
:100C4E00CE0108960E94F1076C856062CE0108966F
:100C5E000E945208CE0108960E943708CE010896CF
:100C6E000E94BA076E856460CE0108960E945208F3
:100C7E00CE0108960E94230887E0FE013896DE0119
:100C8E00119601900D928A95E1F729813A814B8157
:100C9E005C816D817E818F8190E02E960FB6F894E7
:0C0CAE00DEBF0FBECDBFDF91CF910895D7
:100CBA00CF9380912901882309F45DC060E054C074
:100CCA002BB1E62FF0E0AF014C5F5F4F81E090E07F
:100CDA0002C0880F991F4A95E2F7922F906F80956C
:100CEA0089238BB98AE18A95F1F700C099B19F707F
:100CFA0080E037C0482F50E0292F30E0082E02C08C
:100D0A00359527950A94E2F720FD2AC0CF01880F6E
:100D1A00991F880F991F840F951F092E000CAA0B83
:100D2A00845A9D4FAF4FFC01C491A7FDC0818091A9
:100D3A002601C81711F1109229010E940D08DC0141
:100D4A00CB018C599F4FAF4FBF4F809312019093A5
:100D5A001301A0931401B0931501C09326010EC08C
:100D6A008F5F843038F26F5F643008F4A9CF109235
:100D7A002601C0E003C0C0E001C0C0E08C2FCF91C3
:020D8A000895CA
:100D8C00ECEBF0E0108294EA90839091BC009923F4
:100D9C00E4F79091B900987F983011F09031B1F44C
:100DAC0090E0880F991F862B8093BB0084E880937A
:100DBC00BC008091BC008823E4F78091B900887F47
:100DCC00883131F0803431F480E008958AE0089560
:080DDC0080E0089584E1089510
:100DE4001F920F920FB60F9211248F939F93AF937C
:100DF400BF9380910E0190910F01A0911001B091C9
:100E040011010196A11DB11D80930E0190930F0154
:100E1400A0931001B0931101BF91AF919F918F9155
:0A0E24000F900FBE0F901F9018955D
:100E2E00CF92DF92EF926B01E82EF6018491E7FCF0
:100E3E008081F901549147FD508185130BC08823A1
:100E4E0041F08FEFC81AD80AE80A2F5F3F4F4F4F75
:100E5E00ECCF582F90E0851B9109EF90DF90CF904B
:020E6E000895E5
:100E7000CF93DF9300D000D0CDB7DEB7198220E446
:100E80002A8324E12B8324E52C83E1E0F0E0EC0FBE
:100E9000FD1FE60FF11D6081640F60680E9452081B
:0E0EA0000F900F900F900F90DF91CF9108955B
:100EAE00FF920F931F93CF93DF938C01F42E862F17
:100EBE00807F90E1699FE0011124682F642BC801A7
:100ECE000E94F1076C2F6F29C8010E94F107DF9174
:0A0EDE00CF911F910F91FF9008952E
:100EE8000F931F93CF938C01C62F64600E94400814
:100EF8008AE08A95F1F700C06C2F6B7FC8010E94C9
:100F0800400887EC90E00197F1F700C00000CF910E
:060F18001F910F910895E6
:100F1E00CF92DF92EF926B01E82EA82FCB01FC014E
:100F2E002491A7FD2081222319F00196A11DF7CF50
:0C0F3E008C199D09EF90DF90CF90089572
:100F4A000F931F93CF93DF938C01EB01688106C047
:100F5A0041E0C8010E945707219668816111F8CFC4
:0A0F6A00DF91CF911F910F910895C0
:100F7400CF93DF93EC0161E00E9452088FE39FE17D
:100F84000197F1F700C0000040E060E0CE010E944C
:080F94003807DF91CF910895A9
:100F9C008093BB0084E88093BC008091BC008823C4
:100FAC00E4F78091B900887F883211F085E10895CB
:040FBC0080E0089534
:100FC000CF93C62F60E00E94C606811108C08C2F07
:100FD0000E94CE07811103C00E944E0880E0CF918D
:020FE000089572
:100FE2001F93CF93DF93EC01162F0E944008612FCD
:0E0FF200CE010E947407DF91CF911F910895E8
:10100000992777FD05C005900D920197E1F70895A6
:0A10100001900D920197E1F7089599
:10101A00F89460910E0170910F01809110019091E6
:06102A0011017894089505
:10103000EC010E945B080E945A08CE010E945C08E5
:06104000CE010E945808D9
:1010460062E00E9452088FE39FE10197F1F700C02A
:0410560000000895F9
:10105A0014BC85B5836085BDEEE6F0E080818160D1
:04106A0080830895E2
:10106E00FC016581262F246025836C600E94520846
:02107E000895D3
:0E108000FC012381622B80810E94E00708950D
:0E108E0028E0FC01238360E00E9440080895E2
:08109C0084E98093BC00089573
:0810A40040E00E945707089587
:0410AC000C940000A0
:0410B0000E946B002F
:0210B40008959D
:0210B60008959B
:0210B800089599
:0710BA0031323334353600FA
:0110C100012D
:00000001FF
