:100000000C9434000C949C130C949C130C949C132F
:100010000C949C130C949C130C949C130C949C13A4
:100020000C949C130C949C130C949C130C949C1394
:100030000C949C130C949C130C949C130C949C1384
:100040000C949C130C949C130C949C130C949C1374
:100050000C949C130C949C130C949C130C949C1364
:100060000C949C130C949C1311241FBECFEFD8E06A
:10007000DEBFCDBF0E94D7120C942F13F894FFCF90
:1000800083F9A200444E6E00FC291500D1572700C9
:10009000DD34F50062DBC0003C99950041904300DF
:1000A0006351FE00BBDEAB00B761C5003A6E2400B1
:1000B000D24D42004906E00009EA2E001C92D10010
:1000C000EB1DFE0029B11C00E83EA700F5358200BB
:1000D00044BB2E009CE98400B4267000417E5F0082
:1000E000D6913900538339009CF439008B5F84002A
:1000F00028F9BD00F81F3B00DEFF97000F980500B0
:10010000112FEF000A5A8B006D1F6D00CF7E360055
:1001100009CB2700464FB7009E663F002DEA5F00DF
:10012000BA277500E5EBC7003D7BF100F739070002
:1001300092528A00FB6BEA001FB15F00085D8D00E0
:10014000300356007BFC4600F0AB6B0020BCCF00B8
:1001500036F49A00E3A91D005E619100081BE600D9
:1001600085996500A0145F008D40680080D8FF006D
:1001700027734D0006063100CA561500C9A8730042
:080180007BE260006B8CC00003
:10018800DA0FC93F6821A233C434C2278B62C61B69
:100198001CDC800F0229D1031400000000000000BD
:0801A80003000400040006003E
:1001B000A1E7B1E0EEEDF0E00C945612CB59DE4F22
:1001C0008883C556D140C759DE4F9883C956D14060
:1001D000C35ADE4F79836883CD55D1407A01C75B1E
:1001E000DE4F39832883C954D140CD59DE4F19835E
:1001F0000883C356D140C801880F991F092E000CEF
:10020000AA0B88559E4FAF4FFC015A2F0E945613E0
:100210004B01770FAA08BB08CB5ADE4F8882998220
:10022000AA82BB82C555D140C90101975C01990FD3
:10023000CC08DD08CF5ADE4FA882B982CA82DB82A1
:10024000C155D140C701039768E170E00E948D124B
:1002500077FD0DC04B01770FAA08BB08C75ADE4FC8
:1002600088829982AA82BB82C955D14008C0C75AE8
:10027000DE4F188219821A821B82C955D140A8EE1E
:10028000BFEFC75ADE4F288139814A815B81C9554A
:10029000D1402F5F3F4F4F4F5F4F0E945113870157
:1002A000FF0C220B330B5B016C01A00EB11EC21EB2
:1002B000D31ECF5BDE4FA882B982CA82DB82C154D3
:1002C000D140C75ADE4F488059806A807B80C9552B
:1002D000D140CF5ADE4FC880D980EA80FB80C1551B
:1002E000D1404C185D086E087F08CB5ADE4F8880DD
:1002F0009980AA80BB80C555D1408C0C9D1CAE1C3A
:10030000BF1CCB5BDE4F88829982AA82BB82C55418
:10031000D1408E010F551F4F6201CC0CDD1CCC0C5F
:10032000DD1CC601DD0CAA0B9C014A2F20583F4F53
:100330004F4F6901E42E812C912C5401CB5BDE4F91
:10034000288139814A815B81C554D14028153905FE
:100350004A055B0514F1D501C401840D951DA61D48
:10036000B71DB7FD07C0F6015E2D0E9418130E944D
:10037000A61103C060E070E0CB01D8016D937D93BE
:100380008D939D938D01BFEF8B1A9B0AAB0ABB0A1D
:10039000E4E0CE0ED11CE11CD1CF8E010F5F1F4FC8
:1003A000C35BDE4F19830883CD54D140C75BDE4F5A
:1003B00088809980C954D140C401990CAA0BBB0B09
:1003C0000197A109B1095C01AA0CBB1CAA0CBB1CBA
:1003D000C15ADE4FB982A882CF55D140212C312C91
:1003E000412C512C3201CB5ADE4F88809980AA8053
:1003F000BB80C555D14084149504A604B7040CF401
:1004000084C0CB59DE4F9880C556D140CB5BDE4FC0
:100410009882C554D140C759DE4FA880C956D140F3
:10042000CA5BDE4FA882C654D140C15ADE4FC88095
:10043000D980CF55D140C20CD31CC959DE4FD982C7
:10044000C882C756D14000E010E0812C912C5401A5
:10045000C12CD12C7601CF5ADE4F288139814A81B7
:100460005B81C155D1402C153D054E055F05A4F1BA
:10047000C959DE4FE881F981C756D140E00FF11F1D
:1004800021EA30E02C0F3D1FE20FF31FCB5BDE4F64
:10049000A881B981C554D1402D913D914D915D9177
:1004A000CB5BDE4FB983A883C554D1406081718195
:1004B000828193810E9495139B01AC01C501B40117
:1004C0000E945F134B015C01BFEFCB1ADB0AEB0A02
:1004D000FB0A04501109BFCFC35BDE4FA881B9816D
:1004E000CD54D1408D929D92AD92BD92C35BDE4FB3
:1004F000B983A883CD54D140BFEF4B1A5B0A6B0A76
:100500007B0AE4E02E0E311C6ECFCB5ADE4F888181
:100510009981AA81BB81C555D1400197A109B10933
:100520007C01EE0CFF1CEE0CFF1CC459DE4FF9825F
:10053000E882CC56D140CB5ADE4F488059806A8041
:100540007B80C555D140C75BDE4F88819981C954F6
:10055000D14001974C01990FAA08BB08C259DE4F40
:1005600088829982AA82BB82CE56D1405201AA0CBF
:10057000BB1CAA0CBB1CC35BDE4FB982A882CD5446
:10058000D140E1E0F0E0EC0FFD1FEA0DFB1DC08063
:10059000D180E280F3801E0101EF200E311CD301D7
:1005A000C2010197A109B1094C01880C991C880C62
:1005B000991CC15ADE4F99828882CF55D140CB5BBE
:1005C000DE4F39822882C554D1405301420100E0F8
:1005D00010E0181419041A041B040CF059C020E090
:1005E00030E040E853E3C701B6010E9495130E9432
:1005F00065130E94A611C75BDE4F688379838A83E7
:100600009B83C954D14020E030E040E85BE40E9485
:1006100095139B01AC01C701B6010E945E130E94B5
:100620006513CB5BDE4FA881B981C554D1406D9372
:100630007D938D939D93CB5BDE4FB983A883C55487
:10064000D140B1E08B1A9108A108B108C15ADE4F20
:10065000E881F981CF55D140E00FF11FCC24C3943C
:10066000D12CCC0EDD1EEC0DFD1D2081318142818F
:100670005381C75BDE4F688179818A819B81C95430
:10068000D1400E945F136B017C0104501109A1CF7E
:10069000CF5BDE4F08811981C154D140A801C70149
:1006A000B6010E9405116B017C0120E030E040E0C2
:1006B0005EE30E9495130E943C0E20E030E040E093
:1006C00051E40E9495139B01AC01C701B6010E9441
:1006D0005E136B017C010E946513C75BDE4F68836C
:1006E00079838A839B83C954D1400E94A6119B01C0
:1006F000AC01C701B6010E945E136B017C01CF5BA8
:10070000DE4F88809980AA80BB80C154D1401814E4
:1007100019041A041B040CF05AC0D301C20101973A
:10072000A109B109FC01EE0FFF1FEE0FFF1F71EFD2
:10073000A72EB12CAC0EBD1EEA0DFB1D8081918150
:10074000A281B38128E130E028193909AC01BD014B
:10075000022E04C075956795579547950A94D2F770
:10076000C75BDE4F88809980AA80BB80C954D14086
:10077000840E951EA61EB71EC75BDE4F8882998227
:10078000AA82BB82C954D14004C0440F551F661FC2
:10079000771F2A95D2F7841B950BA60BB70B808386
:1007A0009183A283B38327E130E0CF5BDE4FA88043
:1007B000B980C154D1402A193B094C015D0104C0E4
:1007C000B594A794979487942A95D2F728C0CF5BC5
:1007D000DE4F88809980AA80BB80C154D14089288F
:1007E0008A288B2891F5D301C2010197A109B1098B
:1007F000880F991F880F991FE1EFF0E0EC0FFD1FA4
:10080000E80FF91F80819181A281B3814C015D01C4
:1008100057E1B594A794979487945A95D1F7CB5BF9
:10082000DE4F88829982AA82BB82C554D140CB5BBD
:10083000DE4F88809980AA80BB80C554D1401814AF
:1008400019041A041B04FCF0E2C020E030E040E090
:100850005FE30E948C1387FF09C0CB5BDE4F1882D9
:1008600019821A821B82C554D140D1C032E0832E36
:10087000912CA12CB12CCB5BDE4F88829982AA826D
:10088000BB82C554D140C75BDE4F288139814A8184
:100890005B81C954D1402F5F3F4F4F4F5F4FC75BC4
:1008A000DE4F288339834A835B83C954D14080E07B
:1008B00090E0DC01812C912C540184159505A6054E
:1008C000B705ACF5F10140815181628173818114DA
:1008D0009104A104B10481F441155105610571052C
:1008E000F9F0812C912C5401B394841A950AA60A2C
:1008F000B70AB501A4010CC088248A94982CA82CAE
:10090000B12C841A950AA60AB70AB501A401F1010F
:100910004083518362837383812C912C540183948F
:100920000196A11DB11DF4E02F0E311CC6CFCF5B87
:10093000DE4F288139814A815B81C154D140121632
:10094000130614061506CCF5213031054105510575
:10095000D9F0223031054105510579F5D301C201A5
:100960000197A109B109880F991F880F991FE1EF1D
:10097000F0E0EC0FFD1FE80FF91F4081518162810B
:1009800073816F73772715C0D301C2010197A10945
:10099000B109880F991F880F991FE1EFF0E0EC0F64
:1009A000FD1FE80FF91F40815181628173816F77CC
:1009B00077274083518362837383CB5BDE4F48810B
:1009C00059816A817B81C554D1404230510561050E
:1009D0007105E9F4A701960160E070E080E89FE30B
:1009E0000E945E136B017C0189288A288B2879F08C
:1009F000A80160E070E080E89FE30E9405119B0180
:100A0000AC01C701B6010E945E136B017C0120E0BE
:100A100030E0A901C701B6010E9487138111CFC13F
:100A20007301620151E0C51AD108E108F108B30170
:100A3000A20120E030E080E090E0DC01415051096B
:100A400061097109CB5ADE4F88809980AA80BB80EA
:100A5000C555D140481559056A057B05D4F0C15AE2
:100A6000DE4FE881F981CF55D140E20FF31F11EF3E
:100A7000812E912C8C0E9D1EE80DF91D8080918099
:100A8000A280B38088299929AA29BB292450310939
:100A9000D5CF892B8A2B8B2B09F046C180E090E0C3
:100AA00041E050E060E070E00497C459DE4FE88117
:100AB000F981CC56D140E80FF91F21EFA22EB12CBD
:100AC000AC0EBD1EEA0DFB1D048115812681378108
:100AD000012B022B032B29F44F5F5F4F6F4F7F4F8A
:100AE000E3CF530142010FEF801A900AA00AB00A27
:100AF000C75ADE4FC880D980EA80FB80C955D140F3
:100B0000C80CD91CEA1CFB1CCC0CDD1CCC0CDD1C5D
:100B1000C601DD0CAA0B8C012A2F00581F4F2F4F46
:100B20006801E22EC259DE4F88819981AA81BB817A
:100B3000CE56D140880D991DAA1DBB1D8C01000FFA
:100B4000111F000F111FC659DE4F19830883CA56A3
:100B5000D1408401000F111F000F111FC959DE4F32
:100B600019830883C756D140212C312CD301C201EF
:100B7000840F951FA61FB71FC15ADE4F8883998324
:100B8000AA83BB83CF55D140C15ADE4F088119815A
:100B90002A813B81CF55D140081519052A053B050F
:100BA0000CF4BFC0C659DE4F08811981CA56D14026
:100BB000020D131DC35BDE4F19830883CD54D14052
:100BC00001EA10E00C0F1D1FC35BDE4F2881398145
:100BD000CD54D140020F131FF6015E2D0E94181351
:100BE0000E94A611D8016D937D938D939C931397CA
:100BF000CB59DE4FF880C556D140CB5BDE4FF88233
:100C0000C554D140C759DE4FF880C956D140CA5BA0
:100C1000DE4FF882C654D140C75BDE4F188219827E
:100C20001A821B82C954D14000E010E0412C512CA3
:100C30003201C75BDE4F488159816A817B81C9548B
:100C4000D140CF5ADE4F88819981AA81BB81C1559D
:100C5000D14084179507A607B7070CF443C0C35BC0
:100C6000DE4FE881F981CD54D140E00FF11F21EA38
:100C700030E02C0F3D1FE20FF31FCB5BDE4FA8814E
:100C8000B981C554D1402D913D914D915D91CB5B82
:100C9000DE4FB983A883C554D140608171818281C0
:100CA00093810E9495139B01AC01C301B2010E9484
:100CB0005F132B013C01C75BDE4F288139814A81DC
:100CC0005B81C954D1402F5F3F4F4F4F5F4FC75B90
:100CD000DE4F288339834A835B83C954D140045053
:100CE0001109A7CFC959DE4FE881F981C756D14014
:100CF000E20DF31DA1E0B0E0AC0FBD1FEA0FFB1F3A
:100D00004082518262827382BFEF8B1A9B0AAB0AC8
:100D1000BB0AE4E02E0E311CF4E0CF0ED11CE11C26
:100D200033CF2801390122CCCF5BDE4F28813981B6
:100D30004A815B81C154D14028513109410951098F
:100D4000CF5BDE4F288339834A835B83C154D14014
:100D5000C601880F991F880F991F2601370120E0CF
:100D600030E024503109F901E80FF91F61EF70E01C
:100D70006C0F7D1FE60FF71F4481558166817781D7
:100D8000452B462B472B09F09EC041E0441A5108E1
:100D900061087108CF5BDE4F488159816A817B8190
:100DA000C154D1404851510961097109CF5BDE4FEF
:100DB000488359836A837B83C154D140D2CFCF5BB0
:100DC000DE4F48815981C154D14051954195510917
:100DD000C701B6010E9405116B017C0120E030E0E3
:100DE00040E85BE40E948C1387FD57C020E030E0B0
:100DF00040E853E3C701B6010E9495130E946513B2
:100E00000E94A6114B015C0101EF10E00C0F1D1FA9
:100E1000C35BDE4F88819981CD54D140080F191FE3
:100E200020E030E040E85BE4C501B4010E94951386
:100E30009B01AC01C701B6010E945E130E946513BD
:100E4000D8016D937D938D939C931397BFEF4B1AAD
:100E50005B0A6B0A7B0ACF5BDE4F088119812A810E
:100E60003B81C154D140085E1F4F2F4F3F4FCF5B96
:100E7000DE4F088319832A833B83C154D14082010A
:100E8000000F111F000F111F21EF30E02C0F3D1F2D
:100E9000020F131FC501B4010EC001EF10E00C0FCB
:100EA0001D1FC35BDE4F88809980CD54D140080D53
:100EB000191DC701B6010E946513D8016D937D937A
:100EC0008D939C931397CF5BDE4F48815981C1541A
:100ED000D14060E070E080E89FE30E9405114B0183
:100EE0005C01C15ADE4F59824882CF55D140120170
:100EF000220C331C220C331C7301620100E010E051
:100F0000F7FC3CC0C801820D931DE1E0F0E0EC0F5E
:100F1000FD1FE80FF91FCF5BDE4FF983E883C15453
:100F2000D140E1EFF0E0EC0FFD1FE80FF91F608109
:100F30007181828193810E94A611A50194010E9472
:100F40009513CF5BDE4FA881B981C154D1406D9319
:100F50007D938D939C93139720E030E040E853E31A
:100F6000C501B4010E9495134B015C01B1E0CB1A9D
:100F7000D108E108F10804501109C2CF8E010F5ABF
:100F80001F4FC35BDE4F19830883CD54D140CF5B25
:100F9000DE4F188219821A821B82C154D140CF5A67
:100FA000DE4F19821882C155D140D301C201CF5BF7
:100FB000DE4F88809980AA80BB80C154D1408819B7
:100FC0009909AA09BB09B7FDB2C078E8872E71E07C
:100FD000972E70E0A72E6101CF5ADE4FE880F9808E
:100FE000C155D140CE18DF08CB59DE4FD982C88217
:100FF000C556D14000E010E0C75ADE4F1882198272
:101000001A821B82C955D140C12CD12C7601CB5AF2
:10101000DE4F688179818A819B81C555D1406C15ED
:101020007D058E059F050CF447C0CF5BDE4F8881A0
:101030009981AA81BB81C154D1408C159D05AE0513
:10104000BF05D4F1CB59DE4FA881B981C556D14037
:10105000A00FB11F21E030E02C0F3D1FA20FB31FE6
:10106000F4015A2D0E9418139B01AC016D917D91E2
:101070008D919C910E9495139B01AC01C75ADE4F44
:10108000688179818A819B81C955D1400E945F1313
:10109000C75ADE4F688379838A839B83C955D140C1
:1010A0003FEFC31AD30AE30AF30A44E0840E911C0B
:1010B000A11C0C5F1F4FABCFC35BDE4FA881B98172
:1010C000CD54D140C75ADE4F88809980AA80BB801A
:1010D000C955D1408D929D92AD92BD92C35BDE4FBA
:1010E000B983A883CD54D140CF5ADE4F08811981EE
:1010F000C155D1400C5F1F4FCF5ADE4F1983088373
:10110000C155D140CF5BDE4F288139814A815B8157
:10111000C154D1402F5F3F4F4F4F5F4FCF5BDE4FEA
:10112000288339834A835B83C154D1403ECFCD5954
:10113000DE4F08811981C356D1400330110574F484
:10114000013011050CF048C00115110509F041C22C
:1011500000E010E060E070E0CB0146C0CD59DE4F0A
:1011600008811981C356D1400330110509F031C2FD
:1011700051E5852E912C8C0E9D1E820C931CCF5B0D
:10118000DE4F99828882C154D14014012CEFC15A9C
:10119000DE4F08811981CF55D14020034001219FA6
:1011A000900C1124CD59DE4F99828882C356D140CC
:1011B000D301C2010197A109B1095C01AA0CBB1CB2
:1011C000AA0CBB1CC75ADE4FB982A882C955D140B0
:1011D000810173016201B0C07301620100E010E09F
:1011E00060E070E0CB0135C077FC18C0F101E00F82
:1011F000F11F41E5C42ED12CCC0EDD1EEC0DFD1DE2
:1012000020813181428153810E945F1321E0421A83
:1012100051086108710804501109E6CFCB5BDE4F1D
:1012200088809980AA80BB80C554D140DC01CB0165
:1012300081149104A104B10409F0B058C35ADE4FDF
:10124000E881F981CD55D14080839183A283B38316
:10125000C0C1F7FC18C0F101E00FF11F31E5832E8A
:10126000912C8C0E9D1EE80DF91D2081318142814B
:1012700053810E945F1321E0C21AD108E108F108EE
:1012800004501109E6CFCB5BDE4F88809980AA809D
:10129000BB80C554D1408B019C0189288A288B28AA
:1012A00009F03058C35ADE4FA881B981CD55D140DD
:1012B0000D931D932D933C9313979B01AC018E01CD
:1012C0000F5A1F4FF80161917191819191918F0196
:1012D0000E945E13C12CD12C7601C3944C145D0482
:1012E0006E047F0474F0D8012D913D914D915D9174
:1012F0008D010E945F13BFEFCB1ADB0AEB0AFB0ADA
:10130000EDCFCB5BDE4F88809980AA80BB80C5542F
:10131000D140DC01CB0181149104A104B10409F096
:10132000B058C35ADE4FE881F981CD55D14084834E
:101330009583A683B7834DC11C141D041E041F048E
:101340000CF06DC0F1E0CF1AD108E108F108CD59D9
:10135000DE4F88819981C356D140800F911FC75AB3
:10136000DE4F88809980C955D140880E991ECF5A8A
:10137000DE4F99828882C155D140D4018D909D90D5
:10138000AD90BC90CB5ADE4F88829982AA82BB82F4
:10139000C555D140F80180809180A280B380A5011D
:1013A0009401CB5ADE4F688179818A819B81C55532
:1013B000D1400E945F13C35BDE4F688379838A83C9
:1013C0009B83CD54D1409B01AC01CB5ADE4F688149
:1013D00079818A819B81C555D1400E945E13A50108
:1013E00094010E945F13D8016D937D938D939C931C
:1013F0001397C35BDE4F88809980AA80BB80CD5451
:10140000D140CF5ADE4FA881B981C155D1408D92CC
:101410009D92AD92BC921397045011098DCF730128
:101420006201E2E0CE16D104E104F1040CF463C0E1
:10143000B1E0CB1AD108E108F108CD59DE4F08819F
:101440001981C356D140020D131DC75ADE4F888043
:101450009980C955D140080D191DD8018D909D90D6
:10146000AD90BC90CB5ADE4F88829982AA82BB8213
:10147000C555D140F10180809180A280B380A50143
:101480009401CB5ADE4F688179818A819B81C55551
:10149000D1400E945F13CF5ADE4F688379838A83DD
:1014A0009B83C155D1409B01AC01CB5ADE4F688173
:1014B00079818A819B81C555D1400E945E13A50127
:1014C00094010E945F13D1016D937D938D939C9342
:1014D0001397CF5ADE4F88809980AA80BB80C15570
:1014E000D140D8018D929D92AD92BC921397B4E0F9
:1014F0002B1A310896CF00E010E060E070E0CB01DD
:1015000022E04216510461047104B4F0CF5BDE4F57
:10151000E881F981C154D140E00FF11F2081318170
:10152000428153810E945F13F1E04F1A5108610814
:10153000710804501109E4CFCB5BDE4F888099809D
:10154000AA80BB80C554D14065960CAD1DAD2EADB3
:101550003FAD659781149104A104B104E9F4C35A25
:10156000DE4FA881B981CD55D1400D931D932D93A8
:101570003C93139769960CAD1DAD2EAD3FAD6997A9
:10158000FD01048315832683378318966D937D931D
:101590008D939C931B971DC03058C35ADE4FE88132
:1015A000F981CD55D140008311832283338369961D
:1015B0000CAD1DAD2EAD3FAD69973058048315833A
:1015C00026833783DC01CB01B05880879187A287BF
:1015D000B387C75BDE4F88819981C954D14087703A
:0C15E0009927CF58DE4FE2E10C94721204
:1015EC00CF92DF92EF92FF92CF93DF9300D000D097
:1015FC00CDB7DEB76B017C01DC01CB01BF778B3D36
:10160C002FE0920729E4A2072FE3B20728F50097F1
:10161C0020E8A20729E3B207E0F40097A048B1053F
:10162C0048F420E030E040E853E0C701B6010E94E6
:10163C00951308C020E030E040E85BE7C701B60135
:10164C000E945F1369837A838B839C83C701B601E5
:10165C00A1C0C701B60198C0B701A601442777FD08
:10166C004395552766277727823D23E592072BE77D
:10167C00A20720E4B20768F5843E9B4CA641B04417
:10168C00A0F4452B49F02BED3FE049EC5FE3C7019B
:10169C00B6010E945F137BC02BED3FE049EC5FE38A
:1016AC00C701B6010E945E136BC0452B49F02BEDB0
:1016BC003FE049E450E4C701B6010E945F1363C0E8
:1016CC002BED3FE049E450E4C701B6010E945E13E4
:1016DC005AC0863D21E3920722EEA20720E4B2070E
:1016EC0068F5803E9D4EAF4AB044A0F4452B49F0BE
:1016FC0024EE3BEC46E950E4C701B6010E945F13AF
:10170C003FC024EE3BEC46E950E4C701B6010E9411
:10171C005E133DC0452B49F02BED3FE049EC50E406
:10172C00C701B6010E945F132FC02BED3FE049ECBF
:10173C0050E4C701B6010E945E1326C00097A04872
:10174C00BF4738F0A7019601C701B6010E945E138E
:10175C0021C0AE014F5F5F4FC701B6010E94B90CAB
:10176C009C012370332769817A818B819C81213084
:10177C00310531F02230310531F0232B41F404C016
:10178C000E944E0F07C090580E94D50E03C00E94B5
:10179C004E0F90580F900F900F900F90DF91CF91AC
:0A17AC00FF90EF90DF90CF900895BA
:1017B6002F923F924F925F926F927F928F929F925B
:1017C600AF92BF92CF92DF92EF92FF920F931F9349
:1017D600CF93DF93CDB7DEB760970FB6F894DEBF31
:1017E6000FBECDBF6983BC0180E090E00E94A411CA
:1017F6006D837E838F8398870E943A133981232FC6
:1018060030E03E872D87388B2F877D806E805F8006
:10181600488419861A861B861C8687C02F853889B8
:10182600B90180E090E00E94A4112AED3FE049E46E
:1018360050E40E94951320E030E044E353E40E9414
:1018460091136B017C010E94870D9B01AC016D8198
:101856007E818F8198850E949513962E872E382E2D
:10186600292EC701B6010E94F60A9B01AC016D81C3
:101876007E818F8198850E949513162F072FB82E8B
:10188600A92E272D362D452D542D692D782D832DE6
:10189600922D0E945E130E94651369837A838B835F
:1018A6009C83C980DA8029853A854B855C85612FC2
:1018B600702F8B2D9A2D0E945E130E9465132B01AB
:1018C6003C017B011C141D042CF4B60181E00E942E
:1018D600B5120AC0DD2044F469817A81719561955B
:1018E600710980E00E94B5121E141F042CF4B20187
:1018F60081E00E94C61209C0FF203CF466277727C4
:101906006419750980E00E94C6128F8598892D8515
:101916003E85820F931F988B8F8719870A87BB8610
:10192600AC86792C682C532C422C8F859889893665
:10193600914008F473CF0E94441360960FB6F89452
:10194600DEBF0FBECDBFDF91CF911F910F91FF90EC
:10195600EF90DF90CF90BF90AF909F908F907F9049
:0C1966006F905F904F903F902F9008957D
:101972004F925F926F927F92AF92BF92CF92DF921D
:10198200EF92FF920F931F93CF93DF93CDB7DEB702
:101992002C970FB6F894DEBF0FBECDBF2B013C01D2
:1019A2005A01DC01CB01BF778B3D2FE0920729EC76
:1019B200A2072DE4B20708F042C023E839EF42E261
:1019C2005FE3C301B2010E94951320E030E040E4DE
:1019D2005BE40E945F1320E030E040E45BE40E949D
:1019E2005E136B017C010E94651369877A878B877E
:1019F2009C872AED3FE049EC5FE3C701B6010E94F4
:101A020095139B01AC01C301B2010E945E132B012D
:101A12003C0123EA35E848E852E3C701B6010E94D7
:101A220095139B01AC01C301B2010E945E13F50143
:101A3200608371838283938389859A8552C00097DC
:101A4200F0E8AF07FFE7BF0770F0A3019201C301FF
:101A5200B2010E945E13F5016083718382839383D6
:101A620080E090E03EC0AC01BD0127E1769567952C
:101A7200579547952A95D1F7465951096109710938
:101A82006A017B0137E1CC0CDD1CEE1CFF1C3A9590
:101A9200D1F78C199D09AE09BF098D839E83AF834F
:101AA200B88700E010E021E030E0BE016F5F7F4FB9
:101AB200CE0105960E94D80049815A816B817C81B2
:101AC20077FE0AC07058F5014083518362837383A5
:101AD20091958195910905C0F501408351836283F7
:101AE20073832C960FB6F894DEBF0FBECDBFDF9185
:101AF200CF911F910F91FF90EF90DF90CF90BF9009
:0C1B0200AF907F906F905F904F9008951F
:101B0E00A4E0B0E0EDE8FDE00C9460128B019C01C6
:101B1E003F770B3D4FE0140749E424074FE33407AA
:101B2E00B8F40115110540E8240749E3340708F01D
:101B3E008DC020E030E040E85BE70E945F136983D0
:101B4E007A838B839C8360E070E080E89FE389C09A
:101B5E006B017C01CC24F7FCC394DD24EE24FF241E
:101B6E00023D43E514074BE7240740E4340730F504
:101B7E00043E4BEC140746E1240740E4340768F0BA
:101B8E002BED3FE049E450E4C114D10419F00E945A
:101B9E005F1361C00E945E135EC0C114D10439F0A0
:101BAE002BED3FE049EC5FE30E945F1358C09B01B1
:101BBE00AC016BED7FE089EC9FE325C0063D41E370
:101BCE00140742EE240740E4340700F5003E4DEEC4
:101BDE0014074FEA240740E4340768F02BED3FE08A
:101BEE0049EC50E4C114D10419F00E945F132EC0C9
:101BFE000E945E132BC0C114D10409F0905824EE3C
:101C0E003BEC46E950E40E945E1329C00115110514
:101C1E0040E824074FE7340728F09B01AC010E94EF
:101C2E005E131FC0AE014F5F5F4F0E94B90C9C0147
:101C3E002370332769817A818B819C812130310514
:101C4E0041F02230310539F0232B49F40E944E0F1A
:101C5E0008C0905804C00E944E0F905802C00E94B7
:0A1C6E00D50E2496E8E00C947C12D9
:101C78004F925F926F927F928F929F92AF92BF9294
:101C8800CF92DF92EF92FF92CF93DF93CDB7DEB77B
:101C980028970FB6F894DEBF0FBECDBF6B017C014D
:101CA800DC01CB0147E1B695A795979587954A95AD
:101CB800D1F799278F579109873191059CF597FDA1
:101CC80036C088248A94982C3FE7A32EB12C04C0F0
:101CD800B594A794979487948A95D2F7D501C401AF
:101CE8008C219D21AE21BF21892B8A2B8B2BD1F0F2
:101CF80020E030E040E85BE7C701B6010E945F13CF
:101D08006D837E838F839887F7FE04C0C80CD91C27
:101D1800EA1CFB1C80949094A094B094C820D9200D
:101D2800EA20FB205C2D4D2D3E2D2F2D21C020E0DB
:101D380030E040E85BE7C701B6010E945F136983A2
:101D48007A838B839C83F7FE0FC0D701C601880F67
:101D5800991FAA1FBB1F892B8A2B8B2B19F350E0C5
:101D680040E030E82FEB04C050E040E030E020E0F5
:101D7800652F742F832F922F28960FB6F894DEBF05
:101D88000FBECDBFDF91CF91FF90EF90DF90CF9046
:101D9800BF90AF909F908F907F906F905F904F9083
:021DA80008959C
:101DAA004F925F926F927F928F929F92AF92BF9261
:101DBA00CF92DF92EF92FF92CF93DF9300D000D0C1
:101DCA00CDB7DEB74B015C019B01AC010E949513B4
:101DDA006B017C019B01AC01C501B4010E94951302
:101DEA0069837A838B839C832CE33CE646E356E340
:101DFA00C701B6010E9495132FEC37E040E559E37D
:101E0A000E945E132B013C01A7019601C701B6018E
:101E1A000E94951329813A814B815C810E94951316
:101E2A009B01AC01C301B2010E9495132B013C0135
:101E3A0024E838E848E05CE3C701B6010E9495133C
:101E4A002BEA3AEA4AE25EE30E945E1329813A816A
:101E5A004B815C810E949513A50194010E945F1336
:101E6A009B01AC01C301B2010E945F130F900F9056
:101E7A000F900F90DF91CF91FF90EF90DF90CF906E
:101E8A00BF90AF909F908F907F906F905F904F9090
:021E9A000895A9
:101E9C004F925F926F927F928F929F92AF92BF926E
:101EAC00CF92DF92EF92FF92CF93DF9300D000D0CE
:101EBC00CDB7DEB79B01AC010E9495136B017C0181
:101ECC009B01AC010E9495132B013C0120E030E0FA
:101EDC0040E05FEBC701B6010E94951320E030E0B3
:101EEC0040E85FE30E945F134B015C012FE93AEA83
:101EFC004AE25DE3C301B2010E9495139B01AC0160
:101F0C00C501B4010E945F134B015C0127E13AE962
:101F1C004CEC57E3C701B6010E9495132FE334E054
:101F2C0046EB5AE30E945E1369837A838B839C830E
:101F3C00A3019201C701B6010E9495139B01AC014C
:101F4C0069817A818B819C810E9495139B01AC01E4
:101F5C00C501B4010E945F130F900F900F900F906A
:101F6C00DF91CF91FF90EF90DF90CF90BF90AF902B
:0E1F7C009F908F907F906F905F904F90089590
:101F8A0010C00E94731358F00E946C1340F029F499
:101F9A005F3F29F00C94811351110C947B130C941C
:101FAA0099130E94341268F39923B1F3552391F3DC
:101FBA00951B550BBB27AA2762177307840738F0AE
:101FCA009F5F5F4F220F331F441FAA1FA9F335D00B
:101FDA000E2E3AF0E0E832D091505040E695001CBF
:101FEA00CAF72BD0FE2F29D0660F771F881FBB1F79
:101FFA00261737074807AB07B0E809F0BB0B802D57
:10200A00BF01FF2793585F4F3AF09E3F510578F082
:10201A000C9481130C947B135F3FE4F3983ED4F342
:10202A00869577956795B795F7959F5FC9F7880F56
:10203A00911D9695879597F90895E1E0660F771FA8
:10204A00881FBB1F621773078407BA0720F0621B39
:0E205A00730B840BBA0BEE1F88F7E095089508
:102068000FC00E946C1338F00E94731320F0952360
:1020780011F00C9481130C94991311240C947B1374
:102088000E94341270F3959FC1F3950F50E0551FCD
:10209800629FF001729FBB27F00DB11D639FAA27B5
:1020A800F00DB11DAA1F649F6627B00DA11D661F04
:1020B800829F2227B00DA11D621F739FB00DA11D25
:1020C800621F839FA00D611D221F749F3327A00DDF
:1020D800611D231F849F600D211D822F762F6A2F7B
:1020E80011249F5750409AF0F1F088234AF0EE0FE0
:1020F800FF1FBB1F661F771F881F91505040A9F70D
:102108009E3F510580F00C9481130C947B135F3F24
:10211800E4F3983ED4F3869577956795B795F79548
:10212800E7959F5FC1F7FE2B880F911D96958795C0
:0421380097F9089576
:10213C0011C00E946C1338F00E94731320F039F414
:10214C009F3F19F426F40C9499130EF4E095E7FBD9
:10215C000C948113E92F0E94341258F3BA176207BA
:10216C0073078407950720F079F4A6F50C947A137D
:10217C000EF4E0950B2EBA2FA02D0B01B901900196
:10218C000C01CA01A0011124FF27591B99F0593FDA
:10219C0050F4503E68F11A16F040A22F232F342F22
:1021AC004427585FF3CF469537952795A795F04070
:1021BC005395C9F77EF41F16BA0B620B730B840B85
:1021CC00BAF09150A1F0FF0FBB1F661F771F881F3D
:1021DC00C2F70EC0BA0F621F731F841F48F4879595
:1021EC0077956795B795F7959E3F08F0B0CF939587
:0E21FC00880F08F09927EE0F979587950895A4
:10220A000F931F93CF93DF93EA0140385105D4F01F
:10221A0020E030E040E05FE70E9495139E012F57CF
:10222A003109203831056CF120E030E040E05FE709
:10223A000E949513CE5FD109C038D1051CF1CFE7B2
:10224A00D0E020C042385F4FECF420E030E040E8B4
:10225A005CE00E9495139E012A593F4F22384FEFA6
:10226A0034077CF420E030E040E85CE00E949513FB
:10227A00C453DF4FC2382FEFD20724F4C2E8DFEF8E
:10228A0001C0E9019E0121583F4F8901330F220BFA
:10229A00330BA9019801E7E1220F331F441F551F91
:1022AA00EA95D1F70E949513DF91CF911F910F9173
:0222BA00089585
:1022BC00EF92FF920F93FA01002361F0DC013C9145
:1022CC0041E050E002C0440F551F6A95E2F7432BE2
:1022DC004C930CC0DC013C9141E050E002C0440F37
:1022EC00551F6A95E2F7409543234C9382E390E0A7
:1022FC000197F1F740E050E01AC0308181E090E0A6
:10230C00022E02C0880F991F0A94E2F7932F982B84
:10231C0090836CE271E0DB011197F1F7908180956D
:10232C0089238083CB010197F1F74F5F5F4F4E15E7
:0C233C005F0518F30F91FF90EF900895DB
:10234800E89409C097FB3EF4909580957095619547
:102358007F4F8F4F9F4F9923A9F0F92F96E9BB27FD
:102368009395F695879577956795B795F111F8CF79
:10237800FAF4BB0F11F460FF1BC06F5F7F4F8F4FE4
:102388009F4F16C0882311F096E911C0772321F0DA
:102398009EE8872F762F05C0662371F096E8862F72
:1023A80070E060E02AF09A95660F771F881FDAF7C9
:0A23B800880F9695879597F9089510
:1023C2000E943C1288F09F5798F0B92F9927B75175
:1023D200B0F0E1F0660F771F881F991F1AF0BA95C7
:1023E200C9F714C0B13091F00E947A13B1E0089598
:1023F2000C947A13672F782F8827B85F39F0B93F8A
:10240200CCF3869577956795B395D9F73EF4909579
:0E2412008095709561957F4F8F4F9F4F089575
:10242000990F0008550FAA0BE0E8FEEF16161706E5
:10243000E807F907C0F012161306E407F50798F04D
:10244000621B730B840B950B39F40A2661F0232B66
:10245000242B252B21F408950A2609F4A140A695E2
:082460008FEF811D811D08951D
:1024680057FD9058440F551F59F05F3F71F047953D
:10247800880F97FB991F61F09F3F79F08795089522
:10248800121613061406551FF2CF4695F1DF08C041
:10249800161617061806991FF1CF8695710561055E
:0424A80008940895F7
:1024AC002F923F924F925F926F927F928F929F9258
:1024BC00AF92BF92CF92DF92EF92FF920F931F9346
:1024CC00CF93DF93CDB7DEB7CA1BDB0B0FB6F894F7
:0824DC00DEBF0FBECDBF099465
:1024E4002A88398848885F846E847D848C849B84A0
:1024F400AA84B984C884DF80EE80FD800C811B81AE
:10250400AA81B981CE0FD11D0FB6F894DEBF0FBEDC
:06251400CDBFED010895AA
:10251A0097FB072E16F4009407D077FD09D00E9486
:10252A00A11207FC05D03EF4909581959F4F08951E
:08253A00709561957F4F089533
:10254200AA1BBB1B51E107C0AA1FBB1FA617B707D7
:1025520010F0A61BB70B881F991F5A95A9F78095F3
:082562009095BC01CD01089524
:10256A00EF92FF920F937B01082F23E045E250E0A0
:10257A0064E085E290E00E945E110F91FF90EF9077
:02258A000895B2
:10258C00EF92FF920F937B01082F23E048E250E07B
:10259C0064E088E290E00E945E110F91FF90EF9052
:0225AC00089590
:1025AE000E94F9126AE080E991E00E94DB0B2FE7AE
:1025BE008AE196E0215080409040E1F700C0000093
:0225CE00F1CF4B
:1025D000092E0394000C11F4882352F0BB0F40F431
:1025E000BF2B11F460FF04C06F5F7F4F8F4F9F4F71
:0225F00008954C
:1025F20084B1886384B987B1896387B985B1806200
:1026020085B988B1806288B988B18E7F88B908950A
:10261200A29FB001B39FC001A39F700D811D112421
:0E262200911DB29F700D811D1124911D089510
:1026300057FD05C0659175918591959108956191BA
:082640007191819191910895BF
:102648000E940913A59F900DB49F900DA49F800D23
:06265800911D11240895FC
:10265E00EC010E94A1130E94A013CE010E94A213AE
:06266E00CE010E949E1344
:1026740088B18E7F88B987EA91E60197F1F700C0A7
:0426840000000895B5
:1026880088B1816088B987EA91E60197F1F700C0BF
:0426980000000895A1
:10269C00B7FF0C9424130E942413821B930B0895F0
:1026AC0057FD03C0659175910895619171910895DD
:0E26BC005058BB27AA270E949E100C94E812CB
:0E26CA000E94E1116894B1110C947B130895E5
:0E26D80000240A94161617061806090608951F
:0E26E60000240A941216130614060506089521
:0E26F400E894BB2766277727CB0197F9089556
:0C27020097F99F6780E870E060E00895A0
:0A270E000E94101208F481E0089503
:0A2718000E94101208F48FEF0895DC
:082722000E94C50F0C94E8129F
:08272A000E9434100C94E81227
:062732009FEF80EC08950A
:042738000C940000FD
:04273C000E943E00B9
:022740000895FA
:022742000895F8
:022744000895F6
:00000001FF
