:100000000C9473000C94A6010C94A6010C94A60108
:100010000C94A6010C94A6010C94A6010C94A601C4
:100020000C94A6010C94A6010C94A6010C94A601B4
:100030000C94A6010C94A6010C94A6010C94A601A4
:100040000C94A6010C94A6010C94A6010C94A60194
:100050000C94A6010C94A6010C94A6010C94A60184
:100060000C9461010C94A601FE00B700BB000001D6
:10007000BF00C900D300DD00E7000001F10000016E
:100080000001000100010001000100010001000168
:100090000001000100010001000100010001000158
:1000A0000001000100010001000100010001000148
:1000B0000001000100010001000100010001000138
:1000C0000001000100010001000100010001000128
:1000D0000001000100010001000100010001FB001E
:1000E00001000101800011241FBECFEFD8E0DEBF68
:1000F000CDBFE0EEF0E040E017C0B591A59135919D
:100100002591059107FD0CC095918591EF01F92F7F
:10011000E82F05900D92A217B307D9F7FE0104C08E
:100120001D92A217B307E1F7E53EF40731F70E94ED
:0A0130009D000C949501F894FFCF98
:10013A0078948AB180688AB90E9488010E9419015C
:10014A008AB18C678AB9E09100018E2F90E0FC0198
:10015A00E55BF109EC33F10508F04DC0EC5CFF4FAB
:10016A000C94A0018BB184608BB9EDCF8BB18B7FDE
:10017A008BB9E9CF8BB188608BB98BB18F7E8BB984
:10018A008BB18F7D8BB9DFCF8BB188608BB98BB187
:10019A0080618BB98BB18F7D8BB9D5CF8BB18860DC
:1001AA008BB98BB180618BB98BB18F7D8BB9CBCF7A
:1001BA008BB1877F8BB98BB180618BB98BB18F7D06
:1001CA008BB9C1CF8BB1877F8BB98BB180618BB96A
:1001DA008BB180628BB9B7CF8BB1877F8BB98BB16B
:1001EA008F7E8BB98BB180628BB9ADCF8AEF87BD19
:1001FA00AACF17BCA8CF80910001843B08F0A3CFF7
:10020A002091000130E0A8E0B2E00E94790124EBDD
:10021A0030E040E050E00E943F012C593F4F3093BC
:08022A008900209388008FCFAA
:100232008AB180648AB983E884BD83E085BD17BC36
:1002420084B1826084B9A0E8B0E082E08C93E1E8F6
:10025200F0E088E180838C9180688C938081836058
:10026200808387E893E190938700809386008AE5F4
:0C02720090E0909389008093880008952C
:10027E00A1E21A2EAA1BBB1BFD010DC0AA1FBB1F9C
:10028E00EE1FFF1FA217B307E407F50720F0A21B0E
:10029E00B30BE40BF50B661F771F881F991F1A947B
:1002AE0069F760957095809590959B01AC01BD01A5
:0402BE00CF010895CF
:1002C2001F920F920FB60F9211248F938091B90053
:1002D200887F803821F48091BB008093000185ECF7
:1002E2008093BC008F910F900FBE0F901F901895B6
:1002F200A29FB001B39FC001A39F700D811D112465
:0E030200911DB29F700D811D1124911D089553
:1003100087B18F7C87B988B1806388B980EA809380
:0A032000BA0085E48093BC00089544
:10032A00EC010E94AB010E94AA01CE010E94AC011D
:06033A00CE010E94A801A3
:0C034000EE0FFF1F0590F491E02D0994D2
:04034C000C9400000D
:040350000E949B006C
:0203540008950A
:02035600089508
:02035800089506
:00000001FF
