:100000000C9437000C94A9000C94A9000C94A9003E
:100010000C94A9000C94A9000C94A9000C94A900BC
:100020000C94A9000C94A9000C94A9000C94A900AC
:100030000C94A9000C94A9000C94A9000C94A9009C
:100040000C94A9000C94A9000C94A9000C94A9008C
:100050000C94A9000C94A9000C94A9000C94A9007C
:100060000C9461000C94A90001000101800011248E
:100070001FBECFEFD8E0DEBFCDBFE8E6F0E040E046
:1000800017C0B591A59135912591059107FD0CC03B
:1000900095918591EF01F92FE82F05900D92A21708
:1000A000B307D9F7FE0104C01D92A217B307E1F709
:1000B000ED36F40731F70E9481000C949500F89416
:0200C000FFCF70
:1000C2001F920F920FB60F9211248F938091B90055
:1000D200887F803819F0883A31F009C08091BB00DE
:1000E2008093000104C085E88093BC0003C085ECC6
:1000F2008093BC008F910F900FBE0F901F901895A8
:1001020078948AB180688AB90E94A0008091000127
:10011200813F21F48BB180688BB9F8CF803FB1F772
:080122008BB18F778BB9F2CF8E
:10012A00EC010E94AE000E94AD00CE010E94AF0019
:06013A00CE010E94AB00A3
:1001400087B187B980EA8093BA0085E48093BC00C8
:02015000089510
:040152000C94000009
:040156000E945F00A4
:02015A00089506
:02015C00089504
:02015E00089502
:00000001FF
