:100000000C9434000C94F4000C94F4000C94F40060
:100010000C94F4000C94F4000C94F4000C94F40090
:100020000C94F4000C94F4000C94F4000C94F40080
:100030000C94F4000C94F4000C94F4000C94F40070
:100040000C94F4000C94F4000C94F4000C94F40060
:100050000C94F4000C94F4000C94F4000C94F40050
:100060000C94F4000C94F40011241FBECFEFD8E0E0
:10007000DEBFCDBFE8E6F0E040E017C0B591A59146
:1000800035912591059107FD0CC095918591EF0162
:10009000F92FE82F05900D92A217B307D9F7FE01AB
:1000A00004C01D92A217B307E1F7E836F40731F751
:0C00B0000E945E000C94B600F894FFCF94
:1000BC000E94AA000E9480008091C0008823E4F76F
:1000CC000E94D100C82F0E94C100C63411F40E94B6
:1000DC00E600CC3411F40E94D800C23511F40E9411
:1000EC00DF00C03511F40E949600C03329F70E943E
:0400FC00ED00E2CF62
:1001000084B1826084B982E8809380008AE1809320
:1001100081008FE39CE9909387008093860080EDB7
:0C01200097E09093890080938800089578
:10012C00E8E8F0E088EB9BE0918380832FEF81EE91
:10013C0094E0215080409040E1F700C0000080ED39
:08014C0097E091838083089580
:100154001092C50087E68093C40088E18093C100B3
:0801640086E08093C2000895BB
:10016C00EC010E94F9000E94F800CE010E94FA00F6
:06017C00CE010E94F60016
:100182000E94CA008DE00E94CA008AE00E94CA0052
:020192000895CE
:0E0194009091C00095FFFCCF8093C6000895A7
:0E01A2008091C0008823E4F78091C600089584
:0E01B0008BB180648BB98BB18F778BB90895BA
:0E01BE008BB180688BB98BB18F7B8BB90895A4
:0E01CC008BB180688BB98BB180648BB90895BC
:0E01DA008BB18F778BB98BB18F7B8BB908956A
:0401E8000C94000073
:0401EC000E945C0011
:0201F000089570
:0201F20008956E
:0201F40008956C
:00000001FF
