:100000000C9437000C9464020C9464020C94640207
:100010000C9464020C9464020C9464020C946402C8
:100020000C9464020C9464020C9464020C946402B8
:100030000C9464020C9464020C9464020C946402A8
:100040000C9464020C9464020C9464020C94640298
:100050000C9464020C9464020C9464020C94640288
:100060000C9464020C9464020100010480001124C9
:100070001FBECFEFD8E0DEBFCDBFE8E6F0E040E046
:1000800017C0B591A59135912591059107FD0CC03B
:1000900095918591EF01F92FE82F05900D92A21708
:1000A000B307D9F7FE0104C01D92A217B307E1F709
:1000B000ED36F40731F70E9490010C940002F89499
:0200C000FFCF70
:1000C20010C00E94450258F00E943E0240F029F4FE
:1000D2005F3F29F00C94530251110C944D020C9481
:1000E20061020E94B40168F39923B1F3552391F39D
:1000F200951B550BBB27AA2762177307840738F095
:100102009F5F5F4F220F331F441FAA1FA9F335D0F1
:100112000E2E3AF0E0E832D091505040E695001CA5
:10012200CAF72BD0FE2F29D0660F771F881FBB1F5F
:10013200261737074807AB07B0E809F0BB0B802D3D
:10014200BF01FF2793585F4F3AF09E3F510578F069
:100152000C9453020C944D025F3FE4F3983ED4F3A7
:10016200869577956795B795F7959F5FC9F7880F3D
:10017200911D9695879597F90895E1E0660F771F8F
:10018200881FBB1F621773078407BA0720F0621B20
:0E019200730B840BBA0BEE1F88F7E0950895EF
:1001A0000FC00E943E0238F00E94450220F09523C5
:1001B00011F00C9453020C94610211240C944D0222
:1001C0000E94B40170F3959FC1F3950F50E0551F45
:1001D000629FF001729FBB27F00DB11D639FAA279C
:1001E000F00DB11DAA1F649F6627B00DA11D661FEB
:1001F000829F2227B00DA11D621F739FB00DA11D0C
:10020000621F839FA00D611D221F749F3327A00DC5
:10021000611D231F849F600D211D822F762F6A2F61
:1002200011249F5750409AF0F1F088234AF0EE0FC6
:10023000FF1FBB1F661F771F881F91505040A9F7F3
:100240009E3F510580F00C9453020C944D025F3F89
:10025000E4F3983ED4F3869577956795B795F7952F
:10026000E7959F5FC1F7FE2B880F911D96958795A7
:0402700097F908955D
:100274000E94BC0188F09F5798F0B92F9927B75175
:10028400B0F0E1F0660F771F881F991F1AF0BA9536
:10029400C9F714C0B13091F00E944C02B1E0089546
:1002A4000C944C02672F782F8827B85F39F0B93F38
:1002B400CCF3869577956795B395D9F73EF49095E9
:0E02C4008095709561957F4F8F4F9F4F0895E5
:1002D20084B1846084B984B5826884BD85B58A613D
:1002E20085BD8FE39CE9909387008093860020E090
:1002F20030E048EC52E4609100017091010180917C
:100302000201909103010E94590220E030E04FE780
:0E03120053E40E945D020E943A0167BD089507
:100320000E94F4010E9469010E94E7018091C000CF
:100330008823D4F70E941B02C82F0E940B02C634E8
:1003400011F40E943002CC3411F40E942202C23512
:1003500011F40E942902C03511F40E94E701C03354
:0803600019F70E943702E0CFFB
:1003680057FD9058440F551F59F05F3F71F047955E
:10037800880F97FB991F61F09F3F79F08795089543
:10038800121613061406551FF2CF4695F1DF08C062
:10039800161617061806991FF1CF8695710561057F
:0403A8000894089518
:1003AC00092E0394000C11F4882352F0BB0F40F477
:1003BC00BF2B11F460FF04C06F5F7F4F8F4F9F4FB7
:0203CC00089592
:1003CE0020E008C0E8E8F0E08081918144969183B6
:0A03DE0080832F5F2436B0F30895EA
:1003E8001092C50087E68093C40088E18093C1001D
:0803F80086E08093C200089525
:10040000EC010E9469020E946802CE010E946A0209
:06041000CE010E9466020D
:100416000E9414028DE00E9414028AE00E941402D7
:02042600089537
:0E0428009091C00095FFFCCF8093C600089510
:0E0436008091C0008823E4F78091C6000895ED
:0E0444008BB180648BB98BB18F778BB9089523
:0E0452008BB180688BB98BB18F7B8BB908950D
:0E0460008BB180688BB98BB180648BB9089525
:0E046E008BB18F778BB98BB18F7B8BB90895D3
:0E047C0000240A94161617061806090608959D
:0E048A0000240A94121613061406050608959F
:0E049800E894BB2766277727CB0197F90895D4
:0C04A60097F99F6780E870E060E008951F
:0804B2000E9461000C94D601C8
:0804BA000E94D0000C94D60151
:0604C2009FEF80EC08959D
:0404C8000C94000090
:0404CC000E945F002B
:0204D00008958D
:0204D20008958B
:0204D400089589
:00000001FF
