:100000000C944B000C9420140C9420140C94201489
:100010000C9420140C9420140C9420140C94201490
:100020000C9420140C9420140C9420140C94201480
:100030000C9420140C940C110C9420140C94201487
:100040000C9420140C9420140C945A110C94201429
:100050000C9420140C9420140C9420140C94201450
:100060000C9420140C942014E911FD11EB11ED11E6
:10007000EF11F111F311F511F711F9112C093E09E6
:100080002E09300932093409360938093A093C0980
:100090000100020C800011241FBECFEFD8E0DEBFAC
:1000A000CDBFE0E9F0E040E017C0B591A5913591F2
:1000B0002591059107FD0CC095918591EF01F92FD0
:1000C000E82F05900D92A217B307D9F7FE0104C0DF
:1000D0001D92A217B307E1F7E539F40731F70E9443
:0A00E00073060C949713F894FFCFF9
:1000EA0074656D700D0A002575000D0A0056616C65
:1000FA006F7220696E76C3A16C69646F2E20496E97
:10010A0074656E7465206E756576616D656E74656D
:10011A002E0D0A000D0A2D2D2D2043414D42494F27
:10012A002044452052414E474F202D2D2D0D0A00C7
:10013A00496E67726573652074433220286DC3ADBA
:10014A006E696D6F2C20656E7465726F20C2B04344
:10015A0020302E2E313530293A2000496E677265DB
:10016A0073652074433320286DC3A178696D6F2CA1
:10017A0020656E7465726F20C2B04320302E2E3116
:10018A003530293A20007443332064656265207350
:10019A0065722065737472696374616D656E7465E6
:1001AA00206D61796F7220717565207443322E203B
:1001BA004F706572616369C3B36E2063616E636574
:1001CA006C6164612E0D0A0052616E676F20616373
:1001DA007475616C697A61646F2E0D0A0053692027
:1001EA00717569657265207072656E6465722065E5
:1001FA006C2073697374656D6120657363726962DB
:10020A006120456E63656E6465720D0A00456E6312
:06021A00656E64657200D0
:1002200068076C094C836A9074A07AC00080688863
:0602300000846C820081D5
:07023600286E756C6C2900B5
:06023D00286E696C290027
:10024400A3EAB0E0E8E2F1E00C941D124C0159017C
:10025400C756DF4F488359836A83C959D040212C3C
:10026400312C6E012BE8C20ED11C85E2782E2601BA
:1002740030E8632ECE018D569F4FC456DF4F9983CD
:100284008883CC59D0409C0140E8CF55DF4F288368
:1002940039834A83C15AD040C756DF4F4881C95970
:1002A400D040C656DF4F5881CA59D040C556DF4F9B
:1002B4006881CB59D040FA01849167FD80818823FD
:1002C40009F4C9C3CF57DF4F19821882C158D040EF
:1002D4008FEF9FEFCD57DF4F99838883C358D0406A
:1002E400CB57DF4F19821882C558D040A1E0B0E047
:1002F400AC0FBD1FC957DF4FB983A883C758D0407F
:10030400E0E8F0E0C757DF4FF983E883C958D040ED
:10031400CA01A62FE12CF12CFC012491A7FD208118
:1003240021111BC0E114F10401F19701C4010E94E1
:100334007D10C756DF4F88819981AA81C959D04061
:100344008E0D9F1DA11DF7FCAA95C756DF4F88830C
:100354009983AA83C959D04008C00196A11D2532AA
:1003640009F3FFEFEF1AFF0AD7CFC756DF4F888193
:100374009981AA81C959D040FC012491A7FD20810B
:10038400253209F056C39C014A2F2F5F3F4F4F4F30
:10039400C256DF4F288339834A83CE59D040C7568B
:1003A400DF4F288339834A83C959D040C756DF4F6A
:1003B40088819981AA81C959D040FC012491A7FD63
:1003C40020812B3241F4CF57DF4F28813981C15826
:1003D400D04024600BC02C32CCF02D3259F5CF57CD
:1003E400DF4F28813981C158D0402160CF57DF4F7A
:1003F40039832883C158D0400196A11DC756DF4FC9
:1004040088839983AA83C959D040D0CF203241F43C
:10041400CF57DF4F28813981C158D0402860E6CFBB
:10042400233291F4CF57DF4F28813981C158D0400E
:100434002061DCCF203341F4CF57DF4F288139814D
:10044400C158D0402260D2CF2A3299F50196A11D1D
:10045400C756DF4F88839983AA83C959D040D501F1
:10046400ED91FC911197CF0102968D939C9380811D
:100474009181CB57DF4F99838883C558D04097FF2C
:100484003EC0CF57DF4F28813981C158D040B1E0F9
:100494002B27CF57DF4F39832883C158D0409195FC
:1004A40081959109CB57DF4F99838883C558D040F4
:1004B40026C0BC018A2F0E94F80FCB57DF4F9983C7
:1004C4008883C558D040C756DF4F288139814A8177
:1004D400C959D040F901849147FD8081082E000C50
:1004E400990BC0970A9758F42F5F3F4F4F4FC75649
:1004F400DF4F288339834A83C959D040E4CFCF578B
:10050400DF4F88819981C158D04080FF07C08D7F1B
:10051400CF57DF4F99838883C158D040C756DF4FE8
:1005240088819981AA81C959D040FC012491A7FDF1
:1005340020812E3209F058C0CD57DF4F198218821E
:10054400C358D0409C014A2F2F5F3F4F4F4FC7568F
:10055400DF4F288339834A83C959D040F901549124
:1005640047FD50815A32D1F40296A11DC756DF4F80
:1005740088839983AA83C959D040D501ED91FC9110
:100584001197CF0102968D939C9380819181CD57D1
:10059400DF4F99838883C358D04026C0842FB90184
:1005A4000E94F80FCD57DF4F99838883C358D040FA
:1005B400C756DF4F288139814A81C959D040F90192
:1005C400849147FD8081082E000C990BC0970A97EF
:1005D40058F42F5F3F4F4F4FC756DF4F288339835F
:1005E4004A83C959D040E4CFCE0187569F4F0E9419
:1005F400600F182FC756DF4F2881C959D040C656FF
:10060400DF4F8881CA59D040C556DF4F9881CB59F6
:10061400D040E22FF82F849197FD8081082E000CA2
:10062400990B0E94BE138936910509F45AC0B4F49B
:100634008336910509F466C144F48532910509F4C1
:10064400A1C18136910529F1B3C18436910509F41C
:1006540048C0883691050CF42DC1AAC18037910594
:1006640009F4CBC04CF48E36910509F419C18F36C8
:10067400910509F47CC09CC18537910509F454C0E7
:100684008837910509F496C08337910509F090C124
:1006940058C1612F70E0A501C6010E94C011892BC9
:1006A40009F4B7C1C756DF4F88819981AA81C95916
:1006B400D0409C014A2F2F5F3F4F4F4FC756DF4F0B
:1006C400288339834A83C959D040FC012491A7FD6A
:1006D4002081A601BE016F577F4FC4010E941D14E3
:1006E40095C1612F70E0950141E050E0C6010E9480
:1006F4005208892B09F48DC1C756DF4F888199812F
:10070400AA81C959D0400196A11DC756DF4F8883DD
:100714009983AA83C959D040A601BE016F577F4F60
:10072400C4010E94930772C1612F70E0950140E0FB
:1007340050E0C6010E945208892B09F46AC1C756C9
:10074400DF4F88819981AA81C959D0400196A11DA2
:10075400C756DF4F88839983AA83C959D040A6011D
:10076400BE016F577F4FC4010E94BE0D4FC1612F60
:1007740070E0950140E050E0C6010E945208892BC8
:1007840009F447C1C756DF4F88819981AA81C959A5
:10079400D0400196A11DC756DF4F88839983AA8351
:1007A400C959D040A601BE016F577F4FC4010E94B2
:1007B400210C2CC1612F70E0950140E050E0C6018E
:1007C4000E945208892B09F424C1C756DF4F88813F
:1007D4009981AA81C959D0409C014A2F2F5F3F4F6C
:1007E4004F4FC756DF4F288339834A83C959D040B6
:1007F400FC012491A7FD20814BC0950140E050E00D
:1008040060EF70E0C6010E945208892B09F401C10F
:10081400C756DF4F88819981AA81C959D040019672
:10082400A11DC756DF4F88839983AA83C959D04035
:1008340086E02DE332E040E0F901DE01AD56BF4F22
:10084400742F0E945013D6012C9111963C9111974C
:1008540012964C91129713965C91139714966C917F
:10086400149715967C91159716968C911697179652
:100874009C91A0E00E94751351F400E010E0CF5564
:10088400DF4F288139814A81C15AD040B9C028E755
:10089400A601BE016F577F4FC4010E943305B6C045
:1008A400612F70E09501A1014E0D5F1DC6010E94EC
:1008B4004B0BAFC0612F70E0A501C6010E94C011AF
:1008C400892B09F4A6C0C756DF4F88819981AA8174
:1008D400C959D0409C014A2F2F5F3F4F4F4FC756F5
:1008E400DF4F288339834A83C959D040FC012491BE
:1008F400A7FD2081A601BE016F577F4FC4010E944E
:100904001D1484C0103809F084C0C756DF4F888195
:100914009981AA81C959D0400196A11DC756DF4FBC
:1009240088839983AA83C959D040D501ED91FC915C
:100934001197CF0102968D939C938081F601808359
:100944005BC0103809F065C0C756DF4F88819981B4
:10095400AA81C959D0400196A11DC756DF4F88838B
:100964009983AA83C959D040D501ED91FC9111977F
:10097400CF0103968D939C9320813181428100E0C5
:1009840010E03EC0103809F044C0C756DF4F8881DC
:100994009981AA81C959D0400196A11DC756DF4F3C
:1009A40088839983AA83C959D040F601708224C0F0
:1009B400D6017C92C256DF4F288139814A81CE59B3
:1009C400D040C756DF4F288339834A83C959D04062
:1009D400CF57DF4F19821882C158D040CB57DF4F11
:1009E40019821882C558D0408FEF9FEFCD57DF4F43
:1009F40099838883C358D04001E010E0462D9201CA
:100A0400BE016F577F4FC4010E94590D8E0D9F1D6B
:100A140011C0C756DF4F88819981AA81C959D04036
:100A24000196A11DC756DF4F88839983AA83C959AC
:100A3400D040C7017101E80EF91EE214F3044CF42E
:100A44008FE490E090930102809300028FEF9FEF78
:100A540003C0170121CCC101CD55DF4FE2E10C9455
:020A6400391245
:100A6600A4E1B0E0E9E3F5E00C941D1298878F83CA
:100A76007A8369835C8B4B8B122FDB011296ED9187
:100A8600FC91139714962D913C9115973E832D83D7
:100A9600ED90FC90119716962D903C901797F7FDC8
:100AA60003C0E894E1F802C0E1E0F0E0C70180711C
:100AB60099279A878987E4FE1FC0AB89BC892C9148
:100AC60011963C91119712964C91129713965C9140
:100AD600139714966C91149715967C911597169604
:100AE6008C91169717969C91A0E00E94751321F0A1
:100AF6008D819E81029702C08D819E81970128700B
:100B060033273C872B87E3FC0197AB89BC894C9044
:100B160011965C90119712966C90129713967C9092
:100B2600139714968C90149715969C901597169675
:100B3600AC9016971796BC90A981BA811896CD905D
:100B4600DC901997B1E0CB1AD108D101AC0DBD1DCF
:100B56001C929C838B839F01281B390B3E872D8714
:100B6600C70182709927988B8F87812F012E000CE1
:100B7600990BDC01A154B109BA8BA98B32E0C316DB
:100B8600D10434F489859A85892B09F04CC073C049
:100B96009201A301B401C501A0E00E94751381F181
:100BA600B1E0CB1AD108C2018F7099278A3091051E
:100BB60014F4C09602C0895A9F4FE989FA897A9738
:100BC60048F49C012062215631092A31310510F47E
:100BD6000E94B513F101EC0DFD1D80832B813C8134
:100BE600215031093C832B839201A301B401C50135
:100BF60004E00E94011229013A014B015C01BECFBB
:100C06008D859E85AB81BC818A0F9B1F18161906A0
:100C16003CF21A161B060CF0B5CFEF85F889EF2BC0
:100C260009F0BECFAFCFAB89BC892C9111963C9110
:100C3600119712964C91129713965C9113971496EE
:100C46006C91149715967C91159716968C9116971C
:100C560017969C91A0E00E94751369F0F101EC0DC6
:100C6600FD1D31971083B2E0CB1AD108F101EC0DCE
:100C7600FD1D80E38083EB85FC85EF2B41F0F1E0E1
:100C8600CF1AD108F101EC0DFD1D80E28083A98108
:100C9600BA8118962D913C911997215031092C193A
:100CA6003D09C20CD31CA60160E80D811E818F810F
:100CB60098850E94550A9C01EF81F8858081918173
:100CC60090FF09C0A981BA8112968D919C911397C4
:100CD600821793070CF4C9016496E2E10C94391269
:100CE600CF93DF93CDB7DEB7C454D1090FB6F894CE
:100CF600DEBF0FBECDBF87E690E00E948113E1EC18
:100D0600F0E08081806880830E94131387E690E07C
:100D16000E9481130E94A2130E94F01278940E94EE
:100D2600C6130E940E1489E190E09A8389838EE1AE
:100D360090E09C838B8317BC67EE71E080E00E9495
:100D46009D121D8214C060E4CE0105960E94E0103B
:100D560027E132E040E08E2DB6010E949F11892BDB
:100D660031F46B817C8189819A810E948B0C6E01A2
:100D760085E0C80ED11C80E8E82E27E132E040E08D
:100D86008E2DB6010E949F11892BE9F680910B02E8
:100D9600882369F3109202020E948612BC0180E049
:100DA60090E00E94401020E030E04AEF53E40E94B9
:100DB600161420E030EC4FE754E40E9412146B0145
:100DC6007C010E94B11070930702609306021AE03C
:100DD60030C0612F70E080910602909107020E9458
:100DE600C912462F372F262FADECBCEC0E943313C9
:100DF6009695879596958795969587959C01220F4A
:100E0600331F880F991F880F991F880F991F820F0C
:100E1600931F481B842F0E94E011682F82E092E006
:100E26000E945D138DEC189F112D112416951695B1
:100E360016951111CECF64EF70E080E00E949D12EE
:100E460062E072E080E80E949D1264EF70E080E04C
:100E56000E949D1210920B0269817A8180E090E0D7
:100E66000E9440109B01AC01C701B6010E94FC1311
:100E7600181634F081E0809308020E940E1412C006
:100E86006B817C8180E090E00E9440109B01AC0168
:100E9600C701B6010E940114882324F010920802AB
:100EA6000E940A1480910802882311F084E601C08A
:100EB60080E087BD0E945412813369F4BE016D5FE4
:100EC6007F4FCE0101960E94100F6B817C81898134
:100ED6009A810E948B0C6B817C8180E090E00E945D
:100EE60040109B01AC01C701B6010E94D4130E94B9
:100EF600B110662309F43BCF653118F08FEF80936C
:100F0600B3006B3018F08DE78093B300663020F0A5
:100F160082E38093B3002BCF84E18093B30027CF85
:100F2600ADE0B0E0E9E9F7E00C941D129A878987F5
:100F36007C836B83FA01DB011296CD90DC901397CC
:100F460014968D919C9115979E838D83ED90FC90C0
:100F56001197FA82E98216960D90BC91A02DB8875A
:100F6600AF83208031804280538064807580868084
:100F760097808101B42DF52DE62D7B868C869D8686
:100F86009101A201B301C401A0E00E9475134CF4C3
:100F96000E9423138901B42FF52FE62F7B878C87B8
:100FA6009D87D7FC04C0E894E1F8FA82E9829101B2
:100FB600A201B301C401A0E0ED80FE800E9475137A
:100FC6001CF0898182FF04C081E0E81AF10805C09F
:100FD60083FF03C091E0E91AF108CE0101965C0196
:100FE6008AE0C82ED12C2B2F3F2F4E2F5B856C8588
:100FF6007D858B819C810E94B009FC019101A20133
:10100600B301C401A0E00E9475131CF0898182FF20
:1010160012C031970F8118850E0F1F1F9101A20173
:10102600B301C401A0E00E94751314F08BE201C065
:101036008DE2D80108C083FF07C03197AF81B8851C
:10104600AE0FBF1F80E28C93E980FA80AB81BC8132
:1010560018962D913C911997215031092E1B3F0B63
:101066008F819885E80FF91FAF0160E80D811E8119
:1010760089859A850E94550A9C01A985BA858D9114
:101086009C9190FF07C0EB81FC818281938182173E
:0E10960093070CF4C9012D96E2E10C94391277
:1010A4000F931F93CF93DF93FC01D9016838710527
:1010B40031F194F461387105B1F12CF460387105A3
:1010C40009F478C09FC06238710509F459C06438C6
:1010D400710509F46FC096C0603A710509F448C0FF
:1010E4002CF46039710509F44BC08CC0603C710567
:1010F40009F476C0603F710509F472C083C0CD91D4
:10110400DC911197CE0102968D939C93452B39F077
:101114009881892F880F880B908381835BC0888195
:101124008083118268C0CD91DC911197CE01049621
:101134008D939C93452B99F088819981AA81BB81D9
:10114400AC01BD01770F440B542FBA018083918306
:10115400A283B383448345834683478328C008819D
:1011640019812A813B81008311832283338345C003
:10117400CD91DC911197CE0102968D939C9323C05F
:10118400CD91DC911197CE0108968D939C93788133
:1011940069815A814B813C812D819E818F8170832D
:1011A400618352834383348325839683878381E0D9
:1011B40090E02AC0CD91DC911197CE0102968D93D7
:1011C4009C93452BA1F099812881892F880F880B46
:1011D4002083918382838383848385838683E6CF7C
:1011E400CD91DC911197CE0102968D939C93088149
:1011F400198100831183128213821482158216824C
:101204001782D5CF80E090E0DF91CF911F910F91AD
:0212140008953B
:101216008F929F92AF92BF92CF92DF92EF92FF9200
:101226000F931F93CF93DF9300D000D00F92CDB7CB
:10123600DEB76B01E82E8A0120E02DC090E0FC01AC
:10124600F097EA30F10508F06FC0E25CFF4F0C94AE
:10125600F61380E011C082E00FC083E00DC084E089
:101266000BC085E009C086E007C087E005C088E0BE
:1012760003C089E001C081E0253008F057C0E1E0F5
:10128600F0E0EC0FFD1FE20FF11D80838FEFC81A0F
:10129600D80AE80A2F5FF6018491E7FC808188234B
:1012A60021F08D3011F08A3049F6222309F440C02E
:1012B600EFEFE20FC12CD12C7601C394812C912C37
:1012C600540125C0A1E0B0E0AC0FBD1FAE0FB11DAB
:1012D600E7FDBA95AC91B0E0A70196010E948C1388
:1012E600860E971EA81EB91ECC0CDD1CEE1CFF1C1C
:1012F600D701C601880F991FAA1FBB1F880F991F08
:10130600AA1FBB1FC80ED91EEA1EFB1EE150EE2304
:10131600CCF681149104E1E0AE06B10458F4F8016C
:101326009182808281E007C080E005C080E003C032
:1013360080E001C080E00F900F900F900F900F900B
:10134600DF91CF911F910F91FF90EF90DF90CF909B
:0A135600BF90AF909F908F90089514
:10136000A2E1B0E0E6EBF9E00C941D12FC010A8B5F
:101370001B832C83732E642E552E462E7D83CC86A4
:10138000D886BF82AE82868197819B878A87D50166
:101390004D915C91228133818085918501971C015B
:1013A00037FF02C021E030E0EA85FB85E80FF91F36
:1013B00010824701E1E0F0E0FA83E983C9018E1968
:1013C0009F099E878D87DA01A270BB27B88BAF87F4
:1013D000B885BB0FBB0BB98B1214130474F0A98131
:1013E000BA81AB2B09F05CC0AE81BF818D919C911D
:1013F00011978F7E8D939C9353C02A893B814C819A
:10140000572D662D752D842D9D81A0E00E947513AA
:10141000B1F1E1E02E1A3108FC85F987AF2EB884CE
:10142000C988DC2CEC2CFC2C0C2D1C2D2A893B8132
:101430004C81572D662D752D842D9D810E94421360
:10144000C90129839A83EA85FB85E20DF31D805D3E
:10145000808381E0881A91082A893B814C81572D2D
:10146000662D752D842D9D810E9444132A8B3B830C
:101470004C83752E662E572E482E9D83ADCF8D85BD
:101480009E85880D991D181619061CF2181419044A
:101490000CF0A5CFEF85F889EF2B09F0BACF9FCFDD
:0A14A000C1016296E2E10C943912DA
:1014AA002F923F924F926F927F928F92AF92BF92FA
:1014BA00CF92DF92EF92FF920F931F93CF93DF9316
:1014CA00CDB7DEB766970FB6F894DEBF0FBECDBFB5
:1014DA005C013A01862E6901C701817099279C8BAC
:1014EA008B8BE0FC1DC020173107D4F47801EC186F
:1014FA00FD08FE8AED8AA70191E1E916F10410F0D0
:10150A0040E150E060E270E0CE0101969A8B898B4F
:10151A000E94AC1389899A891C0120E8422E0BC0CB
:10152A009601682DA301C5010E947D10C016D1063F
:10153A00ECF2C60125C090E1E916F10458F020E169
:10154A0030E0642DA101C5010E947D1080E1E81AF6
:10155A00F108F1CF2D893E892F70332789899A891D
:10156A00AC0160E8C5010E947D108B899C89892B9A
:10157A0031F49601682DA301C5010E947D10C801AE
:10158A0066960FB6F894DEBF0FBECDBFDF91CF913E
:10159A001F910F91FF90EF90DF90CF90BF90AF9087
:0E15AA008F907F906F904F903F902F900895FC
:1015B80010C00E94E21358F00E94DB1340F029F497
:1015C8005F3F29F00C94F01351110C94EA130C941A
:1015D8001A140E947D1168F39923B1F3552391F3EE
:1015E800951B550BBB27AA2762177307840738F08A
:1015F8009F5F5F4F220F331F441FAA1FA9F335D0E7
:101608000E2E3AF0E0E832D091505040E695001C9A
:10161800CAF72BD0FE2F29D0660F771F881FBB1F54
:10162800261737074807AB07B0E809F0BB0B802D32
:10163800BF01FF2793585F4F3AF09E3F510578F05E
:101648000C94F0130C94EA135F3FE4F3983ED4F340
:10165800869577956795B795F7959F5FC9F7880F32
:10166800911D9695879597F90895E1E0660F771F84
:10167800881FBB1F621773078407BA0720F0621B15
:0E168800730B840BBA0BEE1F88F7E0950895E4
:10169600CF93DF93DC01F90164387105D9F164F465
:1016A6006138710521F16238710509F440C060386E
:1016B600710509F054C02EC060397105C1F184F47A
:1016C6006838710509F04BC0C081D181CE01029600
:1016D60091838083E881F981ED93FC9340833CC03C
:1016E600603A7105B9F0603C7105A1F038C0C0815F
:1016F600D181CE01029691838083E881F981ED93B1
:10170600FC93052E000C660B770B40835183628396
:10171600738322C0C081D181CE01029691838083DA
:10172600E881F981ED93FC935183408315C0C08114
:10173600D181CE01029691838083E881F981ED9370
:10174600FC9351834083852F880F880B8283838384
:10175600848385838683878381E090E002C080E06E
:0817660090E0DF91CF9108959E
:10176E000FC00E94DB1338F00E94E21320F0952385
:10177E0011F00C94F0130C941A1411240C94EA1317
:10178E000E947D1170F3959FC1F3950F50E0551F88
:10179E00629FF001729FBB27F00DB11D639FAA27B8
:1017AE00F00DB11DAA1F649F6627B00DA11D661F07
:1017BE00829F2227B00DA11D621F739FB00DA11D28
:1017CE00621F839FA00D611D221F749F3327A00DE2
:1017DE00611D231F849F600D211D822F762F6A2F7E
:1017EE0011249F5750409AF0F1F088234AF0EE0FE3
:1017FE00FF1FBB1F661F771F881F91505040A9F710
:10180E009E3F510580F00C94F0130C94EA135F3F49
:10181E00E4F3983ED4F3869577956795B795F7954B
:10182E00E7959F5FC1F7FE2B880F911D96958795C3
:04183E0097F9089579
:10184200A2E0B0E0E7E2FCE00C941D121C014B01A7
:10185200FA01DB0112962D913C91139714964D904B
:101862005C9015978D919C9111979A838983169616
:101872006D907C90179737FD03C08D7F9A83898383
:101882000081118122813381448155816681778172
:10189200FE0131965F0188E0C82ED12C7201C4018D
:1018A2000E94B009298124FF06C00197F301E80FC5
:1018B200F91F20E32083298123FF06C00197F3014A
:1018C200E80FF91F20E22083E980FA80D4011896FC
:1018D2002D913C91199721503109281B390B860D06
:1018E200971DAC0160E88201C1010E94550A9C016A
:1018F200F1018081918190FF08C0D40112968D91EF
:101902009C911397821793070CF4C9012296E2E186
:041912000C943912E6
:101916006F927F928F92BF92CF92DF92EF92FF9259
:101926000F931F93CF93DF93CDB7DEB72C970FB6E8
:10193600F894DEBF0FBECDBF182F092FF62EB72E97
:101946006AEE70E080E00E949D120F931F930F2EA7
:10195600F1EFCF2EF0E0DF2EF0E0EF2EF02DEF923C
:10196600DF92CF928E010F5F1F4F1F930F930E943E
:10197600DD12380180E8882E882DB3010E949D1261
:1019860064EF70E080E00E949D12BF92FF92EF929A
:10199600DF92CF921F930F930E94DD12882DB30121
:1019A6000E949D1264EF70E080E00E949D120FB6C7
:1019B600F894DEBF0FBECDBF2C960FB6F894DEBFEF
:1019C6000FBECDBFDF91CF911F910F91FF90EF908A
:0E19D600DF90CF90BF908F907F906F9008951C
:1019E40011C00E94DB1338F00E94E21320F039F496
:1019F4009F3F19F426F40C941A140EF4E095E7FBB7
:101A04000C94F013E92F0E947D1158F3BA17620762
:101A140073078407950720F079F4A6F50C94E9136D
:101A24000EF4E0950B2EBA2FA02D0B01B9019001F5
:101A34000C01CA01A0011124FF27591B99F0593F39
:101A440050F4503E68F11A16F040A22F232F342F81
:101A54004427585FF3CF469537952795A795F040CF
:101A64005395C9F77EF41F16BA0B620B730B840BE4
:101A7400BAF09150A1F0FF0FBB1F661F771F881F9C
:101A8400C2F70EC0BA0F621F731F841F48F48795F4
:101A940077956795B795F7959E3F08F0B0CF9395E6
:0E1AA400880F08F09927EE0F97958795089503
:101AB2002F923F924F926F927F928F92AF92BF92EC
:101AC200CF92DF92EF92FF920F931F93CF93DF9308
:101AD200CDB7DEB727970FB6F894DEBF0FBECDBFE6
:101AE2006C017B013901842E980186E3282E82E065
:101AF200382E80E0482E87E0F101AE014F5F5F4F44
:101B0200DA01742D0E945013F70102811381A4801F
:101B1200B580E080F18061147104810419F43A0106
:101B2200F0E88F2E2115310529F4882DB3010E948A
:101B3200B3129C0117FD04C00217130708F49801A1
:101B42008501682DA301C6010E94550A27960FB68A
:101B5200F894DEBF0FBECDBFDF91CF911F910F91E1
:101B6200FF90EF90DF90CF90BF90AF908F907F90DB
:0A1B72006F904F903F902F90089560
:101B7C00A2E0B0E0E4ECFDE00C941D123C014B0142
:101B8C00FA01DB0112962D913C91139714964D900E
:101B9C005C9015978D919C9111979A8389831696D9
:101BAC002D903C90179737FD03C08D7F9A838983C6
:101BBC000081118122813381448155816681778135
:101BCC00FE0131965F018AE0C82ED12C7201C4014E
:101BDC000E94B009E980FA80D40118962D913C91AD
:101BEC00199721503109281B390B820D931DAC011B
:101BFC0060E88201C3010E94550A9C01F3018081B7
:101C0C00918190FF08C0D40112968D919C911397ED
:101C1C00821793070CF4C9012296E2E10C94391255
:101C2C006F927F928F92CF92DF92EF92FF920F93EF
:101C3C001F93CF93DF93CDB7DEB72A970FB6F894E7
:101C4C00DEBF0FBECDBF3B01882E6A017901882D06
:101C5C00B3010E949D1264EF70E080E00E949D121F
:101C6C00198268E0CE0101960E94E0108823C9F326
:101C7C00BE016F5F7F4F80E8AE01475F5F4F0E94F0
:101C8C000B09882361F089859A858E159F0538F09C
:101C9C000817190720F0F6019183808306C067EFBF
:101CAC0070E080E00E949D12D2CF2A960FB6F89475
:101CBC00DEBF0FBECDBFDF91CF911F910F91FF9073
:0E1CCC00EF90DF90CF908F907F906F900895F3
:101CDA006F927F928F92EF92FF920F931F93CF93FF
:101CEA00DF93CDB7DEB761970FB6F894DEBF0FBEAC
:101CFA00CDBFFE01319651E1DF011D925A95E9F7F8
:101D0A00A2E0B1E0BA83A9839C838B8377FF09C0E1
:101D1A008FE490E090930102809300028FEF9FEF8F
:101D2A0019C03901842E7C01615071097F836E8349
:101D3A009801682DA301CF010E946E12488559852A
:101D4A002E813F814217530708F49A01F701E20FE7
:101D5A00F31F108261960FB6F894DEBF0FBECDBF97
:101D6A00DF91CF911F910F91FF90EF908F907F900D
:041D7A006F900895C9
:101D7E0088249924F401E401B0E49F93AA279A15CC
:101D8E008B049C04ED05FE05CF05D007A10798F442
:101D9E00AD2FDC2FCF2FFE2FE92D982C892E982FCB
:101DAE00872F762F652F542F432F322F2227B8508F
:101DBE0031F7BF9127C01B2EBF91BB27220F331FB8
:101DCE00441F551F661F771F881F991F881C991C5B
:101DDE00EE1FFF1FCC1FDD1FAA1FBB1F8A149B0403
:101DEE00EC05FD05CE05DF05A007B10748F08A1802
:101DFE009B08EC09FD09CE09DF09A00BB10B216090
:101E0E001A94E1F62EF49401AF01BE01CD01000C3F
:021E1E00089525
:101E2000CF92DF92EF92FF920F931F93CF93DF93A6
:101E300000D000D0CDB7DEB76C017B016EE171E060
:101E400080E00E949D1206E910E020E030E0AE0143
:101E50004F5F5F4F6AE371E080E00E94160E20E062
:101E600030E0AE014D5F5F4F65E671E080E00E94BB
:101E7000160E2B813C8189819A818217930730F05D
:101E800060E971E080E00E949D120DC0F60191832F
:101E900080838B819C81F7019183808362ED71E067
:101EA00080E00E949D120F900F900F900F90DF9195
:101EB000CF911F910F91FF90EF90DF90CF900895F9
:101EC000CF92DF92EF92DC0190E0292F30E0220FD9
:101ED000331F6901032E000CEE086E2DA601405E33
:101EE0005D4F6F4F6A01E62EFA018491E7FC808115
:101EF00081110DC02F5F3F4F032E000C440B205E5D
:101F00003D4F4F4FF901849147FD808124C0CD9012
:101F1000DD90EC901297F6014491E7FC4081841328
:101F200015C02F5F3F4F032E000C440B205E3D4F2A
:101F30004F4FF901949147FD90815FEFC51AD50A83
:101F4000E50ACD92DD92EC92129701C09F5F9B3023
:0E1F500008F4BBCF892FEF90DF90CF9008955B
:101F5E000F931F93CF93DF93DB012D913C9111973C
:101F6E0030FF25C017964D915C91189715962D91BF
:101F7E003C9116974217530778F41296ED91FC9107
:101F8E001397808312962D913C9113972F5F3F4F9D
:101F9E0013963C932E93129717962D913C9118976A
:101FAE002F5F3F4F18963C932E93179715C01D9693
:101FBE00ED91FC911E97309719F48FEF9FEF0CC0A7
:101FCE008B01EC010995892BC1F7F801878190856A
:101FDE00019690878783CE01DF91CF911F910F914C
:021FEE00089554
:101FF000CF939B01482FF901849147FD8081803266
:10200000C9F1682F082E000C770B695071096530F3
:10201000710580F18B3249F5A0E0B0E02F5F3F4FB2
:102020004F4F02C0A0E0B0E080E090E0CAE0F901CC
:10203000649147FD6081062E000C770B6053710997
:102040006A30710560F4C89FF001C99FF00D11243A
:102050002F5F3F4F4F4FCF01861B970BE8CFAB2B26
:1020600069F491958195910909C08D32D9F6A1E065
:10207000B0E0D4CF2F5F3F4F4F4FBDCFCF910895EA
:10208000E89409C097FB3EF4909580957095619512
:102090007F4F8F4F9F4F9923A9F0F92F96E9BB27C8
:1020A0009395F695879577956795B795F111F8CF44
:1020B000FAF4BB0F11F460FF1BC06F5F7F4F8F4FAF
:1020C0009F4F16C0882311F096E911C0772321F0A5
:1020D0009EE8872F762F05C0662371F096E8862F3D
:1020E00070E060E02AF09A95660F771F881FDAF794
:0A20F000880F9695879597F90895DB
:1020FA006F927F928F92CF92DF92EF920F931F93FC
:10210A00CF93DF938C016A01E62EE9013A01862E0C
:10211A00620E731E811C37FD8A94C614D704E80424
:10212A0079F0F6018491E7FC8081B801082E000C51
:10213A00990B0E94AF0F8FEFC81AD80AE80AEDCFA1
:10214A00CE01DF91CF911F910F91EF90DF90CF9049
:08215A008F907F906F900895B3
:102162000E94851188F09F5798F0B92F9927B7518F
:10217200B0F0E1F0660F771F881F991F1AF0BA9529
:10218200C9F714C0B13091F00E94E913B1E008958B
:102192000C94E913672F782F8827B85F39F0B93F7D
:1021A200CCF3869577956795B395D9F73EF49095DC
:0E21B2008095709561957F4F8F4F9F4F0895D8
:1021C0000F931F93CF93DF938C01D62F0E9454124D
:1021D000C82F8823A9F08D30A9F08A30A9F0B80162
:1021E00080E80E94B3126D2F70E06150710986176C
:1021F000970760F46C2FC8010E945D1380E007C050
:1022000080E005C080E003C081E001C080E0DF9194
:08221000CF911F910F91089579
:102218001F920F920FB60F9211242F933F934F9353
:102228005F936F937F938F939F93AF93BF93EF9336
:10223800FF9387EF92EC90938500809384000E942F
:102248000614FF91EF91BF91AF919F918F917F916C
:102258006F915F914F913F912F910F900FBE0F900B
:042268001F90189516
:10226C00990F0008550FAA0BE0E8FEEF161617069B
:10227C00E807F907C0F012161306E407F50798F003
:10228C00621B730B840B950B39F40A2661F0232B1C
:10229C00242B252B21F408950A2609F4A140A69598
:0822AC008FEF811D811D0895D3
:1022B4001F920F920FB60F9211248F93EF93FF93F7
:1022C400E0910902F0E08091C600E050FF4F808366
:1022D400809109028F5F809309028091090288230B
:1022E40014F410920902FF91EF918F910F900FBE99
:0622F4000F901F901895E9
:1022FA0057FD9058440F551F59F05F3F71F04795AD
:10230A00880F97FB991F61F09F3F79F08795089591
:10231A00121613061406551FF2CF4695F1DF08C0B0
:10232A00161617061806991FF1CF869571056105CD
:04233A000894089566
:10233E00CF92DF92EF926B01E82EF6018491E7FCCB
:10234E008081F901549147FD508185130BC088237C
:10235E0041F08FEFC81AD80AE80A2F5F3F4F4F4F50
:10236E00ECCF582F90E0851B9109EF90DF90CF9026
:02237E000895C0
:10238000FA0160387105CCF0623871051CF06338D1
:10239000710599F4A081B1819D012C5F3F4F31837C
:1023A00020834D915D916D917C91FC01408351831F
:1023B0006283738381E090E0089580E090E0089567
:1023C00090E08A309105B8F4FC01EC5CFF4F0C946E
:1023D000F61380E3089582E3089583E3089584E388
:1023E000089585E3089586E3089587E3089588E3D3
:0E23F000089589E308958FE3089581E3089529
:1023FE0097FB10F8169400080F93083098F00850C9
:10240E00232F342F452F562F672F782F892F902D5E
:10241E00F4CF05949795879577956795579547953A
:0C242E00379527950A95AAF70F9108959D
:10243A002F923F924F925F926F927F928F929F92CA
:10244A00AF92BF92CF92DF92EF92FF920F931F93B8
:10245A00CF93DF93CDB7DEB7CA1BDB0B0FB6F89469
:08246A00DEBF0FBECDBF0994D7
:102472002A88398848885F846E847D848C849B8412
:10248200AA84B984C884DF80EE80FD800C811B8120
:10249200AA81B981CE0FD11D0FB6F894DEBF0FBE4F
:0624A200CDBFED0108951D
:1024A80090910A0280910902981791F0E0910A022E
:1024B800F0E0E050FF4F808190910A029F5F909377
:1024C8000A0290910A02992324F410920A020895AC
:0424D80080E0089503
:1024DC00A2E0B0E0E4E7F2E10C942B128C013A8319
:1024EC0029839E012F5F3F4F0E942201F80120811A
:1024FC0024FF02C08FEF9FEF2296E4E00C9447126A
:10250C00EAE7F0E080818061808380818064808351
:10251C0080917A0084FFFCCF209178003091790073
:0E252C00EAE7F0E0908190619083C901089584
:10253A00CF92DF92EF926B01E82E06C09FEFC91A85
:10254A00D90AE90A0E94CD13F6018491E7FC808139
:0C255A008111F4CFEF90DF90CF90089536
:10256600CF92DF92EF926B01E82EA82FCB01FC01F0
:102576002491A7FD2081222319F00196A11DF7CFF2
:0C2586008C199D09EF90DF90CF90089514
:10259200AA1BBB1B51E107C0AA1FBB1FA617B70787
:1025A20010F0A61BB70B881F991F5A95A9F78095A3
:0825B2009095BC01CD010895D4
:1025BA00A0E0B0E0E3EEF2E10C942D129E01265F5A
:1025CA003F4F4F81588569858D819E810E9469138D
:0625DA00E2E00C9449123E
:1025E000F89410928000E1E8F0E0108287EF92EC1E
:1025F000909385008093840081E080936F0085E054
:042600008083089536
:10260400092E0394000C11F4882352F0BB0F40F4FC
:10261400BF2B11F460FF04C06F5F7F4F8F4F9F4F3C
:02262400089517
:102626008AB180648AB993E894BD83E085BD84B19C
:10263600886084B99093B00084E08093B1000895D7
:10264600609570958095909530954095509521951B
:102656003F4F4F4F5F4F6F4F7F4F8F4F9F4F0895A5
:10266600A29FB001B39FC001A39F700D811D1124CD
:0E267600911DB29F700D811D1124911D0895BC
:10268400689401C0E8948F929F92CF93DF930E9445
:0C269400BF0EDF91CF919F908F900895B2
:1026A000992777FD05C005900D920197E1F70895F0
:0A26B00001900D920197E1F70895E3
:1026BA00FC0101C0F9019F012F5F3F4F8081811109
:0826CA00F9CF6083118208952D
:1026D2000F931F9389019A01462F6FEF7FE70E94A4
:0826E2006D0E1F910F91089588
:1026EA000024A7FD00942A1730054005500560050F
:0826FA007005800590050895AC
:102702009093C5008093C40088E98093C10086E05D
:062712008093C20008954F
:102718000E943313A59F900DB49F900DA49F800D28
:06272800911D112408952B
:10272E00EC010E9425140E942414CE010E9426144E
:06273E00CE010E942214EE
:1027440081E480937C0087E880937A0081E0809321
:042754007E00089566
:10275800FC01480F591FE417F50711F06193FBCFEF
:022768000895D2
:10276A009C01215631092A31310510F48F759927B8
:02277A000895C0
:10277C009C01215431092A31310508F480620895F5
:0E278C0084B1806184B985B1806185B90895FA
:0E279A009091C00095FFFCCF8093C60008957B
:0E27A8005058BB27AA270E94F20C0C94021373
:0E27B60000240A941616170618060906089540
:0E27C40000240A941216130614060506089542
:0E27D200E894BB2766277727CB0197F9089577
:0C27E00097F99F6780E870E060E00895C2
:0C27EC00EE0FFF1F0590F491E02D099402
:0A27F8000E94361108F481E00895F4
:0A2802000E94361108F48FEF0895CC
:08280C0081E080930B020895A6
:0828140085B1806185B90895CA
:08281C0085B18F7E85B9089596
:082824000E94DC0A0C9402136F
:08282C000E94B70B0C9402138B
:062834009FEF80EC089507
:06283A0080E090E008952B
:042840000C940000F4
:042844000E9473007B
:022848000895F1
:02284A000895EF
:02284C000895ED
:00000001FF
