:100000000C9434000C9415020C9415020C941502F7
:100010000C9415020C9415020C9415020C94150204
:100020000C9415020C9415020C9415020C941502F4
:100030000C9415020C9415020C9415020C941502E4
:100040000C9415020C9415020C9415020C941502D4
:100050000C9415020C9415020C9415020C941502C4
:100060000C9415020C94150211241FBECFEFD8E09A
:10007000DEBFCDBFE8E6F0E040E017C0B591A59146
:1000800035912591059107FD0CC095918591EF0162
:10009000F92FE82F05900D92A217B307D9F7FE01AB
:1000A00004C01D92A217B307E1F7E836F40731F751
:0C00B0000E9424010C940302F894FFCF7E
:1000BC005465636C613A20000405040506070001D1
:0C00CC00020325252B2B2B2B2525252599
:1000D8000F931F93CF93DF9300D000D000D0CDB7FC
:1000E800DEB7FC018B01892BB1F580E3FB0180832E
:1000F800118255C09F01ADECBCEC0E94E6019695BB
:10010800879596958795969587959C01220F331F1D
:10011800880F991F880F991F880F991F820F931FA7
:100128009F01281B390BC901A1E0B0E0AC0FBD1F2E
:10013800A40FB51F805D8C939F01ADECBCEC0E94B1
:10014800E601FC01F695E795F695E795F695E795AE
:100158004F5F5F4F02C040E050E03097B9F0453044
:10016800510544F280E090E013C0D801A80FB91FF0
:10017800FA01E81BF90B319721E030E02C0F3D1F05
:10018800E20FF31F20812C93019602C080E090E0DB
:100198008417950754F3F801E40FF51F108226968B
:1001A8000FB6F894DEBF0FBECDBFDF91CF911F9180
:0401B8000F91089506
:1001BC00CF92DF92EF92FF92CF93DF93A0E033C008
:1001CC002A2F30E040E0E42FE901C253DF4FEF4F1C
:1001DC006E01EE2EF601C4902C533F4F4F4F642FFF
:1001EC00A901FA01449121E030E002C0220F331F33
:1001FC004A95E2F740E052E00A2E02C05595479529
:10020C000A94E2F748235923452B31F0EC2DF0E00A
:10021C003081232B208306C0EC2DF0E0308120951B
:10022C0023232083AF5FAA3058F20E94A601DF91EE
:0C023C00CF91FF90EF90DF90CF900895DD
:10024800CF93DF9300D000D000D0CDB7DEB70E94A7
:1002580080010E94D5010E940E026CEB70E080E0E4
:100268000E94BF010E94F5017C0180E890E00E9495
:10027800DE008FE39FE10197F1F700C000008E01D7
:100288000F5F1F4FB801C7010E946C00B80180E8DA
:100298000E94BF019FEF23EC89E0915020408040ED
:0802A800E1F700C00000DECF09
:1002B00090E1899F9001112482958F70282B822FC5
:1002C0008C7C90E0AC0155954795559547952373E7
:1002D000822F90E0880F991F880F991F842B282F59
:1002E0002A7A30E035952795982F9575892F90E0DB
:1002F000880F991F822B90E092600E94DE00089583
:10030000CF93C0E01FC02C2F30E040E0A42FC901E4
:1003100082539F4FAF4FFC0184912C533F4F4F4F5F
:10032000642FA901FA0144918150E82FF0E0208167
:1003300081E090E002C0880F991F4A95E2F7822B76
:0C0340008083CF5FCA30F8F2CF9108959F
:10034C008FE39FE10197F1F700C0000085B1806257
:10035C0085B98FE39FE10197F1F700C0000085B1EB
:10036C008F7D85B98FE39FE10197F1F700C0000005
:02037C000895E2
:10037E00CF92DF92EF926B01E82E06C09FEFC91A63
:10038E00D90AE90A0E945801F6018491E7FC80819E
:0C039E008111F4CFEF90DF90CF90089514
:1003AA008CE090E00E94DE008CE190E00E94DE008A
:1003BA0080E890E00E94DE0080EF90E00E94DE007C
:0203CA00089594
:1003CC00A29FB001B39FC001A39F700D811D11248A
:0E03DC00911DB29F700D811D1124911D089579
:1003EA00EAE7F0E080818064808380917A0086FD6C
:0C03FA00FCCF809178009091790008956C
:10040600EC010E941A020E941902CE010E941B02F0
:06041600CE010E94170256
:0E041C0080E480937C0087E880937A00089546
:04042A000C9400002E
:04042E000E945C00CC
:0204320008952B
:02043400089529
:02043600089527
:00000001FF
