:100000000C9444000C94AC050C94AC050C94AC0519
:100010000C94AC050C94AC050C94AC050C94AC059C
:100020000C94AC050C94AC050C94C8020C94AC0573
:100030000C94AC050C94AC050C94AC050C94AC057C
:100040000C94AC050C94AC050C94AC050C94AC056C
:100050000C94AC050C94AC050C94AC050C94AC055C
:100060000C94AC050C94AC0558046C045A045C0464
:100070005E0460046204640466046804010001090B
:10008000800109010A000B6611241FBECFEFD8E0E2
:10009000DEBFCDBFECE7F0E040E017C0B591A59121
:1000A00035912591059107FD0CC095918591EF0142
:1000B000F92FE82F05900D92A217B307D9F7FE018B
:1000C00004C01D92A217B307E1F7E838F40731F72F
:0C00D0000E9490000C945905F894FFCF9A
:1000DC00496E697469616C697A696E672E2E2E009F
:1000EC00526F6A6F004E6172616E6A6100416D61A0
:1000FC0072696C6C6F0056657264650043656C6563
:10010C0073746500417A756C004700202020004410
:04011C00002020009F
:10012000CF93DF93CDB7DEB7EE970FB6F894DEBF6F
:100130000FBECDBF8AB180618AB978948AB18061DF
:100140008AB98BB18F7E8BB90E9464050E947505B8
:100150000E949E030E9431050E94E204BC0180E0DF
:1001600090E00E94270326EF38E24CEB50E40E9417
:10017000A5050E94D803162F0E946D0580EA0E94F3
:10018000A004812F0E94A0040E949D058FE891E0A9
:100190000197F1F700C00000612F70E0CE01C59615
:1001A0000E94DD018BB180618BB990E59A95F1F7E2
:1001B0008BB18F7E8BB980910601909107018A30B7
:1001C000910590F41BA6FE01BB96DF010D90002067
:1001D000E9F7CD0125E030E04CEE50E060E001971A
:1001E0000E946E0419EB65C08832910590F41BA63D
:1001F000FE01BB96DF010D900020E9F7CD0128E05C
:1002000030E041EF50E060E001970E946E041AEB8D
:1002100050C08A35910590F41BA6FE01BB96DF0104
:100220000D900020E9F7CD0129E030E049EF50E0E2
:1002300060E001970E946E041BEB3BC0863991057C
:1002400090F41BA6FE01BB96DF010D900020E9F79C
:10025000CD0126E030E042E051E060E001970E94ED
:100260006E041CEB26C08C32914090F41BA6FE015C
:10027000BB96DF010D900020E9F7CD0128E030E0CA
:1002800048E051E060E001970E946E041DEB11C050
:100290001BA6FE01BB96DF010D900020E9F7CD0102
:1002A00025E030E040E151E060E001970E946E04FB
:1002B0001FEB0E946D0580EA0E94A004812F0E941E
:1002C000A0040E949D05EFE8F1E03197F1F700C02E
:1002D0000000198A19827E01F1E1EF0EF11CD701AD
:1002E0000D900020E9F7CD0122E030E045E151E03A
:1002F00060E001970E946E04AE014B5C5F4F60E8C6
:10030000C7010E948704F70101900020E9F7CF019F
:1003100024E030E047E151E060E001970E946E0484
:100320008E010F5F1F4FD8010D900020E9F7CD011E
:1003300022E030E04BE151E060E001970E946E0462
:10034000AE01455D5F4F60E8C8010E948704F80177
:1003500001900020E9F7CF0123E030E04DE151E0CA
:1003600060E001970E946E046091060170910701A0
:10037000CE0181960E94DD01AC0160E8C8010E94B7
:100380008704D8010D900020E9F7CD0123E030E08B
:100390004DE151E060E001970E946E0480E80E9408
:1003A0004D05B70180E80E94B60480EC0E944D051F
:0A03B000B80180E80E94B604CFCE29
:1003BA00BF92CF92DF92EF92FF920F931F93CF9348
:1003CA00DF9300D000D00F92CDB7DEB77C018B014E
:1003DA00672BD9F580E3F7018083118255C0980114
:1003EA00ADECBCEC0E941405969587959695879579
:1003FA00969587959C01220F331F880F991F880FA6
:10040A00991F880F991F820F931F9801281B390B78
:10041A00C901BB24B394BC0CD12C99270E94500467
:10042A00E1E0F0E0EC0FFD1FEC0DFD1D808398016B
:10043A00ADECBCEC0E9414058C0116950795169537
:10044A00079516950795CB2C01C0C12C01151105EE
:10045A0031F680E013C0282F30E0D701A20FB31F76
:10046A00EC2DF0E03197E21BF30B21E030E02C0F8A
:10047A003D1FE20FF31F90819C938F5F8C1558F3F9
:10048A00F701EC0DF11D1082C7010F900F900F902C
:10049A000F900F90DF91CF911F910F91FF90EF90E6
:0804AA00DF90CF90BF90089590
:1004B20010C00E94830558F00E947C0540F029F488
:1004C2005F3F29F00C94910551110C948B050C940B
:1004D200A9050E942E0468F39923B1F3552391F3E1
:1004E200951B550BBB27AA2762177307840738F0A1
:1004F2009F5F5F4F220F331F441FAA1FA9F335D0FE
:100502000E2E3AF0E0E832D091505040E695001CB1
:10051200CAF72BD0FE2F29D0660F771F881FBB1F6B
:10052200261737074807AB07B0E809F0BB0B802D49
:10053200BF01FF2793585F4F3AF09E3F510578F075
:100542000C9491050C948B055F3FE4F3983ED4F331
:10055200869577956795B795F7959F5FC9F7880F49
:10056200911D9695879597F90895E1E0660F771F9B
:10057200881FBB1F621773078407BA0720F0621B2C
:0E058200730B840BBA0BEE1F88F7E0950895FB
:100590001F920F920FB60F9211242F933F934F93F8
:1005A0005F936F937F938F939F93AF93BF93EF93DB
:1005B000FF938091810086FF0EC08091860090910C
:1005C00087009093030180930201E1E8F0E08081CD
:1005D0008F7B80832BC080918600909187009093C1
:1005E0000501809304012091020130910301821BD7
:1005F000930B9093010180930001E1E8F0E080818A
:1006000080648083609100017091010180E090E03E
:100610000E94270320E030E048EE52E40E94A50546
:100620000E94D8037093070160930601FF91EF9138
:10063000BF91AF919F918F917F916F915F914F91FA
:0E0640003F912F910F900FBE0F901F901895B5
:10064E00E89409C097FB3EF490958095709561955E
:10065E007F4F8F4F9F4F9923A9F0F92F96E9BB2714
:10066E009395F695879577956795B795F111F8CF90
:10067E00FAF4BB0F11F460FF1BC06F5F7F4F8F4FFB
:10068E009F4F16C0882311F096E911C0772321F0F1
:10069E009EE8872F762F05C0662371F096E8862F89
:1006AE0070E060E02AF09A95660F771F881FDAF7E0
:0A06BE00880F9695879597F9089527
:1006C800CF93C82F809108018F709C2F907F892B22
:1006D8008460809308010E94040585E08A95F1F7FB
:1006E8000000809108018B7F809308010E94040517
:1006F8008AE18A95F1F700C080E1C89F9001112432
:10070800809108018F70822B8460809308010E9479
:10071800040585E08A95F1F70000809108018B7F38
:10072800809308010E9404058AE18A95F1F700C0C8
:04073800CF910895C0
:10073C000E94070484E0809308010E94040525E8C8
:10074C002A95F1F7000083E00E944D0583E00E949A
:10075C004D0583E00E944D0582E00E944D0588E224
:10076C000E944D058FE00E944D0581E00E944D05D1
:10077C0086E00E944D0580E80E944D056CED70E00E
:10078C0080E00E94B6048FEF93ED20E381509040FF
:10079C002040E1F700C000000E94A10580E80E9403
:0407AC004D0508955A
:1007B0000E94360488F09F5798F0B92F9927B751B7
:1007C000B0F0E1F0660F771F881F991F1AF0BA95F5
:1007D000C9F714C0B13091F00E948A05B1E00895C4
:1007E0000C948A05672F782F8827B85F39F0B93FB6
:1007F000CCF3869577956795B395D9F73EF49095A8
:0E0800008095709561957F4F8F4F9F4F0895A3
:10080E00CF93DF93C0E20DC00E946D058C2F880F31
:10081E000E94A004D82F0E949D05D111C0930901FA
:10082E00CF5FC83288F3C8E30DC00E946D058C2FD0
:10083E00880F0E94A004D82F0E949D05D111C0934D
:0E084E000901CF5FC03488F3DF91CF91089588
:10085C0057FD9058440F551F59F05F3F71F0479565
:10086C00880F97FB991F61F09F3F79F0879508954A
:10087C00121613061406551FF2CF4695F1DF08C069
:10088C00161617061806991FF1CF86957105610586
:04089C00089408951F
:1008A0008A309105B8F4FC01EC5CFF4F0C9497057D
:1008B00080E3089582E3089583E3089584E308952F
:1008C00085E3089586E3089587E3089588E308950E
:0C08D00089E308958FE3089581E3089503
:1008DC00CF92DF92EF926A01E62EDC01280F391FCE
:1008EC00A217B30751F0F6014491E7FC40814D93F8
:1008FC004FEFC41AD40AE40AF3CFEF90DF90CF90F5
:02090C0008954C
:10090E00CF92DF92EF92CF93DF93EC016A01E62E46
:10091E00BC0180E80E94CC046E2DA6018C0F9D1F99
:10092E000E943F05CE01DF91CF91EF90DF90CF90E7
:02093E0008951A
:100940008093BB0084E88093BC008091BC00882326
:10095000E4F78091B900887F883121F0883221F452
:0C09600081E0089581E0089580E0089592
:10096C00CF92DF92EF926B01E82E06C09FEFC91A6F
:10097C00D90AE90A0E942305F6018491E7FC8081DB
:0C098C008111F4CFEF90DF90CF90089520
:10099800CF92DF92EF926B01E82EA82FCB01FC01DA
:1009A8002491A7FD2081222319F00196A11DF7CFDC
:0C09B8008C199D09EF90DF90CF900895FE
:1009C40080E480937C00EAE7F0E0808180648083A7
:1009D40080917A0086FDFCCF809178009091790017
:0209E400089574
:1009E600092E0394000C11F4882352F0BB0F40F437
:1009F600BF2B11F460FF04C06F5F7F4F8F4F9F4F77
:020A0600089551
:100A0800CF93C82F0E946D0580910901880F0E941D
:100A1800A0048C2F0E94A0040E949D05CF910895E8
:100A2800A29FB001B39FC001A39F700D811D112427
:0E0A3800911DB29F700D811D1124911D089516
:100A4600CF93C82F809108018960809308010E9486
:0C0A560004058C2F0E946403CF910895CA
:100A62001092800082EC8093810010928500109297
:0C0A7200840080E280936F007894089567
:100A7E009A01462FDC01F901549147FD50815D9397
:0C0A8E002F5F3F4F4F4F5111F6CF0895DE
:100A9A00CF93C82F88E0809308010E9404058C2F09
:080AAA000E946403CF9108953E
:100AB200EC010E94B1050E94B005CE010E94B20570
:060AC200CE010E94AE050A
:100AC8001092B90088E48093B80084E08093BC0059
:020AD80008957F
:100ADA0084EA8093BC008091BC008823E4F70895DF
:0E0AEA0087E880937A0083E080937E00089571
:0E0AF80000240A94161617061806090608951B
:0E0B060000240A94121613061406050608951C
:0E0B1400E894BB2766277727CB0197F9089551
:0C0B220097F99F6780E870E060E008959C
:0C0B2E00EE0FFF1F0590F491E02D0994DC
:080B3A0084E98093BC000895DA
:080B420081E00E944D050895B9
:080B4A000E9459020C94F3040F
:060B52009FEF80EC089506
:040B58000C940000F9
:040B5C000E946C0087
:020B60000895F6
:020B62000895F4
:020B64000895F2
:010B66002767
:040000050080010274
:00000001FF
