:100000000C9437000C94B7000C94B7000C94B70014
:100010000C94B7000C94B7000C94B7000C94B70084
:100020000C94B7000C94B7000C94B7000C94B70074
:100030000C94B7000C94B7000C94B7000C94B70064
:100040000C94B7000C94B7000C94B7000C94B70054
:100050000C94B7000C94B7000C94B7000C94B70044
:100060000C94B7000C94B70001000101800011242A
:100070001FBECFEFD8E0DEBFCDBFE8E6F0E040E046
:1000800017C0B591A59135912591059107FD0CC03B
:1000900095918591EF01F92FE82F05900D92A21708
:1000A000B307D9F7FE0104C01D92A217B307E1F709
:1000B000ED36F40731F70E9461000C94A000F8942B
:0200C000FFCF70
:1000C2000E94AB0080EA0E94880080EF0E948800B4
:1000D2000E94B3002FEF83ED90E3215080409040C7
:1000E200E1F700C000000E94AB0080EA0E94880095
:1000F20081EF0E9488000E94B3002FEF83ED90E30E
:0E010200215080409040E1F700C00000D9CFAE
:100110008093BB0084E88093BC008091BC0088235E
:10012000E4F78091B900887F80930001883221F044
:10013000883121F481E0089581E0089580E00895F8
:10014000EC010E94BC000E94BB00CE010E94BD00D9
:06015000CE010E94B9007F
:1001560084EA8093BC008091BC008823E4F708956C
:0801660084E98093BC000895B8
:04016E000C940000ED
:040172000E945F0088
:020176000895EA
:020178000895E8
:02017A000895E6
:00000001FF
