:100000000C9434000C94E3010C94E3010C94E30190
:100010000C94E3010C94E3010C94E3010C94E301D0
:100020000C94E3010C94E3010C94E3010C94E301C0
:100030000C94E3010C94E3010C94E3010C94E301B0
:100040000C94E3010C94E3010C94E3010C94E301A0
:100050000C94E3010C94E3010C94E3010C94E30190
:100060000C94E3010C94E30111241FBECFEFD8E000
:10007000DEBFCDBF0E941B010C949A01F894FFCF04
:1000800010C00E94C40158F00E94BD0140F029F444
:100090005F3F29F00C94D20151110C94CC010C94C7
:1000A000E0010E94400168F39923B1F3552391F3D5
:1000B000951B550BBB27AA2762177307840738F0D7
:1000C0009F5F5F4F220F331F441FAA1FA9F335D034
:1000D0000E2E3AF0E0E832D091505040E695001CE8
:1000E000CAF72BD0FE2F29D0660F771F881FBB1FA2
:1000F000261737074807AB07B0E809F0BB0B802D80
:10010000BF01FF2793585F4F3AF09E3F510578F0AB
:100110000C94D2010C94CC015F3FE4F3983ED4F3ED
:10012000869577956795B795F7959F5FC9F7880F7F
:10013000911D9695879597F90895E1E0660F771FD1
:10014000881FBB1F621773078407BA0720F0621B62
:0E015000730B840BBA0BEE1F88F7E095089531
:10015E00E89409C097FB3EF4909580957095619553
:10016E007F4F8F4F9F4F9923A9F0F92F96E9BB2709
:10017E009395F695879577956795B795F111F8CF85
:10018E00FAF4BB0F11F460FF1BC06F5F7F4F8F4FF0
:10019E009F4F16C0882311F096E911C0772321F0E6
:1001AE009EE8872F762F05C0662371F096E8862F7E
:1001BE0070E060E02AF09A95660F771F881FDAF7D5
:0A01CE00880F9695879597F908951C
:1001D8000E94480188F09F5798F0B92F9927B75186
:1001E800B0F0E1F0660F771F881F991F1AF0BA95D3
:1001F800C9F714C0B13091F00E94CB01B1E0089565
:100208000C94CB01672F782F8827B85F39F0B93F56
:10021800CCF3869577956795B395D9F73EF4909585
:0E0228008095709561957F4F8F4F9F4F089581
:100236000E94A5010E94B6010E947801BC0180E0DF
:1002460090E00E94AF0026EF38E24CEB50E40E94AB
:10025600DC010E94EC00C62F0E94AE0180EA0E94DB
:1002660062018C2F0E9462010E94D8018FE891E002
:0A0276000197F1F700C00000DFCF90
:1002800057FD9058440F551F59F05F3F71F0479547
:10029000880F97FB991F61F09F3F79F0879508952C
:1002A000121613061406551FF2CF4695F1DF08C04B
:1002B000161617061806991FF1CF86957105610568
:0402C0000894089501
:1002C4008093BB0084E88093BC008091BC008823A9
:1002D400E4F78091B900887F883121F0883221F4D5
:0C02E40081E0089581E0089580E0089515
:1002F00080E480937C00EAE7F0E080818064808382
:1003000080917A0086FDFCCF8091780090917900F1
:0203100008954E
:10031200092E0394000C11F4882352F0BB0F40F411
:10032200BF2B11F460FF04C06F5F7F4F8F4F9F4F51
:0203320008952C
:10033400EC010E94E8010E94E701CE010E94E9015C
:06034400CE010E94E5015C
:10034A001092B90088E48093B80084E08093BC00DE
:02035A00089504
:10035C0084EA8093BC008091BC008823E4F7089564
:0E036C0087E880937A0083E080937E000895F6
:0E037A0000240A9416161706180609060895A0
:0E03880000240A9412161306140605060895A2
:0E039600E894BB2766277727CB0197F90895D7
:0C03A40097F99F6780E870E060E0089522
:0803B00084E98093BC0008956C
:0803B8000E9440000C94890131
:0603C0009FEF80EC0895A0
:0403C6000C94000093
:0403CA000E943E004F
:0203CE00089590
:0203D00008958E
:0203D20008958C
:00000001FF
