:100000000C9437000C94F7050C94F7050C94F70545
:100010000C94F7050C94F7050C94F7050C94F70570
:100020000C94F7050C94F7050C94F7050C94F70560
:100030000C94F7050C94F7050C94F7050C94F70550
:100040000C94F7050C94F7050C946C040C9445047F
:100050000C94F7050C94F7050C94F7050C94F70530
:100060000C94F7050C94F7050100030B8000112494
:100070001FBECFEFD8E0DEBFCDBFE8E6F0E040E046
:1000800017C0B591A59135912591059107FD0CC03B
:1000900095918591EF01F92FE82F05900D92A21708
:1000A000B307D9F7FE0104C01D92A217B307E1F709
:1000B000ED36F40731F70E9437050C94CF05F8941C
:0200C000FFCF70
:1000C200554E4B4E4F574E00466F746F63656C64CE
:1000D200613A200020002020436F6C6F722064651B
:1000E2007465637461646F3A2000202056616C6FFE
:1000F200722065737461626C656369646F3A205B38
:10010200002C005D00202044656C74613A205B0085
:100112002B002D005D0D0A00524F4A4F00414D4108
:1001220052494C4C4F00564552444500415A554C99
:1001320020434C41524F004D4F5241444F005649CB
:0D0142004F4C45544100424C414E434F008C
:10014F003901003501DC0077011A01007201AA00A4
:10015F0074011F010042019800A4002801009E01B4
:10016F001401DD002E0100DF00E200B500400100A8
:0F017F0059016401B201480100B400B400B4009A
:10018E002F923F924F925F926F927F928F92AF9289
:10019E00BF92CF92DF92EF92FF920F931F93CF9366
:1001AE00DF93CDB7DEB767970FB6F894DEBF0FBEFD
:1001BE00CDBF6B877C878D87F12C52C00F2D10E041
:1001CE00C801880F991F880F991F880F991F800FDC
:1001DE00911F092E000CAA0B815B9E4FAF4FFC01A5
:1001EE005A2F0E94DA059B01482F6B857C858D85E1
:1001FE000E94B204892B99F5C801880F991F880FA8
:10020E00991F880F991F080F191FC8010396092EF1
:10021E00000CAA0B815B9E4FAF4FFC015A2F0E9420
:10022E00E4057F876E87C8010596092E000CAA0B80
:10023E00815B9E4FAF4FFC015A2F0E94E405798BD4
:10024E00688BC8010796092E000CAA0B815B9E4F86
:10025E00AF4FFC015A2F0E94E4052B010BC0F39403
:10026E0026E02F1508F0AACF412C512C198A188A96
:10027E001F861E860F2EF0E0EF2EF3E0FF2EF02DE0
:10028E00F701208031802E853F85221A330A3B8A62
:10029E002A8A828193815C01E889F989AE1ABF0AA4
:1002AE00BD8AAC8AF701848195816C01C418D5088A
:1002BE00DF8ACE8A6AEC70E080E00E94D3048E0161
:1002CE000F5F1F4FB801F701808191810E94D50306
:1002DE003801F0E88F2E882DB3010E94D30466ED0D
:1002EE0070E080E00E94D304B801F701828193810F
:1002FE000E94D503882DB3010E94D30466ED70E0F1
:10030E0080E00E94D304B801F701848195810E9498
:10031E00D503882DB3010E94D30468ED70E080E010
:10032E000E94D3046B857C858D850E94D3046CEE70
:10033E0070E080E00E94D304B8018E859F850E94F4
:10034E00D503882DB3010E94D30463E071E080E0F1
:10035E000E94D304B801888999890E94D503882DFB
:10036E00B3010E94D30463E071E080E00E94D304E5
:10037E00B801C2010E94D503882DB3010E94D30497
:10038E0065E071E080E00E94D30467E071E080E0F8
:10039E000E94D3042A883B88332034F062E171E056
:1003AE0080E00E94D30405C064E171E080E00E9409
:1003BE00D304C101992324F488279927821993091C
:1003CE00BE016F5F7F4F0E94D503882DB3010E943F
:1003DE00D30463E071E080E00E94D3042C893D8950
:1003EE00332334F062E171E080E00E94D30405C053
:1003FE0064E171E080E00E94D304C501992324F4E6
:10040E00882799278A199B09BE016F5F7F4F0E942B
:10041E00D503882DB3010E94D30463E071E080E020
:10042E000E94D3048E899F89992334F062E171E092
:10043E0080E00E94D30405C064E171E080E00E9478
:10044E00D304C601992324F4882799278C199D0972
:10045E00BE016F5F7F4F0E94D503882DB3010E94AE
:10046E00D30466E171E080E00E94D30467960FB674
:10047E00F894DEBF0FBECDBFDF91CF911F910F91CC
:10048E00FF90EF90DF90CF90BF90AF908F907F90C6
:0C049E006F905F904F903F902F9008955A
:1004AA002F923F924F925F926F927F928F929F927A
:1004BA00AF92BF92CF92DF92EF92FF921F93CF93A8
:1004CA00DF93CDB7DEB72D970FB6F894DEBF0FBE18
:1004DA00CDBF1C017E836D8358874F8310E082EC69
:1004EA0090E0A0E089879A87AB878FEF9FEFDC01C6
:1004FA0089839A83AB83BC8390C02101612C712CC0
:10050A00A12FB0E0BD87AC87CD01880F991F880F56
:10051A00991F880F991F8A0F9B1F9C012D5F3F4FC0
:10052A00032E000C440B215B3E4F4F4FF901542F11
:10053A000E94E405461A570A610871082D813E8116
:10054A004901A12CB12C9C012B5F3F4F032E000CBB
:10055A00440B215B3E4F4F4FF901542F0E94E40593
:10056A00861A970AA108B108AF81B8856D01E12CF6
:10057A00F12C0796092E000CAA0B815B9E4FAF4FF8
:10058A00FC015A2F0E94E405C61AD70AE108F108AD
:10059A00A3019201C301B2010E9497052B013C01FC
:1005AA00A5019401C501B4010E949705460E571E84
:1005BA00681E791EA7019601C701B6010E94970518
:1005CA00460E571E681E791E89819A81AB81BC81AD
:1005DA00481659066A067B06F8F48C859D85880FAD
:1005EA00991F880F991F880F991FAC85BD85A80F81
:1005FA00B91FBA83A983CD01BB0FAA0B815B9E4F9A
:10060A00AF4FFC015A2F0E94DA0569877A878B87D8
:10061A0049825A826B827C821F5F173008F46DCF41
:10062A0069857A858B852D960FB6F894DEBF0FBE45
:10063A00CDBFDF91CF911F91FF90EF90DF90CF90C8
:10064A00BF90AF909F908F907F906F905F904F90E8
:06065A003F902F9008956F
:10066000CF92DF92EF920F931F93CF93DF93CDB78B
:10067000DEB728970FB6F894DEBF0FBECDBF8091CE
:1006800006038130B1F018F0823029F176C040E0E5
:1006900060E081E00E94F30480E00E9422059093D4
:1006A000010380930003BE016F5F7F4F0E94D5035B
:1006B00064C040E061E080E00E94F30480E00E94BA
:1006C00022059093030380930203BE016F5F7F4F67
:1006D0000E94D50352C041E060E080E00E94F30434
:1006E00080E00E94220500E013E0F80195838483F6
:1006F000BE016F5F7F4F0E94D503F8014481558191
:1007000062817381808191810E9455026B01E82E84
:100710000E94C7002AE131E040E08E2DB6010E9420
:10072000B204892B21F480E00E94740526C02FE1D9
:1007300031E040E08E2DB6010E94B204892B21F4F5
:100740008CE30E94740519C028E231E040E08E2D50
:10075000B6010E94B204892B21F488E70E94740537
:100760000CC02EE231E040E08E2DB6010E94B204B2
:10077000892B19F484EB0E9474058091060390E0A4
:10078000019663E070E00E944C0580930603289672
:100790000FB6F894DEBF0FBECDBFDF91CF911F9192
:0A07A0000F91EF90DF90CF900895C5
:1007AA000F931F93CF93DF9300D000D000D0CDB723
:1007BA00DEB7FC018B01892BB1F580E3FB01808355
:1007CA00118253C09F01ADECBCEC0E94A70596951F
:1007DA00879596958795969587959C01220F331F45
:1007EA00880F991F880F991F880F991F820F931FCF
:1007FA009F01281B390BC901A1E0B0E0AC0FBD1F56
:10080A00A40FB51F805D8C939F01ADECBCEC0E94D8
:10081A00A705FC01F695E795F695E795F695E79510
:10082A004F5F5F4F02C040E050E03097A9F045307B
:10083A00510540F280E090E011C0D801A80FB91F1D
:10084A0041505109E1E0F0E0EC0FFD1FE40FF51F04
:10085A0020812C93019602C080E090E014161506C0
:10086A0064F3F801E80FF91F108226960FB6F89480
:10087A00DEBF0FBECDBFDF91CF911F910F910895BB
:10088A001F920F920FB60F9211248F93EF93FF933B
:10089A0080910A03E09109038E1306C0E1ECF0E0AF
:1008AA0080818F7D80830BC0F0E0E050FE4F808115
:1008BA008093C600809109038F5F80930903FF919B
:0E08CA00EF918F910F900FBE0F901F90189519
:1008D8001F920F920FB60F9211242F938F939F930D
:1008E800EF93FF932091C600E091080381E08E0FFB
:1008F80090910703891731F0F0E0E050FF4F208313
:1009080080930803FF91EF919F918F912F910F9002
:080918000FBE0F901F9018950F
:10092000A1E21A2EAA1BBB1BFD010DC0AA1FBB1FF3
:10093000EE1FFF1FA217B307E407F50720F0A21B65
:10094000B30BE40BF50B661F771F881F991F1A94D2
:1009500069F760957095809590959B01AC01BD01FC
:04096000CF01089526
:10096400CF92DF92EF926B01E82EF6018491E7FCBF
:100974008081F901549147FD508185130BC0882370
:1009840041F08FEFC81AD80AE80A2F5F3F4F4F4F44
:10099400ECCF582F90E0851B9109EF90DF90CF901A
:0209A4000895B4
:1009A600CF92DF92EF92CF93DF936B01E82EC0E0F8
:1009B600D0E001C02196F6018491E7FC808188236E
:1009C60041F09FEFC91AD90AE90A0E940B05811165
:1009D600F1CFCE01DF91CF91EF90DF90CF900895C8
:1009E60095B1282F30E0220F331F220F331F70E0FE
:1009F600660F771F660F771F660F771F80E1489F88
:100A0600A0011124622B642B937E692B65B908958E
:100A1600E0910A0391E09E0F20910903921769F075
:100A2600F0E0E050FE4F808390930A03E1ECF0E0A3
:0E0A360080818062808381E0089580E00895D1
:100A4400ECE7F0E09081907F8F70892B8083EAE758
:100A5400F0E080818064808380917A0086FDFCCF01
:0A0A640080917800909179000895C8
:100A6E000E94B6050E94EC050E94F3050E948705C0
:100A7E0078940E9430032FEF80E792E0215080405F
:0A0A8E009040E1F700C00000F4CF33
:100A980097FB072E16F4009407D077FD09D00E9423
:100AA800600507FC05D03EF4909581959F4F089509
:080AB800709561957F4F0895D0
:100AC000AA1BBB1B51E107C0AA1FBB1FA617B70774
:100AD00010F0A61BB70B881F991F5A95A9F7809590
:080AE0009095BC01CD010895C1
:100AE800282F30E0A0EABFE00E94A70524EB30E001
:100AF80040E050E00E94900428513C4F3093890018
:060B08002093880008950F
:100B0E0084B1826084B982E8809380008AE1809308
:100B1E0081008FE39CE9909387008093860008956F
:100B2E00DB018F939F930E94C405BF91AF91A29F4B
:100B3E00800D911DA39F900DB29F900D11240895CD
:100B4E00A29FB001B39FC001A39F700D811D112400
:0E0B5E00911DB29F700D811D1124911D0895EF
:100B6C001092C50087E68093C4001092C00088E9FB
:0C0B7C008093C10086E08093C2000895C1
:100B88000E94A705A59F900DB49F900DA49F800D6E
:060B9800911D11240895D7
:100B9E00EC010E94FC050E94FB05CE010E94FD05A2
:060BAE00CE010E94F905D2
:100BB40057FD04C065917591859108956191719176
:040BC400819108957E
:100BC80057FD03C0659175910895619171910895DC
:0E0BD80080E480937C0087E880937A00089583
:080BE60084B18C6184B908950B
:040BEE000C94000063
:040BF2000E945F00FE
:020BF600089560
:020BF80008955E
:020BFA0008955C
:00000001FF
