:100000000C9437000C94EF020C94EF020C94EF0266
:100010000C94EF020C94EF020C94EF020C94EF029C
:100020000C94EF020C94EF020C94EF020C94EF028C
:100030000C94EF020C94EF020C94EF020C94EF027C
:100040000C94EF020C94EF020C94EF020C94EF026C
:100050000C94EF020C94EF020C94EF020C94EF025C
:100060000C94EF020C94EF02010004648000112450
:100070001FBECFEFD8E0DEBFCDBFE8E6F0E040E046
:1000800017C0B591A59135912591059107FD0CC03B
:1000900095918591EF01F92FE82F05900D92A21708
:1000A000B307D9F7FE0104C01D92A217B307E1F709
:1000B000ED36F40731F70E94D0020C94DC02F8947C
:0200C000FFCF70
:1000C2007F928F929F92AF92BF92CF92DF92EF92E6
:1000D200FF920F931F93CF93DF93182F08E0081B13
:1000E2006894FF24F3F8F80EE02E0AC061E08E2D2A
:1000F2000E94510224E148EC6FEF0E948E02E394C9
:10010200C02E002E000CDD08C12FCC0FDD0BCC0D54
:10011200DD1D4E018FEF881A980A8E2D0E2C000CD1
:10012200990B8815990514F38AE0E82EE11A7E2CC2
:100132000AC060E0872D0E94510224E148EC6FEF73
:100142000E948E0273945E0191E0A91AB108872D74
:10015200072C000C990B8A159B055CF3C02F0AC073
:100162006EE08C2F0E94510224E148EC6FEF0E9456
:100172008E02CF5F8C2F0C2E000C990B88159905DF
:100182007CF30AC06FE08E2D0E94510224E148ECFC
:100192006FEF0E948E02E3948E2D0E2C000C990BB1
:1001A2008A159B057CF3802F0DC0C82F803140F447
:1001B20062E00E94510224E148EC6FEF0E948E023D
:1001C20081E08C0FE6012296282F082E000C330BBB
:1001D2002C173D0754F3195F812F0EC0E82E9FE0C4
:1001E200981740F062E00E94510224E148EC6FEF60
:1001F2000E948E0281E08E0DF81684F7802F0EC0C9
:10020200E82E9FE0981740F060E00E94510220E043
:1002120040E060E00E948E0281E08E0D282F082EC1
:10022200000C330B2C173D075CF3812F0EC0E82E18
:100232009FE0981740F060E00E94510220E040E009
:1002420060E00E948E0281E08E0DF81684F7802F06
:100252000EC0E82E9FE0981740F06DE00E94510218
:1002620024E148EC6FEF0E948E0281E08E0D282F70
:10027200082E000C330B2C173D075CF3812F0EC0A8
:10028200E82E9FE0981740F06DE00E94510224E1B1
:1002920048EC6FEF0E948E0281E08E0DF81684F713
:1002A2000FC0E02E8FE0801748F06FE0802F0E9491
:1002B200510220E040E060E00E948E0201E00E0D5B
:1002C200802F002E000C990B8C179D0754F30EC043
:1002D200C12F103148F46FE0812F0E94510220E0BB
:1002E20040E060E00E948E0211E01C0FF11684F7DC
:1002F200DF91CF911F910F91FF90EF90DF90CF9000
:0C030200BF90AF909F908F907F90089567
:10030E0000E010E00E94C302F12C61C088EF8C0F58
:10031E009BEF9C0F973008F053C0082E000C990BE2
:10032E009C01992324F422273327281B390BD3E071
:10033E00D21B0AF4D0E023E2D29FD02D1124D85D37
:10034E00880F991F2F2D30E0A901440F551F240F40
:10035E00351F820F931F980136952795820F931F95
:10036E0001C04B969923ECF36BE170E00E9466029C
:10037E00893058F48DECD89FE12C1124DE2CD694C4
:10038E00D694E694E694E69412C0992742976CF0C0
:10039E008DECD89F812D1124D82ED694D694ED2E87
:1003AE00D82FD695D695D69502C0ED2EDD2E6F2D73
:1003BE008C2F0E9451022E2D4D2D6D2F0E948E02DC
:1003CE00CF5F01C0C0E0C03108F4A0CFF3942FE09E
:1003DE002F15C0F783E00E9461000E942D020F5F6F
:1003EE001F4F8FEF96E721E0815090402040E1F7BC
:0603FE0000C0000087CFE3
:100404008823A9F08BB180648BB900000000000040
:100414000000000000000000000000008BB18F7B92
:100424008BB90000000000000000000008958BB1AB
:1004340080648BB90000000000008BB18F7B8BB906
:1004440000000000000000000000000000000000A8
:0604540000000000089505
:10045A00CF93DF93F894C0E0D0E014C0CE01880FA8
:10046A00991F8C0F9D1FDC01AE5FBE4FFC01E0504F
:10047A00FF4F8F5F9E4F4C916081FC0180810E94EB
:10048A00B3022196CF3FD10549F340F378940E94F5
:08049A00EB02DF91CF91089500
:1004A20060FD07C090E020E1629F800D911D112444
:1004B20008952FE030E0A901481B5109CA0150E11B
:0A04C200659F800D911D112408951F
:1004CC0097FB072E16F4009407D077FD09D00E94F5
:1004DC007A0207FC05D03EF4909581959F4F0895C4
:0804EC00709561957F4F0895A2
:1004F400AA1BBB1B51E107C0AA1FBB1FA617B70746
:1005040010F0A61BB70B881F991F5A95A9F7809561
:080514009095BC01CD01089592
:10051C0090E0FC01EE0FFF1F8E0F9F1FFC01E050BF
:10052C00FF4F4083FC01EF5FFE4F6083FC01EE5FE9
:06053C00FE4F208308952C
:10054200CF93DF93D82FF894C0E006C08D2F807828
:100552000E940202DD0FCF5FC830C0F37894DF91B2
:04056200CF91089598
:10056600CF93DF93D82F862FC42F0E94A1028D2F01
:100576000E94A1028C2F0E94A102DF91CF910895C3
:1005860080E090E005C0FC01E050FF4F108201962C
:0A059600811523E09207B8F30895E1
:1005A0000E94E7028FE99FE00197F1F700C0000089
:0805B0000E94EB020E9487018A
:1005B800EC010E94F4020E94F302CE010E94F502AF
:0605C800CE010E94F102C9
:0805CE008AB180648AB9089526
:0805D60080EA8A95F1F708950F
:0405DE000C94000079
:0405E2000E945F0014
:0205E600089576
:0205E800089574
:0205EA00089572
:00000001FF
