:100000000C9437000C9423010C9423010C942301CD
:100010000C9423010C9423010C9423010C942301D0
:100020000C9423010C9423010C9423010C942301C0
:100030000C9423010C9423010C9423010C942301B0
:100040000C9423010C9423010C9423010C942301A0
:100050000C9423010C9423010C9423010C94230190
:100060000C9423010C94230101000400800011244E
:100070001FBECFEFD8E0DEBFCDBFE8E6F0E040E046
:1000800017C0B591A59135912591059107FD0CC03B
:1000900095918591EF01F92FE82F05900D92A21708
:1000A000B307D9F7FE0104C01D92A217B307E1F709
:1000B000ED36F40731F70E94AF000C940D01F8946F
:0200C000FFCF70
:1000C2008823A1F08BB180648BB90000000000008E
:1000D2000000000000000000000000008BB18F7BD8
:1000E2008BB9000000000000000008958BB180640D
:1000F2008BB90000000000008BB18F7B8BB9000030
:1001020000000000000000000000000000000000ED
:04011200000008954C
:10011600CF93DF93F894C0E0D0E014C0CE01880FEF
:10012600991F8C0F9D1FDC01AE5FBE4FFC01E05096
:10013600FF4F8F5F9E4F4C916081FC0180810E9432
:10014600EE002196CF3FD10549F340F378940E9403
:080156001801DF91CF9108951B
:10015E000E941F018FE99FE00197F1F700C0000098
:10016E000E9418010E94FE00C0E007C020E04FEF81
:10017E0060E08C2F0E94C900CF5FCF3FB9F70E947D
:04018E008B00FFCF14
:1001920090E0FC01EE0FFF1F8E0F9F1FFC01E0504D
:1001A200FF4F4083FC01EF5FFE4F6083FC01EE5F77
:0601B200FE4F20830895BA
:1001B800CF93DF93D82FF894C0E006C08D2F8078B6
:1001C8000E946100DD0FCF5FC830C0F37894DF91E3
:0401D800CF91089526
:1001DC00CF93DF93D82F862FC42F0E94DC008D2F56
:1001EC000E94DC008C2F0E94DC00DF91CF910895DF
:1001FC0080E090E005C0FC01E050FF4F10820196BA
:0E020C00811523E09207B8F30E948B0008953D
:10021A00EC010E9428010E942701CE010E942901B7
:06022A00CE010E94250137
:0E0230008FEE90E00197F1F700C000000895F6
:08023E008AB180648AB90895B9
:040246000C94000014
:04024A000E945F00AF
:02024E00089511
:0202500008950F
:0202520008950D
:00000001FF
