:100000000C9446000C94D0180C94D0180C94D01872
:100010000C945D170C9489170C94D0180C94D0187C
:100020000C94D0180C94D0180C94D0180C94D018B0
:100030000C94D0180C9440140C94D0180C94D01834
:100040000C9468180C94D0180C9408180C94E017B1
:100050000C94D0180C94D0180C94D0180C94D01880
:100060000C94D0180C94D0180100020080020002F9
:100070001A0031AE021A0234800234023500270D14
:10008000023502360031C80236023C8011241FBE00
:10009000CFEFD8E0DEBFCDBFE8E6F0E040E017C02C
:1000A000B591A59135912591059107FD0CC09591CC
:1000B0008591EF01F92FE82F05900D92A217B30754
:1000C000D9F7FE0104C01D92A217B307E1F7EC387F
:1000D000F40731F70E9468160C94B418F894FFCF17
:1000E00093025E000000EE015E000000B8015E00B9
:1000F00000004A015E000000B8015E000000EE0151
:100100005E00000093025E000000EE015E00000051
:10011000B8015E0000004A015E000000B8015E0008
:100120000000EE015E00000093025E000000EE01A0
:100130005E000000B8015E0000004A015E000000A1
:10014000A500BC000000A500BC000000B801BC0078
:100150000000A500BC0000009F01BC0000004A0197
:10016000BC000000A500BC000000B801BC000000FD
:10017000A500BC0000009F01BC000000A500BC0061
:100180000000A500BC000000A500BC0000009F010D
:10019000BC000000A500BC0000009F01770100002A
:1001A0007201BC0000007201770100007201DC05E1
:1001B000EE02A500BC000000A500BC000000B801D4
:1001C000BC000000A500BC0000009F01BC000000B6
:1001D0004A01BC000000A500BC000000B801BC0042
:1001E0000000A500BC0000009F01BC000000A500AD
:1001F000BC000000A500BC000000A500BC00000081
:100200009F01BC000000A500BC0000009F01770119
:1002100000007201BC000000720177010000720151
:10022000DC0500009300BC0000007201BC0000006F
:100230009300BC0000007201BC0047019300BC00A9
:1002400000009300BC000000A500BC000000A50059
:10025000BC000000D000BC000000A500BC000000F5
:100260009300BC000000F70077010000F700BC001D
:100270000000DC0077010000D000BC000000F700A7
:1002800077010000F700BC000000F700BC00000090
:10029000DC00BC000000DC00BC0000004A01AA0336
:1002A0000000F700BC000000DC00BC000000DC0027
:1002B000BC0000004A0177010000A500BC0000005E
:1002C000B900BC000000C400AA030000DC00EE027C
:1002D0000000F700330200000601EE0200002601D4
:1002E000770100002601BC00000006017701000034
:1002F000F700BC000000DC00BC000000C400770177
:100300000000EE015D00000072015F0000004A0184
:100310005E000000F7005E0000004A015D00000082
:1003200072015F000000EE015E00000072015E00DD
:1003300000004A015D000000F7005F0000004A0174
:100340005E00000072015E000000EE015D00000032
:1003500072015F0000004A015E000000F7005E00CD
:1003600000009300BC0000009300BC000000A5004A
:10037000BC000000A500BC000000D000BC000000D4
:10038000A500BC0000009300BC000000F70077014E
:100390000000F700BC000000DC0077010000D00086
:1003A000BC000000F70077010000F700BC0000006F
:1003B000F700BC000000DC00BC000000DC00BC005A
:1003C00000004A01AA030000EE01BC000000B801D1
:1003D000BC000000B801BC000000930277010000DF
:1003E0004A01BC0000007201BC0000008801AA03A1
:1003F0000000B801EE020000EE01770100000B02E0
:10040000770100004B02770100000B02BC000000E6
:100410000B02BC00000072015D000000EE015F00F5
:100420000000E4025E000000E4025F000000DC0364
:100430005E000000E4025E00000093025D00000028
:10044000E4025F00000093025E000000EE015E0027
:10045000000072015D00000037015F000000F7003E
:100460005E00000037015E00000072015D000000C8
:10047000EE015F0000006E025E000000E4025E001C
:1004800000006E025D000000E4025F000000DC037B
:100490005E000000E4025E0000006E025D000000ED
:1004A000E4025F0000006E025E000000EE015E00EC
:1004B000000072015D00000037015F000000F700DE
:1004C000BC0000001501AA030000D000BC00000021
:1004D000D000BC0000001501BC000000F70077014F
:1004E0000000DC0077010000D00077010000B900B7
:1004F00077010000DC0065040000D000BC000000B3
:10050000D0003302000093025D000000EE015F00A6
:1005100000009F015E0000004A015E0000003F03F2
:100520005D00000093025F000000EE015E0000002D
:100530009F015E000000DC035D0000003F035F00E0
:10054000000093025E000000EE015E0000007201F8
:1005500077010000A50077010000DC00BC0000006E
:10056000D000BC000000A500BC000000DC0077014A
:100570000000D000BC000000A500BC000000F70097
:1005800077010000DC00EE02BC004A0177010000A8
:10059000B801BC0000009F01BC0000004A01BC0083
:1005A0000000B801770100009F01BC00BC004A01B7
:1005B000BC000000B80177010000EE01BC000000A3
:1005C000EE0133020000F7005D00000015015F003E
:1005D000000037015E0000004A015E000000720169
:1005E0005D0000009F015F000000B8015E00000098
:1005F000EE015E0000002A025D0000006E025F0056
:1006000000009302BC00BC007201BC000000B801F5
:10061000BC0000009302BC000000EE01BC00000022
:100620004B02BC0000007201BC000000B801BC001D
:1006300000002601330200004A01EE02BC00260140
:10064000BC00BC002601BC0000004A01AA037701DF
:100650008801770100008801BC0000004A01BC004D
:10066000BC007201BC0000007201BC00BC00720141
:10067000BC00BC004A01BC0000004A01BC00BC0038
:100680002601BC0000008801770100008801BC0041
:1006900000007201BC00BC002601BC0000004A0141
:1006A000BC00BC004A01330200004B02EE02BC0059
:1006B0001501BC0000001501BC000000DC00BC00FE
:1006C0000000A50077015D0093005F000000A50019
:1006D0005E000000B9005E000000C4005D00000084
:1006E000DC005F000000F7005E00000015015E0006
:1006F00000002601330200004A01EE02BC00260180
:10070000BC00BC002601BC0000004A01AA0377011E
:100710008801770100008801BC0000004A01BC008C
:10072000BC007201BC0000007201BC00BC00720180
:10073000770100004A01BC0000004A01BC00BC0077
:100740002601BC0000002601BC007701F700BC00B8
:1007500000001501BC0000002601BC0000005D0186
:10076000770100005D01770100005D017701000065
:100770005D01770100004A015D005F0026015E0017
:100780005E00F70033020000C400BC0000009300CC
:100790005D000000A5005F000000B9005E000000E1
:1007A000C4005E000000DC005D000000F7005F0098
:1007B00000001501EE0200004A015E0000009F01EA
:1007C0005E000000B8015D0000002A025F0000002A
:1007D00093025E0000002A025E000000B8015D0086
:1007E00000004A015F00000015015E000000DC000F
:1007F0005E000000E9005D00000026015F000000CF
:100800005D015E000000B8015E000000D2015D00E5
:1008100000004B025F000000BA025E00000070039F
:100820005E000000A4035D00000070035F00000094
:10083000BA025E0000004B025E000000D2015D00C3
:100840000000B8015F00000006015E0000004A01E0
:100850005E00000088015D000000EE015F00000006
:100860000B025E00000093025E00000010035D00BA
:100870000000DC035F00000017045E000000DC03E2
:100880005E00000010035D00000093025F000000A6
:100890000B025E000000EE015E000000880177019F
:1008A00000009C0033020000AF005E000000C400A6
:1008B0005E000000E9005D00000037015F000000FD
:1008C0005D015E00000088015E000000D2015D0055
:1008D00000006E025F000000BA02330200007003E5
:1008E000650400006E0086090000570077010000D3
:1008F0006200410A00005200770100005700DC0549
:100900000000620065040000520033020000930002
:10091000BC0000009300BC000000A500BC0000006B
:10092000A500BC000000D000BC000000A500BC0079
:1009300000009300BC000000F70077010000F70002
:10094000BC000000DC0077010000D000BC0000000B
:10095000F70077010000F700BC000000F700BC00C2
:100960000000DC00BC000000DC00BC0000004A010C
:10097000AA030000F700BC000000DC00BC0000007F
:10098000DC00BC0000004A0177010000A500BC00AB
:100990000000B900BC000000C400AA030000DC0095
:1009A000EE020000F700330200004B027701000066
:1009B0004B02BC0000000B02BC0000000B02BC009C
:1009C0000000EE01BC000000B801BC00000088017E
:1009D000BC000000EE01BC0000003701650400000F
:1009E000EE015D0000004B025F00000093025E001C
:1009F000000010035E0000007003330200001704C3
:100A000033020000970477010000970433020000CE
:100A1000E40277010000E402BC0000004B02770111
:100A2000000006015E00000026015F0000004A0190
:100A30005E00000072015D00000088015E000000A1
:100A4000B8015F0000000B025E0000004B025D0079
:100A5000000093025E000000E4025F00000010034B
:100A60005E00000070035D00000097045E0000005F
:100A700070035F000000E4025E0000004B025D00B6
:100A8000000070035E000000E4025F0000004B0203
:100A90005E000000B8015D00000072015E00000011
:100AA00026015F000000DC00320200004B027701EB
:100AB000000093025E0000004B025F000000EE01A8
:100AC0005E000000B8015D00000088015E000000CB
:100AD000B8015F000000D2015E000000EE015D0081
:100AE0000000D2015E000000B8015F000000880134
:100AF0005E0000004A015D000000B8015E000000D9
:100B000088015F0000004A015E00000026015D00D0
:100B10000000F7005E000000E9005F000000DC005C
:100B20005E000000C4005D000000A5005E00000043
:100B3000C4005F000000DC005E000000E9005D0012
:100B40000000F7005E00000026015F0000004A017F
:100B50005E00000088015D00000072016504000075
:100B60004A01770100003701EE020000E402EE02C4
:100B700000002A02AA0300009F01BB0000009F01A1
:100B8000BC0000002A02BB000000EE01770100005B
:100B9000B801770100009F01770100007201770121
:100BA0000000B801650400009F01BC0000009F0127
:100BB0003202000027057701000093007701000052
:100BC000A50077010000DC00BC000000D000BB00E5
:100BD0000000A500BC000000DC0077010000D00090
:100BE000BB000000A500BC000000100320050000B1
:100BF0004A0177010000B801BC0000009F01BB0062
:100C000000004A01BC000000B801EE0200009F0194
:100C1000BB000000B801BC000000EE01770100003D
:100C2000EE0132020000F7005F00000015015E00D7
:100C3000000037015E0000004A015D000000720103
:100C40005F0000009F015E000000B8015E00000030
:100C5000EE015D0000002A025F0000006E025E00EF
:100C600000009302BB00BC007201BB000000B80191
:100C7000BC0000009302BB000000EE01BC000000BD
:100C80004B02BB0000007201BC000000B801BB00B9
:100C900000002601330200004A01EE02BB002601DB
:100CA000BC00BB002601BC0000004A01A90377017B
:100CB0008801770100008801BC0000004A0177012B
:100CC00000007201BB000000720177010000720198
:100CD000770100004A01BC00000026012F0000003F
:100CE0004A012F00190126015E005D0026014D0317
:100CF0005E008801770100008801BB0000007201DE
:100D0000BC00BB002601BC0000004A01BB00BC00C7
:100D10004A019706000015015F00000026015E00F1
:100D20000000F7005F00000015015E0000002601D2
:100D30005E0000004A015D0000004A015E00000004
:100D400072015D00000088015F000000B8015E00D4
:100D50000000EE015E0000002A025D0000004B0270
:100D6000330200009302EE02BB004B02BC00BB004A
:100D70004B02BC0000009302BB000000700365043E
:100D800000007003770100007003330200001003BD
:100D9000BB000000E402330200004B02BB00000075
:100DA000B801BC0000008801BB000000720177019F
:100DB0000000C4005F000000DC005E000000F700DF
:100DC0005E00000072015D00000088015F0000000D
:100DD000B8015E0000004B025E000000E4025D000E
:100DE000000010035F000000E4025E0000004B0200
:100DF0005E000000B8015D00000088015F00000097
:100E000072015E00000088015E000000B8015D0014
:100E100000009302DC0500002601330200004A01B5
:100E2000EE02BB002601BC00BB002601BC00000096
:100E30004A01A903770188017701BC004A01BB0080
:100E4000BC007201BB0000007201BC00BB004A0183
:100E50003302000026012005BC0088017701000054
:100E60008801BB0000007201BC00BB002601BC0071
:100E700000004A01BB00BC004A012005BC009300F1
:100E80005E000000A5005D000000B9005F000000EA
:100E9000C4005E000000DC005E000000F7005D00A2
:100EA000000015015F00000026015E0000004A01FD
:100EB0005E00000072015D00000088015F0000001C
:100EC000B8015E000000EE015E0000002A025D0035
:100ED00000004B025F00000093025E000000E4028D
:100EE0005E00000010035D00000093027701000027
:100EF0007003BC0000009302770100007003BB0088
:100F000000009302770100007003BC000000930210
:100F10007701000093025E0000004B025D000000BC
:100F2000EE01EE020000F7005F00000026015E0007
:100F300000004A015E00000072015D000000B8017F
:100F40005F000000EE015E0000004A015E0000004C
:100F500072015D000000B8015F000000EE015E005C
:100F600000004B025E00000093025D000000B8012B
:100F70005F000000EE015E0000004B025E0000001A
:100F800093025D000000E4025F00000070035E0059
:100F90000000E4025E00000093025D0000004B02CE
:100FA0005F00000093025E000000E4025E000000AB
:100FB000DC035D000000E4025F00000093025E00BD
:100FC00000004B025E00000093025D000000E4029E
:100FD0005F000000DC035E000000970432020000A6
:100FE000DC035F00000010035E0000004B025E00A7
:100FF0000000EE015D00000010035F0000004B02E6
:101000005E000000EE015E00000088015D0000004F
:101010004B025F000000EE015E00000088015E00F0
:10102000000026015D000000BA025F0000004B02D4
:101030005E000000D2015E0000005D015D00000066
:10104000D2015F0000004B025E000000BA025E00A9
:1010500000004B025D000000A4035F000000BA0224
:101060005E0000004B025E000000D2015D00000047
:101070004B025F000000BA025E000000A4035E00A5
:101080000000BA025D000000A403DC05000083003C
:10109000210500006E0097060000100321050000E6
:1010A0001003200500004B025F000000B8015E0045
:1010B000000088015E00000026015D00000088013C
:1010C0005F000000B8015E0000004B025E000000FF
:1010D000B8015D00000088015F00000026015E008D
:1010E000000088015E000000B8015D0000004B02B6
:1010F0005F000000B8015E00000088015E00000093
:1011000026015D00000026016504000000000000CB
:1011100000000000000000000000000000000000CF
:1011200000000000000000000000000000000000BF
:1011300000000000000000000000000000000000AF
:10114000000000000000000000000000000000009F
:021440000000AA
:10144200AF000100EF036E00FC0000009300FC00FF
:101452000000B900FC0000009300FC0000007B00CB
:10146200FC0000009300FC000000B900FC0000003A
:101472009300FC0000006E00FC0000009300FC00E2
:101482000000B900FC0000009300FC0000007B009B
:10149200FC0000009300FC000000B900FC0000000A
:1014A2009300FC0000006E00FC0000009300FC00B2
:1014B2000000B900FC0000009300FC0000007B006B
:1014C200FC0000009300FC000000B900FC000000DA
:1014D2009300FC0000006E00FC0000009300FC0082
:1014E2000000B900FC0000009300FC0000007B003B
:1014F200FC0000009300FC000000B900FC000000AA
:101502009300FC0000007B00FC000000A500FC0032
:101512000000C400FC000000A500FC0000007B00ED
:10152200FC000000A500FC000000C400FC0000005C
:10153200A500FC0000006E00FC000000A500FC00FD
:101542000000C400FC0000008B00FC0000006E00E4
:10155200FC000000A500FC000000C400FC0000002C
:101562008B00FC0000006E00FC0000009300FC00F9
:101572000000B900FC0000009300FC0000007B00AA
:10158200FC0000009300FC000000B900FC00000019
:101592009300FC0000006E00FC0000009300FC00C1
:1015A2000000B900FC0000009300FC0000007B007A
:1015B200FC0000009300FC000000B900FC000000E9
:1015C2009300FC0000006E00FC0000009300FC0091
:1015D2000000B900FC0000009300FC0000007B004A
:1015E200FC0000009300FC000000B900FC000000B9
:1015F2009300FC0000006E00FC0000009300FC0061
:101602000000B900FC0000009300FC0000007B0019
:10161200FC0000009300FC000000B900FC00000088
:101622009300FC0000006E00FC0000009300FC0030
:101632000000B900FC0000009300FC0000007B00E9
:10164200FC0000009300FC000000B900FC00000058
:101652009300FC0000006E00FC0000009300FC0000
:101662000000B900FC0000009300FC0000007B00B9
:10167200FC0000009300FC000000B900FC00000028
:101682009300FC0000007B00FC000000A500FC00B1
:101692000000C400FC000000A500FC0000007B006C
:1016A200FC000000A500FC000000C400FC000000DB
:1016B200A500FC0000006E00FC000000A500FC007C
:1016C2000000C400FC0000008B00FC0000006E0063
:1016D200FC000000A500FC000000C400FC000000AB
:1016E2008B00FC0000007500FC0000009300FC0071
:1016F2000000AF00FC00123C9300F40200009300D3
:10170200FC0000007B00F40200007B00FC000000F3
:101712009300F40200009300FC0000007B00F4023E
:1017220000007B00FC0000009300F4020000930024
:10173200FC0000007B00F40200007B00FC000000C3
:101742009300F40200009300FC0000007B00F4020E
:1017520000007B00FC0000009300F40200009300F4
:10176200FC0000007B00F40200007B00FC00000093
:101772009300F40200009300FC0000007B00F402DE
:1017820000007B00FC0000009300F40200009300C4
:10179200FC0000007B00F40200007B00FC00000063
:1017A2009300F40200009300FC0000007B00F402AE
:1017B20000007B00FC000000A500F4020000A50070
:1017C200FC000000A500FC000000B900FC000000C5
:1017D200C400F80100006E00F40200006E00FC007C
:1017E20000006E00FC0000007B00FC0000008B008B
:1017F200F80100009300F40200009300FC000000D6
:101802007B00F40200007B00FC0000009300F40265
:1018120000009300FC0000007B00F40200007B004B
:10182200FC0000009300F40200009300FC000000A2
:101832007B00F40200007B00FC0000009300F40235
:1018420000009300FC0000007B00F40200007B001B
:10185200FC0000009300F40200009300FC00000072
:101862007B00F40200007B00FC0000009300F40205
:1018720000009300FC0000007B00F40200007B00EB
:10188200FC000000A500F4020000A500FC0000001E
:10189200A500FC000000B900FC000000C400F80133
:1018A20000006E00F40200006E00FC0000006E00FA
:1018B200FC0000007B00FC0000008B00FC0000002C
:1018C2006E00FC0000007500F80100007500FC00CD
:1018D20000007500FC0000007500FC0000007500AF
:1018E200FC0000007500FC0000007500FC00000018
:1018F200AF00FC000000AF00FC00F8018300FC0018
:1019020000008300FC00F8017500FC000000750077
:10191200FC00F801AF00FC000000AF00FC00F80181
:10192200AF00FC000000AF00FC00F8018300FC00E7
:1019320000008300FC00F8017500FC000000750047
:10194200FC00F801AF00FC000000AF00FC00F80151
:101952007500FC0000007500FC0000007500FC0032
:1019620000007500FC0000008300FC000000830002
:10197200FC0000008300FC0000008300FC0000006B
:10198200AF00FC000000AF00FC000000A500FC005E
:101992000000A500FC0000009300FC000000930082
:1019A200FC0000008300FC0000008300FC0000003B
:1019B2007500F8010000AF00F80100006E00F801A8
:1019C2000000A500F80100009300F402000093005B
:1019D200FC0000007B00F40200007B00FC00000021
:1019E2009300F40200009300FC0000007B00F4026C
:1019F20000007B00FC0000009300F4020000930052
:101A0200FC0000007B00F40200007B00FC000000F0
:101A12009300F40200009300FC0000007B00F4023B
:101A220000007B00FC0000006E00FC000000930040
:101A3200FC000000B900FC0000009300FC00000064
:101A42007B00FC0000009300FC000000B900FC00D9
:101A520000009300FC0000006E00FC0000009300F8
:101A6200FC000000B900FC0000009300FC00000034
:101A72007B00FC0000009300FC000000B900FC00A9
:101A820000009300FC0000006E00FC0000009300C8
:101A9200FC000000B900FC0000009300FC00000004
:101AA2007B00FC0000009300FC000000B900FC0079
:101AB20000009300FC0000006E00FC000000930098
:101AC200FC000000B900FC0000009300FC000000D4
:101AD2007B00FC0000009300FC000000B900FC0049
:101AE20000009300FC0000007B00FC000000A50049
:101AF200FC000000C400FC000000A500FC00000087
:101B02007B00FC000000A500FC000000C400FC00FB
:101B12000000A500FC0000006E00FC000000A50013
:101B2200FC000000C400FC0000008B00FC00000070
:101B32006E00FC000000A500FC000000C400FC00D8
:101B420000008B00FC0000006E00FC00000093000F
:101B5200FC000000B900FC0000009300FC00000043
:101B62007B00FC0000009300FC000000B900FC00B8
:101B720000009300FC0000006E00FC0000009300D7
:101B8200FC000000B900FC0000009300FC00000013
:101B92007B00FC0000009300FC000000B900FC0088
:101BA20000009300FC0000009300F4020000930088
:101BB200FC0000007B00F40200007B00FC0000003F
:101BC2009300F40200009300FC0000007B00F4028A
:101BD20000007B00FC0000009300F4020000930070
:101BE200FC0000007B00F40200007B00FC0000000F
:101BF2009300F40200009300FC0000007B00F4025A
:101C020000007B00FC000000A500F4020000A5001B
:101C1200FC000000A500FC000000B900FC00000070
:101C2200C400F80100006E00F40200006E00FC0027
:101C320000006E00FC0000007B00FC0000008B0036
:101C4200FC0000006E00FC0000007500F8010000BE
:101C52007500FC0000007500FC0000007500FC002F
:101C620000007500FC0000007500FC00000075001B
:101C7200FC000000AF00FC000000AF00FC00F80117
:101C82008300FC0000008300FC00F8017500FC00EA
:101C920000007500FC00F801AF00FC000000AF007E
:101CA200FC00F801AF00FC000000AF00FC00F801EE
:101CB2008300FC0000008300FC00F8017500FC00BA
:101CC20000007500FC00F801AF00FC000000AF004E
:101CD200FC00F8017500FC0000007500FC0000002B
:101CE2007500FC0000007500FC0000008300FC0091
:101CF20000008300FC0000008300FC000000830061
:101D0200FC000000AF00FC000000AF00FC0000007F
:101D1200A500FC000000A500FC0000009300FC00F0
:101D220000009300FC0000008300FC000000830020
:101D3200FC0000007500F8010000AF00F80100008F
:101D42006E00F8010000A500F80100009300F40203
:101D520000009300FC0000007B00F40200007B0006
:101D6200FC0000009300F40200009300FC0000005D
:101D72007B00F40200007B00FC0000009300F402F0
:101D820000009300FC0000007B00F40200007B00D6
:101D9200FC0000009300F40200009300FC0000002D
:101DA2007B00F40200007B00FC0000009300F402C0
:101DB20000009300FC0000007B00F40200007B00A6
:101DC200FC0000009300F40200009300FC000000FD
:101DD2007B00F40200007B00FC0000009300F40290
:101DE20000009300FC0000007B00F40200007B0076
:101DF200FC0000009300F40200009300FC000000CD
:101E02007B00F40200007B00FC0000009300F4025F
:101E120000009300FC0000007B00F40200007B0045
:101E2200FC0000009300F40200009300FC0000009C
:101E32007B00F40200007B00FC0000009300F4022F
:101E420000009300FC0000007B00F40200007B0015
:101E5200FC0000009300F40200009300FC0000006C
:061E62007B00F801000006
:101E68008801FC0000007201FC0000004A01FC002F
:101E780000004A01FC0000007201F003E506DC00E6
:101E8800FC0000008801FC0000007201FC0000005A
:101E98004A01FC0000004A01F80100007201F40246
:101EA80000002601F80100004A01FC000000DC00E7
:101EB800EF02F204DC00FC0000004A01F801000017
:101EC8007201FC0000008801F40200004A01FC00D5
:101ED80000001501F80100002601F40200004A0183
:101EE800F8010000DC00FC000000DC00F801000044
:101EF8007201FA02DC078801FC0000007201FC0094
:101F080000004A01FC0000004A01FC0000007201C8
:101F1800F003E506DC00FC0000008801FC0000007E
:101F28007201FC0000004A01FC0000004A01F402B2
:101F380000007201FC0000002601F40200004A01C2
:101F4800FC000000DC00F402E9054A01F801000089
:101F58007201FC0000008801F40200004A01FC0044
:101F680000001501F40200002601FC0000004A01EF
:101F7800F8010000DC00FC0000002601FC00000065
:101F88004A01FC0000005D01FC0000004A01FC0061
:101F980000002601FC0000000601FC00F801DC003E
:101FA800FC000000E900FC0000000601F801000048
:101FB8005D01F80100004A01FC0000002601FC0058
:101FC80000002601FC0000000601FC0000002601BC
:101FD800FC0000000601FC0000000601F8010000FA
:101FE8000601F8010000DC00FC000000E900FC002C
:101FF80000000601F80100005D01F80100008801F9
:10200800FC0000005D01FC0000004A01FC0000002B
:102018002601FC0000002601FC0000004A01FC002B
:1020280000005D01F80100005D01F8010000880171
:10203800FC000000B801FC000000D201FC00000018
:10204800D201FC000000B801F80100008801F80185
:1020580000005D01FC0000008801FC000000B801E0
:10206800FC000000B801FC0000008801F801000035
:102078005D01F80100002601FC0000000601FC00DB
:1020880000002601FC0000005D01FC0000005D016D
:10209800FC0000004A01F80100004A01FC000000B1
:1020A8007201FC0000007201FC00971ADC00FC00C1
:1020B80000008801FC0000007201FC0000004A01D9
:1020C800FC0000004A017A01000072017203E10776
:1020D8008801FC0000007201FC0000004A01FC00BD
:1020E80000004A01F40200007201FC000000260111
:1020F800F80100004A01F8010000DC00F402E905DB
:102108004A01F80100007201FC0000008801F40295
:1021180000004A01F80100001501F801000026013D
:10212800FC0000004A01F4020000DC00FC00000092
:10213800DC00F80100007201EB02EE06DC00FC0096
:1021480000008801FC0000007201FC0000004A0148
:10215800FC0000004A01FC0000007201F801DD08E3
:10216800DC00FC0000008801FC0000007201FC009B
:1021780000004A01FC0000004A01F402000072015C
:10218800FC0000002601F40200004A01FC000000E7
:10219800DC00F402E9054A01F80100007201FC00C4
:1021A80000008801F40200004A01F801000015014E
:1021B800F80100002601FC0000004A01F8010000B7
:1021C800DC00FC0000002601FC0000004A01FC00C5
:1021D80000005D01FC0000004A01FC00000026012F
:1021E800FC0000000601F4020000DC00FC00000016
:1021F800E900FC0000000601F80100005D01F8019B
:1022080000004A01FC0000002601FC000000260135
:10221800FC0000000601FC0000002601FC00000094
:102228000601FC0000000601F80100000601F801A3
:102238000000DC00FC000000E900FC0000000601D2
:10224800F80100005D01F80100008801FC000000B1
:102258005D01FC0000004A01FC0000002601FC00B2
:1022680000002601FC0000004A01FC0000005D019E
:10227800F80100005D01F80100008801FC00000081
:10228800B801FC000000D201FC000000D201FC00F3
:102298000000B801F80100008801F80100005D01A4
:1022A800FC0000008801FC000000B801FC000000F0
:1022B800B801FC0000008801FC0000005D01FC0082
:1022C80000005D01F80100002601FC000000060185
:1022D800FC0000002601FC0000005D01FC0000007D
:1022E8005D01FC0000004A01F80100004A01FC0001
:1022F80000007201FC0000007201F80297198801C1
:10230800FC0000007201FC0000004A01FC00000013
:102318004A01F80100007201F402E506DC00FC0045
:1023280000008801FC0000007201FC0000004A0166
:10233800FC0000004A01F40200007201FC000000E9
:102348002601F40200004A01FC000000DC00EB0258
:10235800F2054A01F80100007201FC000000880142
:10236800F40200004A01F80100001501F80100001C
:102378002601FC0000004A01F801FC00DC00FC001A
:102388000000DC00F801000072010403D607880190
:10239800FC0000007201FC0000004A01FC00000083
:1023A8007201F801E2088801FC0000007201FC00DB
:1023B80000004A01FC0000004A01F402000072011A
:1023C800FC0000002601F40200004A01FC000000A5
:1023D800DC00F402E9054A01F80100007201FC0082
:1023E80000008801F40200004A01F801000015010C
:1023F800F80100002601FC0000004A01F801000075
:10240800DC00FC0000002601FC0000004A01FC0082
:1024180000005D01FC0000004A01FC0000002601EC
:10242800FC0000000601F4020000DC00FC000000D3
:10243800E900FC0000000601F80100005D01F80158
:1024480000004A01FC0000002601FC0000002601F3
:10245800FC0000000601FC0000002601FC00000052
:102468000601FC0000000601F80100000601F80161
:102478000000DC00FC000000E900FC000000060190
:10248800F80100005D01F80100008801FC0000006F
:102498005D01FC0000004A01FC0000002601FC0070
:1024A80000002601FC0000004A01FC0000005D015C
:1024B800F80100005D01F80100008801FC0000003F
:1024C800B801FC000000D201FC000000D201FC00B1
:1024D80000008801FC0005008801F80100005D018A
:1024E800FC0000008801FC000000B801FC000000AE
:1024F800B801FC0000008801FC0000005D01FC0040
:1025080000005D01F80100002601FC000000060142
:10251800FC0000002601FC0000005D01FC0000003A
:102528005D01FC0000004A01F80100004A01FC00BE
:1025380000007201FC0000007201F802E703B80114
:10254800FC000000B801FC000000EE01FC000000E7
:10255800B801FC0000007201FC0000002601F8012F
:1025680000004A01FC0000007201FC000000B801F4
:10257800F402F402B801FC000000B801FC000000FD
:10258800B801FC000000EE01FC000000B801FC00EE
:1025980000007201FC0000002601F80100004A0159
:1025A800FC0000007201FC0000007201F402F40259
:1025B800B801FC000000B801FC000000B801FC00F4
:1025C8000000EE01FC000000B801FC0000007201F0
:1025D800FC0000002601F80100004A01FC00000090
:1025E8007201FC0000007201F402F003B801FC0063
:1025F8000000B801FC000000EE01FC000000B8017A
:10260800FC0000007201FC0000002601F801000037
:102618004A01FC0000007201FC0000007201F40293
:10262800F402B801FC000000B801FC000000B80189
:10263800FC000000EE01FC000000B801FC000000F6
:102648007201FC0000002601F80100004A01FC00AC
:1026580000007201FC0000007201F402F40288011B
:10266800FC000000B801FC000000B801F402F4020C
:102678008801FC0000007201FC00000072011103D7
:0E268800000000000000000000000000000044
:10269600456C696A6120756E61206F7063696F6E43
:1026A6003A0D0A005B315D20447261676F6E20420D
:1026B600616C6C202D204368612D4C61204865615A
:1026C600642D4368612D4C610D0A005B325D20501C
:1026D6006F7274616C202D205374696C6C20616C70
:1026E6006976650D0A005B505D204D6F646F207042
:0726F60069616E6F0D0A001F
:1026FD00060126014A015D018801B801EE010B02B8
:01270D00309B
:10270E008133E9F581E08093370280933002109295
:10271E002C0210923602109231021092290210925F
:10272E002802109227021092260210922502109271
:10273E002402109223021092220210922F02109263
:10274E002E0210922D02109221021092200210924F
:10275E001F0210921E0210921D0210921C02109265
:10276E001B0210921A0210922B0210922A02E8E615
:10277E00F0E08081897F80830E949E1808958233C5
:10278E00E9F581E0809337028093300280932C022A
:10279E008093360210923102109229021092280272
:1027AE0010922702109226021092250210922402F5
:1027BE00109223021092220210922F0210922E02D9
:1027CE0010922D02109221021092200210921F02DE
:1027DE0010921E0210921D0210921C0210921B02E9
:1027EE0010921A0210922B0210922A02E8E6F0E0E2
:1027FE008081897F80830E94BF1808958035C1F53E
:10280E00109237021092300210922C021092310266
:10281E00109229021092280210922702109226027C
:10282E00109225021092240210922302109222027C
:10283E0010922F0210922E0210922D02109221024F
:10284E001092200210921F0210921E0210921D0270
:10285E0010921C0210921B0210921A0210922B025E
:10286E0010922A020E94A9180E94BF180E949E1858
:02287E000895BB
:102880001F920F920FB60F9211242F933F938F93A5
:102890009F93EF93FF9386E09FEF90938500809343
:1028A000840080913202882371F0809133028F5F1F
:1028B00080933302843138F0E8E6F0E0808186606E
:1028C00080831092320280912F028823A1F08091A0
:1028D0002602909127020196909327028093260268
:1028E000209124023091250228173907D8F481E07D
:1028F0008093310217C080912E02882399F0809135
:102900002602909127020196909327028093260237
:1029100020912202309123022817390718F481E010
:102920008093300280912B028823A1F080911E02B7
:1029300090911F02019690931F0280931E02209196
:102940001C0230911D0228173907D8F481E08093CA
:102950002D0217C080912A02882399F080911E02CF
:1029600090911F02019690931F0280931E02209166
:102970001A0230911B022817390718F481E080935E
:102980002C02FF91EF919F918F913F912F910F908A
:082990000FBE0F901F90189577
:102998000F931F93CF93DF93811134C006B10F7348
:1029A80080913502D02FD827182F1D238095D82342
:1029B800C0E023C02C2F30E081E090E00C2E02C054
:1029C800880F991F0A94E2F7412F482389F0C9011B
:1029D800880F991F092E000CAA0B8350994DAF4FF1
:1029E800FC015A2F0E94C818CB010E94401504C050
:1029F8008D2311F00E949E18CF5FC630D8F2009345
:102A0800350235C0813099F519B1107380913402BF
:102A1800D12FD827082F0D238095D823C4E023C0B1
:102A28002C2F30E081E090E00C2E02C0880F991F17
:102A38000A94E2F7402F482389F0C901880F991FAB
:102A4800092E000CAA0B8350994DAF4FFC015A2F49
:102A58000E94C818CB010E94401504C08D2311F0B4
:102A68000E949E18CF5FC630D8F210933402DF91CF
:082A7800CF911F910F91089509
:102A8000DF92EF92FF920F931F93CF93DF93CDB717
:102A9000DEB762970FB6F894DEBF0FBECDBF7C01E4
:102AA000892B09F44FC084B1886084B98CE0E8E0D8
:102AB000F2E0DE01119601900D928A95E1F786E031
:102AC000E4E1F2E0DE011D9601900D928A95E1F7B6
:102AD000D12C20E030E02BC00D2D10E0F801EE0FDE
:102AE000FF1F81E090E08C0F9D1FE80FF91F2081F0
:102AF0003181D7010E948F189B01AC01220F331F37
:102B0000441F551F60E074E284EF90E00E942D188E
:102B1000215031092F3F310509F040F4EDE0F0E09C
:102B2000EC0FFD1FE00FF11F908105C0D39495E0DD
:102B30009D1590F690E082E48093B0009093B100F0
:102B40002093B30062960FB6F894DEBF0FBECDBFE0
:102B5000DF91CF911F910F91FF90EF90DF9008953B
:102B6000DF92EF92FF920F931F93CF93DF93CDB736
:102B7000DEB72C970FB6F894DEBF0FBECDBF8C0129
:102B8000892B09F44BC08AB180648AB988E0E0E0FF
:102B9000F2E0DE01119601900D928A95E1F782E054
:102BA000898783E08A8784E08B8785E08C87D12CB6
:102BB00020E030E02BC0ED2CF12CF701EE0FFF1FD1
:102BC00081E090E08C0F9D1FE80FF91F208131817B
:102BD000D8010E948F189B01AC01220F331F441FA4
:102BE000551F60E074E284EF90E00E942D182150A0
:102BF00031092F3F310509F040F4E9E0F0E0EC0F36
:102C0000FD1FEE0DFF1D808105C0D39493E09D153F
:102C100090F680E092E494BD85BD27BD2C960FB65A
:102C2000F894DEBF0FBECDBFDF91CF911F910F9102
:082C3000FF90EF90DF90089582
:102C3800CF93DF9300D000D000D0CDB7DEB780911E
:102C48003602811113C04091280250912902CA010D
:102C5800019690932902809328029E012F5F3F4F8F
:102C680060EE70E080E00E94EF1612C040912802EA
:102C780050912902CA010196909329028093280253
:102C88009E012F5F3F4F68E67EE180E00E94EF16CD
:102C980089819A812B813C813093250220932402DB
:102CA8002D813E8130932302209322020E94B01589
:102CB80081E080932F0226960FB6F894DEBF0FBEF0
:082CC800CDBFDF91CF9108950B
:102CD0000E947E181092C50087E68093C40010926F
:102CE000C00088E98093C10086E08093C2000E9402
:102CF0004F18789466E976E280E00E94B5176AEA98
:102D000076E280E00E94B51761ED76E280E00E94F5
:102D1000B5176CEE76E280E00E94B517809137021D
:102D2000882321F0813011F40E94AE16909139026F
:102D300080913802981759F0E82FF0E0E050FF4FEB
:102D4000C0818F5F8F778093380281E001C080E07F
:0C2D5000882321F38C2F0E948713E0CF12
:102D5C0080913102882371F0109227021092260282
:102D6C0010922F02109231020E94BF1881E08093C2
:102D7C002E020EC080913002882351F0109227024F
:102D8C001092260210922E02109230020E941C16F3
:102D9C0080912D02882371F010921F0210921E0256
:102DAC0010922B0210922D020E949E1881E08093AB
:102DBC002A02089580912C02882351F010921F0250
:102DCC0010921E0210922A0210922C020E942817B6
:022DDC00089558
:102DDE008F929F92AF92CF92DF92EF921F93CF93EB
:102DEE00DF936B01E82E10E020C0612F70E0660FBC
:102DFE00771FE901C60FD71FCA01880F991F840FCD
:102E0E00951F880F991F4601AE2C880E991EA11C86
:102E1E0097FDAA94AA2DC401860F971FA11DFC0130
:102E2E0085919491998388831F5F1330F0F2DF911F
:102E3E00CF911F91EF90DF90CF90AF909F908F909A
:022E4E000895E5
:102E5000CF93DF9300D000D000D0CDB7DEB7409144
:102E6000200250912102CA01019690932102809381
:102E700020029E012F5F3F4F62E474E180E00E94D8
:102E8000EF1689819A812B813C8130931D0220931A
:102E90001C022D813E8130931B0220931A020E9456
:102EA000401581E080932B0226960FB6F894DEBF82
:0A2EB0000FBECDBFDF91CF91089552
:102EBA001F920F920FB60F9211242F933F934F93A5
:102ECA005F936F937F938F939F93AF93BF93EF9388
:102EDA00FF9380E00E94CC14E8E6F0E08081897FCD
:102EEA0080830E94A918FF91EF91BF91AF919F91A2
:102EFA008F917F916F915F914F913F912F910F9099
:082F0A000FBE0F901F901895F7
:102F12001F920F920FB60F9211242F933F934F934C
:102F22005F936F937F938F939F93AF93BF93EF932F
:102F3200FF9381E00E94CC14E8E6F0E08081897F73
:102F420080830E94A918FF91EF91BF91AF919F9149
:102F52008F917F916F915F914F913F912F910F9040
:082F62000FBE0F901F9018959F
:102F6A009B01482F60E070E002C06F5F7F4FF9015C
:102F7A00549147FD50815523E1F02F5F3F4F4F4F4A
:102F8A00E0913B0291E09E0F9F7780913A02981759
:102F9A0069F0F0E0E058FE4F508390933B02E1EC79
:102FAA00F0E090819062908381E001C080E081111D
:062FBA00DCCFCB010895FD
:102FC0001F920F920FB60F9211248F93EF93FF93DE
:102FD00080913B02E0913A028E1306C0E1ECF0E0F2
:102FE00080818F7D80830CC0F0E0E058FE4F8081AF
:102FF0008093C60080913A028F5F8F7780933A0268
:10300000FF91EF918F910F900FBE0F901F90189529
:103010001F920F920FB60F9211242F938F939F93AD
:10302000EF93FF932091C600E091390281E08E0F6B
:103030008F7790913802891731F0F0E0E050FF4F20
:10304000208380933902FF91EF919F918F912F916F
:0A3050000F900FBE0F901F9018950F
:10305A00A1E21A2EAA1BBB1BFD010DC0AA1FBB1F92
:10306A00EE1FFF1FA217B307E407F50720F0A21B04
:10307A00B30BE40BF50B661F771F881F991F1A9471
:10308A0069F760957095809590959B01AC01BD019B
:04309A00CF010895C5
:10309E0087B1807C87B988B18F6388B98AB18F7CFC
:1030AE008AB98BB180638BB984B1806284B986E0B2
:1030BE00809368008FE380936C0080E380936D00B3
:0230CE00089563
:1030D0001F920F920FB60F9211248F93EF93FF93CD
:1030E000E8E6F0E080818660808315BCFF91EF9177
:0C30F0008F910F900FBE0F901F9018954D
:1030FC001092800083E08093810086E09FEF909394
:10310C00850080938400EFE6F0E08081816080830D
:02311C00089514
:10311E00A29FB001B39FC001A39F700D811D11240A
:0E312E00911DB29F700D811D1124911D0895F9
:10313C001092B0001092B10084B1886084B985B14E
:06314C00877F85B908959C
:103152001092330281E080933202E8E6F0E080814F
:06316200897F80830895BF
:10316800EC010E94D5180E94D418CE010E94D618EE
:06317800CE010E94D218F6
:10317E0014BC15BC8AB180648AB98BB18F7B8BB9B4
:02318E000895A2
:1031900057FD03C0659175910895619171910895EE
:0431A0000C9400008B
:0431A4000E946E0017
:0231A800089588
:0231AA00089586
:0231AC00089584
:1031AE0008004000000100040800200040008000DC
:0A31BE0000010004020304050607E7
:0131C8003FC7
:00000001FF
