:100000000C945A000C94F7030C94F7030C94F70328
:100010000C94F7030C94F7030C94F7030C94F70378
:100020000C94F7030C94F7030C94F7030C94F70368
:100030000C94F7030C944F030C94F7030C94F70300
:100040000C94F7030C94F7030C9412030C94B20273
:100050000C94F7030C94F7030C94F7030C94F70338
:100060000C94F7030C94F7030202FF01E901E60187
:10007000F001EC010502F601F301FC01F9010603B0
:10008000FA020C0311031103110311030F031103EF
:10009000FD02110311031103110309030003F4020C
:1000A0001103F70211031103F1021103030301000D
:1000B0000205800011241FBECFEFD8E0DEBFCDBF08
:1000C000EEEAF0E040E017C0B591A5913591259199
:1000D000059107FD0CC095918591EF01F92FE82F4F
:1000E00005900D92A217B307D9F7FE0104C01D9227
:1000F000A217B307E1F7E33BF40731F70E942F02A1
:080100000C94B403F894FFCF46
:10010800FF640160055C08580A551351174D1B49D7
:1001180020442440283C2D373232362E3B294123B7
:10012800461E4C185212590B60046004590B5212A7
:100138004C18461E41233B29362E32322D37283C97
:10014800244020441B49174D13510F550C58085C87
:10015800046064640460085C0C580F551351174D13
:100168001B4920442440283C2D373232362E3B2967
:100178004123461E4C185212590B60046004590B57
:1001880052124C18461E41233B29362E32322D3747
:10019800283C244020441B49174D13510F550C5837
:1001A800085C046064640460085C0C580F551351C3
:1001B800174D1B4920442440283C2D373232362E17
:1001C8003B294123461E4C185212590B6004600407
:1001D800590B52124C18461E41233B29362E3232F7
:1001E8002D37283C244020441B49174D13510F55E7
:1001F8000C58085C046064640460085C0C580F5573
:100208001351174D1B4920442440283C2D373232C6
:10021800362E3B294123461E4C185212590B6004B6
:100228006004590B52124C18461E41233E29392EA0
:10023800393230372C3C284024441E491A4F175570
:0A0248001257145A0A649682FF014F
:100252000104080408040804080408040804080443
:10026200080408040804080408040804080408042C
:100272000805080508050805080508050805080514
:10028200080508050805080508050A050A050A05FE
:100292000A050A050A050A050A050A050A050A05E4
:1002A2000A030A030A030A030A030A030A030A03E4
:1002B2000A030A030A030A030A030B030B030B03D1
:1002C2000B030B030B030B030B030B030B030B03BC
:1002D2000B060B060B060B060B060B060B060B0694
:1002E2000B060B060B060B060B060906090609068A
:1002F2000906090609060906090609060906090684
:100302000904090409040904090409040904090483
:0A03120009040904090409040902A2
:10031C000A53656C656363696F6E61206C6120665E
:10032C006967757261206120646962756A61723AED
:10033C000A0031202D20547269616E67756C6F0A4A
:0D034C0000526563696269646F3A20000A1F
:10035A006F927F928F92AF92BF92CF92EF92FF925B
:10036A000F931F93CF935B01C82E3901842E2FE37D
:10037A008DE093E0215080409040E1F700C00000FA
:10038A00E12CF12C4CC097010F2C000C440BAC2D26
:10039A00C501820F931FA41FFC018491260D371DEE
:1003AA00481D642FA901FA01C4918730E1F190E058
:1003BA00FC013197EB30F10518F5EC5CFF4F0C941A
:1003CA00BF030E94D40305C00E94CF0302C00E944B
:1003DA00D90380E01FC00E94DE03FBCF0E94ED0319
:1003EA00F8CF0E94F203F5CF0E94E303F2CF0E94F6
:1003FA00E803EFCF0E94C503ECCF0E94CA03E9CFFE
:10040A000E94C503E6CFE3ECF9E03197F1F700C0AB
:10041A0000008F5F8C17B8F3FFEFEF1AFF0AE016A0
:10042A00F10608F4B0CF2FE38DE093E0215080402D
:10043A009040E1F700C000000E94C503CF911F91D0
:10044A000F91FF90EF90CF90BF90AF908F907F90D9
:04045A006F90089502
:10045E001092C50087E68093C4000E947C0388E951
:10046E008093C10086E08093C200789484B181604D
:10047E0084B98EEF8AB96CE173E080E00E9473025A
:10048E006EE373E080E00E94730281EE94E00197C8
:10049E00F1F700C000000E943503C82F882359F0E1
:1004AE006DE473E080E00E9473028C2F0E94A20321
:1004BE008AE00E94A203C13359F40AEC10E028E04E
:1004CE0031E040E062E572E080E00E94AD01E3CFF2
:0804DE008C2F0E94E602DFCF23
:1004E600CF92DF92EF920F931F93CF936B01E82E7B
:1004F600C0E01FC08091030290E04E2D96012C0FA4
:10050600311D411DF901249147FD2081FC01E05870
:10051600FE4F20838091030290E001968F779078BA
:10052600992324F4019780689F6F019680930302B4
:10053600CF5F0C2F10E08E2DB6010E94660399271F
:1005460008171907BCF2E1ECF0E080818062808335
:0E055600CF911F910F91EF90DF90CF900895FD
:100564001F920F920FB60F9211248F939F93EF93C4
:10057400FF9390910402809103029817B9F0E091DF
:100584000402F0E0E058FE4F80818093C600809121
:10059400040290E001968F779078992324F40197D0
:1005A40080689F6F01968093040205C0E1ECF0E03F
:1005B40080818F7D8083FF91EF919F918F910F9028
:0805C4000FBE0F901F90189567
:1005CC0090E0FC01E356F109E831F10520F5E15C1E
:1005DC00FF4F0C94BF030E94C50308950E94CA03E9
:1005EC0008950E94D40308950E94CF0308950E9499
:1005FC00D90308950E94DE0308950E94E303089531
:10060C000E94E80308950E94ED0308950E94F203EE
:08061C0008950E949003089567
:100624001F920F920FB60F9211248F93EF93FF93A3
:10063400E0910102F0E08091C600E050FF4F80831A
:10064400809101028F5F80930102809101028823CF
:1006540014F410920102FF91EF918F910F900FBE4D
:060664000F901F90189595
:10066A009091020280910102981791F0E0910202A2
:10067A00F0E0E050FF4F8081909102029F5F9093DB
:10068A00020290910202992324F410920202089520
:04069A0080E008955F
:10069E001F920F920FB60F9211248F93809100022A
:1006AE008F5F8093000282EC8093850087EF8093AA
:0E06BE0084008F910F900FBE0F901F90189523
:1006CC00CF92DF92EF926B01E82EA82FCB01FC01A9
:1006DC002491A7FD2081222319F00196A11DF7CFAB
:0C06EC008C199D09EF90DF90CF900895CD
:1006F80010928000E1E8F0E01082808188608083B9
:1007080089EF90E0909389008093880080818360CE
:08071800808382E086BB089596
:100720001092000282EC8093850087EF8093840012
:1007300002C00E94E803809100028630D0F30E943C
:04074000C503089550
:10074400E0910302F0E0E058FE4F808380910302C1
:100754008F5F8093030280910302882314F4109224
:0407640003020895EF
:10076800EC010E94FC030E94FB03CE010E94FD03E2
:06077800CE010E94F9030E
:0C077E00EE0FFF1F0590F491E02D099490
:0A078A008BB1837088608BB908956D
:0A0794008BB1837084608BB9089567
:0A079E008BB18F7080618BB9089554
:0A07A8008BB18F7080628BB9089549
:0A07B2008BB18F7080648BB908953D
:0A07BC008BB18F7080688BB908952F
:0A07C6008BB18F7080658BB9089528
:0A07D0008BB18F7080698BB908951A
:0A07DA008BB18F7080668BB9089513
:0A07E4008BB18F70806A8BB9089505
:0407EE000C94000067
:0407F2000E948200DF
:0207F600089564
:0207F800089562
:0207FA00089560
:00000001FF
