:100000000C944F000C9449020C9449020C94490240
:100010000C9449020C9449020C9449020C94490234
:100020000C9449020C9449020C9449020C94490224
:100030000C9449020C94A4010C9449020C944902BA
:100040000C9449020C9449020C9467010C9407012A
:100050000C9449020C9449020C9449020C944902F4
:100060000C9449020C9449025B014F016101660145
:10007000660166016601640166015201660166015E
:10008000660166015E015501490166014C01660188
:100090006601460166015801010002058000112435
:1000A0001FBECFEFD8E0DEBFCDBFE8E9F0E040E013
:1000B00017C0B591A59135912591059107FD0CC00B
:1000C00095918591EF01F92FE82F05900D92A217D8
:1000D000B307D9F7FE0104C01D92A217B307E1F7D9
:1000E000ED39F40731F70E94D1000C940602F89420
:0200F000FFCF40
:1000F2000A53656C656363696F6E61206C6120668B
:100102006967757261206120646962756A61723A19
:100112000A0031202D20547269616E67756C6F0A76
:02012200000AD1
:10012400CF92DF92EF920F931F93CF936B01E82E40
:10013400C0E01FC08091030290E04E2D96012C0F69
:10014400311D411DF901249147FD2081FC01E05836
:10015400FE4F20838091030290E001968F77907880
:10016400992324F4019780689F6F0196809303027A
:10017400CF5F0C2F10E08E2DB6010E94BB01992792
:1001840008171907BCF2E1ECF0E0808180628083FB
:0E019400CF911F910F91EF90DF90CF900895C3
:1001A2001092C50087E68093C40010928000E1E8B7
:1001B200F0E0808181608083EFE6F0E08081816001
:1001C200808388E98093C10086E08093C20078949E
:1001D20084B1816084B98EEF8AB962EF70E080E009
:1001E2000E94920064E171E080E00E94920081EE40
:1001F20094E00197F1F700C000000E948A01813368
:0C02020011F40E94F7010E943B01F7CFAD
:10020E001F920F920FB60F9211248F939F93EF931D
:10021E00FF9390910402809103029817B9F0E09138
:10022E000402F0E0E058FE4F80818093C60080917A
:10023E00040290E001968F779078992324F4019729
:10024E0080689F6F01968093040205C0E1ECF0E098
:10025E0080818F7D8083FF91EF919F918F910F9081
:08026E000FBE0F901F901895C0
:1002760090E0FC01E356F109E831F10520F5EC5C6C
:10028600FF4F0C9411020E94170208950E941C024F
:1002960008950E94260208950E94210208950E9450
:1002A6002B0208950E94300208950E943502089597
:1002B6000E943A0208950E943F0208950E94440255
:0802C60008950E94E50108956E
:1002CE001F920F920FB60F9211248F93EF93FF93FD
:1002DE00E0910102F0E08091C600E050FF4F808374
:1002EE00809101028F5F8093010280910102882329
:1002FE0014F410920102FF91EF918F910F900FBEA7
:06030E000F901F901895EE
:100314009091020280910102981791F0E0910202FB
:10032400F0E0E050FF4F8081909102029F5F909334
:10033400020290910202992324F410920202089579
:0403440080E00895B8
:100348001F920F920FB60F9211248F938091000283
:100358008F5F8093000282EC8093850087EF809303
:0E03680084008F910F900FBE0F901F9018957C
:10037600CF92DF92EF926B01E82EA82FCB01FC0102
:100386002491A7FD2081222319F00196A11DF7CF04
:0C0396008C199D09EF90DF90CF90089526
:1003A2000E9426022FE788E391E02150804090408E
:1003B200E1F700C000000E9430028FE493EC019745
:0803C200F1F700C000000895EE
:1003CA001092000282EC8093850087EF809384006C
:1003DA0002C00E943A02809100028630D0F30E9445
:0403EA001702089559
:1003EE000E941C022FE38DE093E02150804090404C
:0E03FE00E1F700C00000F8940E94D101FDCF8D
:10040C00EC010E944E020E944D02CE010E944F024E
:06041C00CE010E944B021C
:0C042200EE0FFF1F0590F491E02D0994EF
:0A042E008BB1837088608BB90895CC
:0A0438008BB1837084608BB90895C6
:0A0442008BB18F7080618BB90895B3
:0A044C008BB18F7080628BB90895A8
:0A0456008BB18F7080648BB908959C
:0A0460008BB18F7080688BB908958E
:0A046A008BB18F7080658BB9089587
:0A0474008BB18F7080698BB9089579
:0A047E008BB18F7080668BB9089572
:0A0488008BB18F70806A8BB9089564
:040492000C940000C6
:040496000E94770049
:02049A000895C3
:02049C000895C1
:02049E000895BF
:00000001FF
